:040000006F00C07756
:1000040000000000000000000A0300000C030000D0
:10001400000000007A07000000000000000000005B
:100024007A0700007A0700000000000000000000CA
:100034007A070000000000007A07000000000000BA
:100044007A0700007A0700007A0700007A070000A8
:100054007A0700007A0700007A0700007A07000098
:100064007A0700007A0700007A0700007A07000088
:100074007A0700007A0700007A0700007A07000078
:100084007A0700007A0700007A0700007A07000068
:100094007A0700007A0700007A0700007A07000058
:1000A4007A0700007A0700007A0700007A07000048
:1000B4007A0700007A0700007A0700007A07000038
:1000C4007A0700007A0700007A0700007A07000028
:1000D4007A0700007A0700007A0700007A07000018
:1000E4007A0700007A0700007A0700007A07000008
:1000F4007A0700007A0700007A0700007A070000F8
:10010400000000007A0700007A0700007A07000068
:100114007A0700007A0700007A0700007A070000D7
:100124007A0700007A0700007A0700007A070000C7
:100134007A0700007A0700007A0700007A070000B7
:100144007A0700007A0700007A0700007A070000A7
:100154007A0700007A0700007A0700007A07000097
:100164007A0700007A0700007A0700007A07000087
:100174007A0700007A0700007A0700007A07000077
:100184007A0700007A0700007A0700007A07000067
:100194007A0700007A0700007A0700007A07000057
:1001A400000000000000000000000000000000004B
:0C01B4000000000000000000000000003F
:1001C000397106C022C226C44AC64EC852CA56CC8D
:1001D0005ACE5ED062D266D46AD66ED8232025006D
:1001E00003A1050082401244A2443249C249524A46
:1001F000E24A724B825B125CA25C325DC25D21619D
:100200008280397101436EC619A0397141536AC8A1
:1002100066CA62CC5ECE19A0397101535AD056D24B
:1002200052D44ED64AD826DA22DC06DE33016140AB
:10023000828241114AC026C222C406C68282B24DC1
:100240004101024D924C224CB24B4101024B924A69
:10025000224AB2494101024992442244B24041013A
:1002600082803D432A876373C3029377F700BDEF13
:10027000ADE5937606FF3D8ABA960CC34CC30CC716
:100280004CC74107E36BD7FE11E28280B306C3403F
:100290008A069702000096966780A6002307B7009B
:1002A000A306B7002306B700A305B7002305B700D0
:1002B000A304B7002304B700A303B7002303B700C8
:1002C000A302B7002302B700A301B7002301B700C0
:1002D000A300B7002300B700828093F5F50F939633
:1002E0008500D58D93960501D58D61B7939627002E
:1002F0009702000096968682E78086FA9680C1175C
:100300001D8F3E96E374C3F8A5B701A0B707EFBEF3
:1003100037E700E0938707083CC701A0EFF27FF1C1
:10032000372900000146894537150140652313052B
:10033000401FEF0050030546894537150140592BF2
:100340001305401FEF003002130549EBEF00B02109
:100350009385818213854182A535E9B7EFF27FED60
:100360000146914537150140B5231305401FEF00A5
:10037000807F0546914537150140A92B1305401F85
:10038000EF00607E9385C18213858182153DC9BFD0
:10039000EFF29FE80144B72900000504A285138508
:1003A000C9EBEF00100B1305800CEF00C07B9385A9
:1003B00041821385C1822935CDB7EFF29FE7411104
:1003C0008545414502C202C402C6412D99477C823F
:1003D000C1473EC64C008D47371501403EC41D291C
:1003E0000546894537150140F521054691453715E4
:1003F0000140CD21410185B5EFF2BFE30945C5219B
:10040000052C2D2F716513050520EF002079B70706
:10041000002083A5070837250000130545E5EF00F8
:100420005003E526AA8537250000130545E6EF00B1
:10043000500237250000130545E7EF00D012B53F05
:10044000B128C928B70500002A86930600109385B5
:10045000C53113854182212675282A86B7050000FB
:10046000930600109385C53513858182CD2C5D20C0
:100470002A86B70500009385053993060010138579
:10048000C182F12C372500001305C5E8EF00B00D3F
:100490009385418213850182253301A0EFF27FD934
:1004A000B70600201387060D23A8E182B7070020B6
:1004B0009387074D23A8F60CB71700209387078D65
:1004C0002320F740B71600208567BA97938606CD9C
:1004D00023A0D780B71600209386064D94C3B72675
:1004E00000209386068D23A0F7C023A0D7408967FC
:1004F000BA9737270020130707CD3725000023A020
:10050000E78023A007C013060040A145130585F12D
:10051000892791B3EFF2FFD193870183804309E8E4
:1005200037250000130545EFEF00F003228525B3C2
:10053000184098C3E5BFB71702409843B706FFF0CD
:1005400041111367170098C3D84337060200758F0F
:10055000D8C39843B706F7FEFD16758F98C3984326
:10056000B706FCFFFD16758F98C3D843B70601FF89
:10057000FD16758FD8C39843B70600ECFD16758F2E
:1005800098C33707FF0098C723A6070202C402C614
:100590009843C166558F98C3B716024005679C42C1
:1005A000F18F3EC6A24785073EC4B24781E7A24706
:1005B000E397E7FEB71702409C431397E7006357A2
:1005C000070685473EC632478547631FF704B717BE
:1005D0000240D843B706C1FFFD16D8C3D843D8C3DD
:1005E000D84313670740D8C3D843758FD8C3D843BF
:1005F000B7062900558FD8C39843B7060001558F19
:1006000098C3984393166700E3DD06FED843B716F8
:100610000240719BD8C3D84313672700D8C3214732
:10062000DC42B18BE39EE7FE4101828002C661BFDE
:10063000B7160240D842B70700201146318B938786
:1006400007086305C70021466308C70237177A0009
:100650001307072098C33717024058431183937636
:10066000F700370700201307070036971423984335
:100670003357D70098C38280D842D4424166498319
:100680003D8BF18E1306270015CF3D47630FE60221
:100690004147630FE602454781456313E600414643
:1006A000A1E23747024003270780418B0DC7371768
:1006B0007A00130707203306C70290C3C9DD9843A9
:1006C000058349BF81454946E1BF85453546C9BFD8
:1006D00081453D46F1B737173D0013070790E1BF4D
:1006E0003715024058559316F700585563DF060436
:1006F00011833D8B9306170037177A0013070720E5
:100700003357D70298C35455A182BD8A8DE29546CE
:100710003307D702058398C33717024058579443CD
:100720003D8B050733D7E60298C3984369B7054563
:100730006394A600E546E9BF3D456396A600D14611
:100740003387E602C9BF8906E5BF3D8B93061700D4
:1007500037177A00130707203357D702F1B78A06F5
:100760003696419A930706FC1CC123A00700910707
:10077000E31DF6FE2320B6FC828001A09701002035
:1007800093814110178100201301C18717250000B4
:1007900013058585970500209385C586138681817D
:1007A00063FAC5008322050023A0550011059105B9
:1007B000E3EAC5FE13850182972500209385C59144
:1007C0006377B500232005001105E36DB5FEFD42FA
:1007D000739002BCAD4273904280B7620000938276
:1007E000820873900230970200009382E28193E2C4
:1007F000320073905230EFF01FD4970200009382C2
:10080000E2BF7390123473002030B7F7FF1F03A5C7
:10081000477082809C4513F7070113F8F70001C762
:10082000D8413368E8008E2113F7F50F39C318411A
:100830008146854E3D4F930F800293028004214EE6
:100840003396DE00B3F8C5006311160393982600B3
:1008500033131F011343F3FF3377E300B318180179
:1008600033E7E800639FF70550C98506E39AC6FDA4
:1008700018C11307F00F6375B70454412146854E24
:100880003D4F930F800293028004414EB398CE00F7
:1008900033F715016392E80213172600011733138B
:1008A000EF001343F3FFB376D3003317E800D98E7C
:1008B000639DF701232A15010506E319C6FD54C1FE
:1008C0008280E39457FA10C94DB7E39757FE232867
:1008D0001501DDB719C20CC982804CC9828023AAD8
:1008E000A1828280371702405C439146B18B6385B9
:1008F000D700A1466382D706B7177A0093870720EF
:100900001CC1371602405C4237070020130707015D
:100910009183BD8BBA9794231C41B3D7D7005CC198
:100920005442A1829D8ABA969422B3D6D70014C5A8
:100930005442AD829D8A36971823B3D7E7005CC531
:1009400058423983937637001387418036971823AE
:10095000B3D7E7021CC982805C435843C166C98390
:10096000758FB7F6FF1F83A6C670BD8B89071396D8
:10097000160163480600C54601466392D702C9477F
:1009800039A88946638FD702BD46638ED702C14618
:10099000638ED702C54601466393D700C1471DEF5A
:1009A0003747024003270780418B05C737177A0076
:1009B00013070720B307F7021CC121D61C4185830A
:1009C00081B701466DBF0546B547D1BF0146BD475A
:1009D000F9B737173D0013070790E9BFB715024075
:1009E000D8559316F700D85563DF060411833D8B65
:1009F0009306170037177A00130707203357D702DB
:100A000018C1D455A182BD8A8DE295463307D7021D
:100A1000058318C137170240585714413D8B05070D
:100A200033D7E60218C1184171B785456394B60003
:100A3000E546E9BFBD456396B600D1463387E60279
:100A4000C9BF8906E5BF3D8B9306170037177A00AB
:100A5000130707203357D702F1B799C5371702405C
:100A60001C4F5D8D08CF8280B7170240984F134509
:100A7000F5FF798D88CF8280EFF2AFFB1A29F577E9
:100A8000FD17F98FFA2179712A84D98F1EA99A2529
:100A9000DE2156252EC6D98FBA25D98F7D7713072B
:100AA000379F758FD98F5EA55E29DA25C207C1836E
:100AB00093F7F7CFD98F5EA968082D35B747014066
:100AC00093870780B2456311F404A2576547B38743
:100AD000E7029841130640060A07B3D7E702B3D6E8
:100AE000C702B3F7C702920613974700930727037D
:100AF0001307F063637CF70093870601C207C18385
:100B00001EA445616FF02FF59257C9B7B3D7C7023E
:100B1000D58FEDB791C55E250967D98F5EA5828017
:100B20005A25F977FD17F98FD5BF93F5F51F4EA11B
:100B300082800A216D8D3335A0008280B7070020A6
:100B400083A7070837177A0013070720B3D7E702F0
:100B500093F7F70F238DF1821307803EB387E702E7
:100B6000239CF1828280B7F700E0D8438146799BCD
:100B7000D8C303D781833306A70290CBD4CB984345
:100B80001367070198C398431367170298C3D843A4
:100B9000058B75DF9843799B98C38280EFF26FE9EC
:100BA0002A841165011185451105453D93070020F3
:100BB0007C82371501408D473EC44C00E147130548
:100BC00005803EC6813922C837440140B707080076
:100BD0000C08130504803ECC02CA231E0100693DA7
:100BE0008545130504803D3705616FF0CFE6EFF2D0
:100BF000AFE2B7440140AE89328901449384048056
:100C0000634524014A856FF06FE49305000426854F
:100C10000D3765DDB38789008385070026850504C8
:100C2000C205C1811937E9BF138781801C43B726EC
:100C300000209386460D3E95636BD500B786002055
:100C40009386068063E5A60008C33E858280FD5733
:100C5000EDBF39713EDA2ED232D436D63AD842DCE4
:100C600046DE9387C18022CC804326CA06CEAA8462
:100C700009C41C4C99E32285ED290C4454102686A6
:100C8000228536C6EF007012F2406244D2442161E0
:100C90008280011126CA4AC806CE22CC4EC652C452
:100CA000AA842E8901C51C4D91E3E1219C4C80440E
:100CB00099E326857D29971700009387272B631BCF
:100CC000F402C0405E24A18BB1C71C48A1C7FD59E6
:100CD000294A1C4483450900FD17B1E91CC463DDA2
:100CE00007062286A94526856120FD576308F5027F
:100CF000294535A097170000938747296314F4000E
:100D00008044C9B79717000093874724E31CF4FA7F
:100D1000C0444DBFA2852685112A55D97D55F24084
:100D20006244D2444249B249224A056182801CC4CD
:100D3000050963D70700184C63CAE70063884501BB
:100D40001C401387170018C08CA361B72286268524
:100D50000520E31035F9D9B71C401387170018C0D8
:100D6000294798A371B79387C180AA85884315B78F
:100D7000011122CC26CA4AC806CE4EC6AA842E89A4
:100D8000328401C51C4D91E3ED269717000093872F
:100D9000E71D6317F406C0401C4C1CC45E24A18BE5
:100DA000C1C31C48B5CF1C4808409379F90F13798B
:100DB000F90F1D8D5C486346F500A2852685692CD8
:100DC00025E51C440505FD171CC41C4013871700AE
:100DD00018C0238037015C486388A7005E24858B98
:100DE00081CBA9476316F900A2852685B5240DEDB0
:100DF000F24062444A85D2444249B2490561828048
:100E000097170000938787186314F400804469B72C
:100E10009717000093878713E310F4F8C044ADBF21
:100E2000A2852685212041D17D59D9B741119387CB
:100E3000C18026C2844322C44AC006C62A892E84A1
:100E400089C49C4C99E326852D269717000093872B
:100E5000E711631BF402C0400317C4009317070196
:100E6000C18393F68700ADEA93F6070195EEA54797
:100E70002320F900136707045AA47D55B240224489
:100E8000924402494101828097170000938707101E
:100E90006314F4008044C9B7971700009387070BC9
:100EA000E31CF4FAC0444DBF918B9DC34C5889C9D3
:100EB000930744046384F5004A853123232A0402FE
:100EC0005E242322040093F7B7FD5EA41C481CC0D7
:100ED0005E2493E787005EA41C4899EB5E24130709
:100EE000002093F707286385E700A2854A85A121A2
:100EF0005E2413F717001DC35C4823240400B307C6
:100F0000F0401CCC1C480145B5FB8317C40013F707
:100F100007082DD793E707045EA485B7898B01479F
:100F200091E3584818C4F9BFDE25011122CC26CA26
:100F300006CE4AC84EC613F78700AA842E8479EBE2
:100F4000D841634DE000B841634AE0000145F240FA
:100F50006244D2444249B2490561828058547DD7E7
:100F600003A904009396370123A0040063DB06065F
:100F700070485E24918B99C75C401D8E5C5899C364
:100F80003C401D8E5C540C50814626858297FD574F
:100F90005A24631DF5009440F54763E8D706B70768
:100FA00040208507B3D7D700858BA5C31C482322D3
:100FB00004001CC09317370163D80700FD57631462
:100FC000F5009C4091E368C84C5823A02401BDDD86
:100FD000930744046384F5002685F526232A04023A
:100FE000B5B70C500146854626850297FD572A86DF
:100FF000E311F5F89C40B5DF75476385E700594775
:101000006393E70423A0240191B7136707045AA44C
:101010007D5535BF83A90501E38A09F203A90500BF
:101020008D8B23A0350133093941014791E3D8491C
:1010300018C4E35D20F11C540C50CA864E862685E8
:1010400082976347A0005E2493E707045EA4C9B7B4
:10105000AA993309A940F1BF9C49B9CF011122CC0B
:1010600006CE2A8411C51C4D81E72EC61922B24531
:1010700097170000938787EF639BF5004C40839799
:10108000C50095C722856244F240056171BD97177E
:1010900000009387A7EF6394F5000C44CDB7971732
:1010A00000009387A7EAE39CF5FC4C44C9BFF240DB
:1010B000624401450561828001458280411122C45C
:1010C00006C62A844EA572A523200500232205000A
:1010D000232405002322050623280500232A0500D2
:1010E000232C0500214681451305C505EFF06F97B8
:1010F000971700009387C7B15CD0971700009387BC
:10110000E7B31CD4971700009387C7B75CD4971731
:101110000000938727BA00D01CD8B2402244410176
:10112000828097050000938565F3A9A2411126C22C
:10113000130680069384F5FFB384C4024AC02E8947
:1011400022C406C6938544071D262A8401CD232088
:10115000050023222501310508C413868406814534
:10116000EFF02F902285B24022449244024941017F
:1011700082801C4DADE3411106C622C497070000D2
:10118000938767FA1CD5938701819C432324050428
:1011900023260504232805046314F50085471CCD88
:1011A0002A841D2848C02285052808C422852D20B0
:1011B00048C4484001469145113708440546A545B5
:1011C000F53D48440946C945D53D85471CCCB2404C
:1011D000224441018280828041119387018126C28D
:1011E00084434AC006C69C4C22C42A8999E32685BA
:1011F0004937938484048044DC40FD1763D607009C
:101200009C40B9CF8440C5BF0317C40039E7C177FC
:10121000850723220406232004002322040023241C
:1012200004005CC423280400232A0400232C0400A7
:10123000214681451305C405EFF0AF82232A04023D
:10124000232C040223240404232604042285B24010
:10125000224492440249410182801304840671BFF2
:1012600091454A85E13588C051FDB1472320F900F9
:101270000144E9BF797122D44AD052CC56CA5AC827
:101280005EC606D626D24ECE2A8AAE8A13048504BE
:101290000149054BFD5B09ECB25022544A8592543A
:1012A0000259F249624AD24A424BB24B45618280AE
:1012B000044483294400FD1963D409000040E1BFC0
:1012C000DE24637BFB008397E40063877701A685B8
:1012D0005285829A3369A90093848406E9BF197103
:1012E000A6DAAE848395E500A2DC86DE328463DB79
:1012F0000500DE2423A0060093F7070885E793077F
:1013000000401DA0300836C6EF005021B246E3422F
:1013100005FE7247BD67F98F7977BA9793B71700C3
:101320009CC2F1BF930700041CC0F6506654D6540B
:10133000014509618280DE25011122CC06CE26CA34
:101340004AC8898B2E8489CF930774041CC01CC89B
:1013500085475CC8F2406244D244424905618280BC
:1013600074003000AA84A53FA2452A89268501225F
:1013700019E98317C40013F7072069FFF19B93E76E
:1013800027005EA4D1B7970700009387C7D99CD4E4
:101390005E2408C008C893E707085EA4A2475CC89B
:1013A000B24781CF8315E4002685EF00501A11C59E
:1013B0005E24F19B93E717005EA45E243369F90075
:1013C0002316240141BFDDC183A7C5FF411122C4FB
:1013D00006C626C21384C5FF63D307003E94AA84C1
:1013E000EF00B01E9387C1839C4381EF232204004A
:1013F00023AE81822244B2402685924441016F008F
:10140000F01C637EF40014403307D4006396E700B9
:101410009843DC43369718C05CC0D9BFBA87D8431D
:1014200019C3E37DE4FE94433386D700631F86002F
:101430001040B29694C33386D700E31DC7FA104319
:101440005843B29694C3D8C375B76375C400B14707
:101450009CC04DB71040B306C4006316D7001443B8
:101460005843B29614C058C0C0C369B782800111F6
:1014700026CA93843500F19806CE22CC4AC84EC6BF
:10148000A104B14763F3F404B14463E2B4042A89CC
:10149000EF00B0139387C18398433A8439E0938770
:1014A00001849C4391E781454A85052F23A0A184AF
:1014B000A6854A851D27FD5963193507B1472320A5
:1014C000F9004A85EF00901029A0E3D004FCB14751
:1014D0001CC10145F2406244D2444249B24905610F
:1014E00082801C40858F63CF0702AD4663F6F6000D
:1014F0001CC03E9404C031A05C406313870223AE3D
:10150000F1824A85EF00900C1305B4009307440064
:1015100061993307F5405DDF3A94898F1CC05DBF48
:101520005CC3C5B72287404095BF1304350071984E
:10153000E30285FCB305A4404A854525E31C35FB41
:10154000B5BF1C46FD171CC663DA0700184E63C5FD
:10155000E700A9476394F5006FF09F811C422E8538
:101560001387170018C28CA38280011122CC26CACF
:101570004AC84EC652C406CE2A89AE893284B30404
:10158000D6007D5A63149400014501A80C204E86B4
:101590004A85453F0504E31745FFF2406244D244C3
:1015A0004249B249224A05618280357122CD26CB5B
:1015B0004AC94EC706CF52C556C35AC1DEDEE2DC69
:1015C000E6DAAA89AE843289368401C51C4D91E3DE
:1015D0004D3697170000938767996397F40C83A49F
:1015E0004900DE24A18BFDC39C48EDC39307000294
:1015F000A304F1029307000302D22305F10222C6DD
:10160000930B5002971A0000938A4A9A054C294B73
:101610004A841C2099C3639E770DB30C2441638DCB
:101620000C00E6864A86A6854E858137FD57630FF6
:10163000F51C9256E69636D21C206389071CFD578E
:101640001309140002C802CE3ECA02CCA309010449
:1016500082D48345090015465685A12F130419002D
:10166000C24751E913F7070109C713070002A3098D
:10167000E10413F7870009C71307B002A309E104C7
:10168000834609001307A002638FE606F2474A84E7
:1016900081462546182093051400130707FD63773C
:1016A000E60AB5CA3ECE85A8971700009387078E35
:1016B0006395F40083A489002DB7971700009387E2
:1016C000E788E390F4F283A4C90021BFA6854E8584
:1016D000EFF0CFF501DD7D55FA406A44DA444A491E
:1016E000BA492A4A9A4A0A4BF65B665CD65C0D6197
:1016F0008280050439BF330555413315AC00C98FCD
:101700003EC82289B9B7324793064700184336C608
:10171000634707023ACE18209307E002631DF704DF
:1017200018309307A002631BF702B247090413871E
:1017300047009C433AC663C107023ECA2DA833073F
:10174000E04093E727003ACE3EC8F1B7B38767037E
:1017500085462E84BA973DBFFD57C5B7050402CA1A
:10176000814681472546182093051400130707FD7D
:101770006374E606F9F20C200D46171500001305F8
:101780006583052D11CD971700009387A7821D8DC6
:1017900093070004B397A700424505045D8D2AC84E
:1017A0000C201946171500001305058113091400B4
:1017B0002304B102FD2B35C197F7FFFF9387878480
:1017C00095E74247B2471377071009CF91073EC606
:1017D0009257D2973ED22DBDB387670385462E849C
:1017E000BA9751B79D07E19BA107D5B77800970637
:1017F00000009386C6D726860C084E859700000009
:10180000E7000000FD572A8AE314F5FCDE2493F775
:101810000704E39207EC1255C1B578009706000063
:101820009386E6D426860C084E85012AE1BF79719D
:1018300056CA9C49BA8A984522D426D24ECE52CC5A
:1018400006D64AD05AC85EC6AA892E84B284368A81
:1018500063D3E700BA879CC00347340419C38507E4
:101860009CC01C4093F7070281C79C4089079CC01D
:101870000329040013796900631A0900130B94010A
:10188000FD5B5C449840998F634CF9041C4083468F
:10189000340493F70702B336D000A5EB13063404E3
:1018A000D2854E85829AFD576303F5041C4011468C
:1018B0009840998B544481446397C700B384E640B1
:1018C00063D3040081441C4418486354F700998F83
:1018D000BE94014969047D5B63982405014509A80C
:1018E00085465A86D2854E85829A631E75017D553E
:1018F000B250225492540259F249624AD24A424B9F
:10190000B24B456182800509ADBF3307D400130691
:101910000003A301C7040347540493871600A2974A
:101920008906A381E7049DBF85462286D2854E8520
:10193000829AE30E65FB050945B7797122D426D258
:101940004AD04ECE06D652CC56CA5AC8B689942D25
:10195000930790063289AA842E8413863504638DFA
:10196000F60263E2D706930780056385F61863EDF8
:10197000D700638D062093073004638EF60A930A1E
:1019800024042301D404C9A0930730066385F60A12
:1019900093074006E395F6FE1C40084393F60708BC
:1019A00093054500C5C61C410CC363D80700130747
:1019B000D002B307F040A301E40497060000938629
:1019C0002660294765A8930700076381F61663E53B
:1019D000D7029307E0066388F6189307F006E390B2
:1019E000F6FA0C401C4313F80508138547006307FB
:1019F000080608C39C4385A893075007E383F6FEB7
:101A0000930780076388F61293073007E399F6F689
:101A10001C43D04181459386470014C383AA070025
:101A20005685412E01C53305554148C05C401CC850
:101A3000A301040461A81C43930A2404938647006D
:101A40009C4314C32301F4048547D5B793F60704D8
:101A50001C410CC3B9DAC207C18781BF93F50504E5
:101A600008C3C9D99E231307F0066386E60E9706BE
:101A700000009386E6542947A30104044C400CC49B
:101A800063C5050008406D9908C099E3B28A89CD05
:101A9000B28AB3F5E702FD1AB6958C212380BA000D
:101AA000B3D5E70263FFE70AA147631EF7001C40B6
:101AB000858B91CB58401C4863C7E7009307000310
:101AC000A38FFAFEFD1A3306564110C84E87CA8608
:101AD0007000A2852685A13B7D5A631D450B7D556F
:101AE000B250225492540259F249624AD24A424BAD
:101AF00045618280A382D504970600009386464CF8
:101B00000C40084313F805081C411105630D080239
:101B100008C313F7150001C793E505020CC0414740
:101B2000A1FF0C4093F5F5FD0CC0B9B79C4193E7BC
:101B300007029CC193078007A302F40497060000E4
:101B40009386464975BF13F8050408C3E30308FCF0
:101B5000C207C1837DBF9706000093866646214772
:101B600021BFAE873DB794411C43CC4913F806080A
:101B7000138547006306080008C39C438CC339A043
:101B800008C393F606049C43F5DA8EA323280400C9
:101B9000B28A2DBF14485686CA8526858299E300ED
:101BA00045F51C40898B8DE7B2474844E35AF5F26E
:101BB0003E853DB785465686CA8526858299E300CF
:101BC00065F3050A5C443247998FE345FAFEE9BFA5
:101BD000014A930A94017D5BF5B7411122C42A841E
:101BE0002E859707002023A7074E06C6EFF0CF8368
:101BF000FD576319F500970700209387A74D9C4375
:101C000091C31CC0B240224441018280411122C4D0
:101C10002E848395E50006C65D2A634905007C484D
:101C2000AA977CC8B2402244410182805E247D771D
:101C30007D17F98F5EA4FDB7DE25011122CC26CADF
:101C40004AC84EC606CE93F70710AA842E8432895E
:101C5000B68991C78395E500894601460D225E2429
:101C60007D777D17F98F5EA48315E4006244F2400E
:101C7000CE864A86B24942492685D244056125A8C6
:101C8000411122C42E848395E50006C6CD28FD5758
:101C90005A24631AF500FD77FD17F98F5EA4B24050
:101CA0002244410182808567D98F5EA468C8C5BF80
:101CB0008395E50025A8411122C42A842E85B2858A
:101CC00036869707002023A7074006C6EFE03FF2BD
:101CD000FD576319F500970700209387A73F9C43A2
:101CE00091C31CC0B240224441018280411122C4F0
:101CF0002A842E859707002023AE073C06C61122B2
:101D0000FD576319F500970700209387A73C9C4374
:101D100091C31CC0B240224441018280411122C4BF
:101D20002A842E85B2859707002023A5073A06C688
:101D3000CD20FD576319F500970700209387873959
:101D40009C4391C31CC0B240224441018280411196
:101D500022C42A842E859707002023AD073606C6A5
:101D6000C920FD576319F500970700209387873630
:101D70009C4391C31CC0B240224441018280411166
:101D800022C42A842E85B28536869707002023A395
:101D9000073406C67928FD576319F5009707002018
:101DA000938747339C4391C31CC0B24022444101F6
:101DB000828093F5F50F2A966314C5000145828051
:101DC0001C21E38EB7FE0505C5BF828082804111CC
:101DD00022C42A842E85B28536869707002023AB3D
:101DE000072E06C6B928FD576319F500970700208E
:101DF0009387472E9C4391C31CC0B24022444101AB
:101E0000828093078005170700202325F72C7D5536
:101E100082809307800517070020232DF72A7D5520
:101E2000828093078005170700202325F72A0145A4
:101E300082809307800517070020232DF7287D5502
:101E4000828093078005170700202325F7287D55FA
:101E50008280000053797374656D436C6B3A25641E
:101E60000D0A00004368697049443A253038780DFE
:101E70000A00000054686973206973207072696EEB
:101E80007466206578616D706C650D003320546157
:101E9000736B7320637265617465642E2053746183
:101EA0007274696E67207363686564756C65722E01
:101EB0002E2E0D0031313131310000005B4D6F6E3F
:101EC00069746F725D2053797374656D2069732036
:101ED00072756E6E696E67206E6F726D616C6C7973
:101EE0002E204C6F6F7020636F756E743A202564DE
:101EF0000D0A00005B4D656D706F6F6C5D20457263
:101F0000726F723A204F7574206F66206D656D6F29
:101F10007279210D000000005B4D656D706F6F6C74
:101F20005D20496E697469616C697A656420256415
:101F300020737461636B73206F662025642062795F
:101F40007465732E0D0A0000000000000000000000
:101F50000000000000000000000000000000000081
:101F60000000000000000000000000000000000071
:101F70000000000000000000000000000000000061
:101F80000000000000000000000000000000000051
:101F90000000000000000000000000000000000041
:101FA0000000000000000000232D302B2000000066
:101FB000686C4C0065666745464700003031323337
:101FC0003435363738394142434445460000000035
:101FD000303132333435363738396162636465669F
:041FE00000000000FD
:101FE40000000000000000000102030406070809C5
:101FF40000000000010203040102030406070809AB
:1020040000000000681F0000881F0000481F000037
:1020140000000000000000000000000000000000BC
:1020240000000000000000000000000000000000AC
:10203400000000000000000000000000000000009C
:10204400000000000000000000000000000000008C
:10205400000000000000000000000000000000007C
:1020640000D8B80502040608D4200020200000206F
:08207400200000200000000024
:00000001FF
