:040000006F009018E5
:1000040000000000000000000A0300000C030000D0
:10001400000000008609000000000000000000004D
:1000240086090000860900000000000000000000AE
:10003400860900000000000086090000000000009E
:100044008609000086090000860900008609000070
:100054008609000086090000860900008609000060
:100064008609000086090000860900008609000050
:100074008609000086090000860900008609000040
:100084008609000086090000860900008609000030
:100094008609000086090000860900008609000020
:1000A4008609000086090000860900008609000010
:1000B4001C03000086090000860900008609000070
:1000C40086090000860900008609000086090000F0
:1000D40086090000860900008609000086090000E0
:1000E40086090000860900008609000086090000D0
:1000F40086090000860900008609000086090000C0
:10010400000000008609000086090000860900003E
:10011400860900008609000086090000860900009F
:10012400860900008609000086090000860900008F
:10013400860900008609000086090000860900007F
:10014400860900008609000086090000860900006F
:10015400860900008609000086090000860900005F
:10016400860900008609000086090000860900004F
:10017400860900008609000086090000860900003F
:10018400860900008609000086090000860900002F
:10019400860900008609000086090000860900001F
:1001A400000000000000000000000000000000004B
:0C01B4000000000000000000000000003F
:1001C000397106C022C226C44AC64EC852CA56CC8D
:1001D0005ACE5ED062D266D46AD66ED8232025006D
:1001E00003A1050082401244A2443249C249524A46
:1001F000E24A724B825B125CA25C325DC25D21619D
:100200008280397101436EC619A0397141536AC8A1
:1002100066CA62CC5ECE19A0397101535AD056D24B
:1002200052D44ED64AD826DA22DC06DE33016140AB
:10023000828241114AC026C222C406C68282B24DC1
:100240004101024D924C224CB24B4101024B924A69
:10025000224AB2494101024992442244B24041013A
:1002600082803D432A876373C3029377F700BDEF13
:10027000ADE5937606FF3D8ABA960CC34CC30CC716
:100280004CC74107E36BD7FE11E28280B306C3403F
:100290008A069702000096966780A6002307B7009B
:1002A000A306B7002306B700A305B7002305B700D0
:1002B000A304B7002304B700A303B7002303B700C8
:1002C000A302B7002302B700A301B7002301B700C0
:1002D000A300B7002300B700828093F5F50F939633
:1002E0008500D58D93960501D58D61B7939627002E
:1002F0009702000096968682E78086FA9680C1175C
:100300001D8F3E96E374C3F8A5B701A0B707EFBEF3
:1003100037E700E0938707083CC701A0854537050C
:100320000040EF00B05485476314F500EF10104C07
:10033000854537050040EF00F05473002030EFF2A0
:100340005FEF4111A307010019CD05469305F100A8
:10035000EF1030190145EF10702D37A5000013057F
:100360000566EF90804A4101FDB5EFF2FFEA37A53F
:100370000000411113050575EF10301193070000BF
:100380003EC6B7A7000003A9C7742A84B7A9000016
:1003900039C011466C002285EF10F0123245EF1083
:1003A0001027B2442685EF80205C2A8AEF80E06126
:1003B000AA852685EF80A022CA85EF701079EF808C
:1003C000A05A1356F541318D3306C540D2851385A9
:1003D000C975EF9040321305401FEF10D0454DBF57
:1003E000EFF23FE537A50000411113058578EF10C6
:1003F000D0092A8402C611C411466C002285EF1070
:10040000900C1305401FEF101043F5B7EFF2FFDF1C
:1004100037A5000041111305C579EF1010070567D6
:1004200037060000B7A500008147AA862A84130773
:1004300087BB1306E6339385857A13858186EF1093
:100440003035B7A7000083A987790149854A37ABC2
:100450000000854B37AC00004800EF10501F124AD7
:10046000CE855285EF70505D635EA002631D090664
:10047000A301710119C40546930531002285EF10CF
:1004800050060545EF10901A13058C7BEF90E0376E
:1004900013858186EF10903105491305800CEF100C
:1004A00090395DBFCE855285EF707061E347A0FE45
:1004B000E31559FF1C8663925703A301010019C479
:1004C0000546930531002285EF10B0010145EF107C
:1004D000F01513858186EF10B0301305CB7FEF90B8
:1004E000C03201495DBFCE855285EF70304F79D162
:1004F0006DB7EFF29FD137B5000035711305C58494
:10050000EF10A0782A8937A5000013058578EF1031
:10051000C077B7B7000083AAC78337B40000B7B469
:100520000000AA8937BB00001304048493848484E8
:10053000630609064808EF109011524A5285EF8071
:10054000A042AA8BEF806048AA855285EF802009DF
:10055000D685EF70905FEF8020419357F541B3C689
:10056000A70002C89D8E6389090011460C084E85BC
:1005700036C6EF104075B2460346C1014247A28716
:1005800011E2A6875E869305CB850810EF90C02BFD
:10059000130600080C104A85EF10A0741305401FC5
:1005A000EF10702971B7EFF2DFC837B500001D7189
:1005B0001305858902C4EF90402537B600009306E5
:1005C00030101306C68B6C001385818AEF50A05B38
:1005D000635B0500AA8537B500001305C58CEF9055
:1005E000801125618DB9300091466C001385818A98
:1005F000EF500062A2476C001385818A85073EC4D4
:10060000EF50A06D914630006C001385818AEF5049
:1006100040686C001385818AEF50C05B37B50000DD
:100620001305458FEF90601EA24537B500001305F6
:100630008591EF90400C37B5000013050594EF90BD
:10064000C01C45B7EFF25FBD012CEF50406E7165E5
:1006500013050520EF50A07337A500001305C569E9
:10066000EF90A01A37A500001305056CEF90E01974
:1006700037B500001305458FEF902019EF00507F2C
:10068000AA8537A500001305456EEF90C006EF1050
:10069000E075EF009074EF00F05E37A500001305E1
:1006A0004570EF908016EF100016F53DEF10F00644
:1006B000EF10E06495461146938541891385418882
:1006C000EF10E06DEF10606BB70500002A8693060F
:1006D00000109385A53613850182EF10207AEF1064
:1006E000C069B70500002A86930600109385053E71
:1006F00013854182EF108078EF102068B705000065
:100700002A86930600109385C54013858182EF10D9
:10071000E076EF108066B70500002A869306001089
:100720009385254F1385C182EF1040751385018293
:10073000EF10807613854182EF1000761385818259
:10074000EF1080751385C182EF10007537A500008A
:1007500013054572EF90600BEF10A07901A0B71759
:1007600002409843B706FFF041111367170098C382
:10077000D84337060200758FD8C39843B706F7FEF3
:10078000FD16758F98C39843B706FCFFFD16758F4D
:1007900098C3D843B70601FFFD16758FD8C3984399
:1007A000B70600ECFD16758F98C33707FF0098C792
:1007B00023A6070202C402C69843C166558F98C398
:1007C000B716024005679C42F18F3EC6A2478507D7
:1007D0003EC4B24781E7A247E397E7FEB71702405E
:1007E0009C431397E7006357070685473EC6324789
:1007F0008547631FF704B7170240D843B706C1FF08
:10080000FD16D8C3D843D8C3D84313670740D8C30D
:10081000D843758FD8C3D843B7062900558FD8C39E
:100820009843B7060001558F98C398439316670005
:10083000E3DD06FED843B7160240719BD8C3D84308
:1008400013672700D8C32147DC42B18BE39EE7FE44
:100850004101828002C661BFB7160240D842B70785
:1008600000201146318B9387070C6305C700214692
:100870006308C70237177A001307072098C3371792
:100880000240584311839376F7003707002013077F
:1008900007003697142398433357D70098C38280B4
:1008A000D842D442416649833D8BF18E130627001E
:1008B00015CF3D47630FE6024147630FE602454708
:1008C00081456313E6004146A1E237470240032712
:1008D0000780418B0DC737177A00130707203306AF
:1008E000C70290C3C9DD9843058349BF8145494686
:1008F000E1BF85453546C9BF81453D46F1B737174C
:100900003D0013070790E1BF371502405855931675
:10091000F700585563DF060411833D8B93061700DB
:1009200037177A00130707203357D70298C3545557
:10093000A182BD8A8DE295463307D702058398C30D
:1009400037170240585794433D8B050733D7E602CB
:1009500098C3984369B705456394A600E546E9BF87
:100960003D456396A600D1463387E602C9BF890696
:10097000E5BF3D8B9306170037177A001307072052
:100980003357D702F1B701A097010020938181F37B
:10099000177100201301016717C500001305C5DB9F
:1009A00097F5FF1F938505661386C18163FAC5001D
:1009B0008322050023A0550011059105E3EAC5FE39
:1009C00013850182972500209385C5856377B5003F
:1009D000232005001105E36DB5FEFD42739002BCB6
:1009E000AD4273904280B762000093828208739098
:1009F000023097F2FFFF9382226193E232007390FC
:100A00005230EFF0DFD5970200009382E2C373907B
:100A1000123473002030EFF2DF81B7270140938753
:100A20000740631CF50085451305002045218145DD
:100A30001305002061296FF01F82B73701409387AB
:100A40000780E31AF5FE85451305004041218145E5
:100A500013050040C5B75C413707F1E01307F7EF16
:100A6000944D7D8F9C41D58FD44DD58FD441A20616
:100A7000D58FD98F5CC11C4537F7F1FF1307D77F9E
:100A8000D4457D8F9C49D58F94458606D58FD98FC7
:100A90001CC55C55370710FF7D177D8FDC29FD17BE
:100AA00093F7F70FD207D98F5CD582801C4589C593
:100AB00093E717001CC58280F99BEDBF1C4593E7A7
:100AC00087001CC5828008450D81058982801C45F0
:100AD00093E747001CC5828008450981058982800B
:100AE0001C4591C537075000D98F1CC58280370738
:100AF000B0FF7D17F98FD5BFA54763F7B7048D47C2
:100B0000138765FF3307F7020328C5009D47B39796
:100B1000E70093C7F7FFB3F70701B396E600DD8E52
:100B200054C5994763E3C70495477D163306F6021B
:100B30005859FD47B397C70093C7F7FFF98F33960E
:100B4000C5005D8E50D982800D473387E5020328AA
:100B500005019D47B397E70093C7F7FFB3F7070178
:100B6000B396E600DD8E14C96DBFB14763E2C702DC
:100B7000954765163306F6021859FD47B397C70027
:100B800093C7F7FFF98F3396C5005D8E10D9828029
:100B900095474D163306F6025855FD47B397C700E3
:100BA00093C7F7FFF98FB395C500DD8D4CD58280D3
:100BB000684542054181828008416D8D3335A00032
:100BC00082805C4191C537070004D98F5CC1828067
:100BD000370700FC7D17F98FD5BF9C4513F7070138
:100BE00013F8F70001C7D8413368E8008E2113F7E6
:100BF000F50F39C318418146854E3D4F930F800252
:100C000093028004214E3396DE00B3F8C5006311D1
:100C100016039398260033131F011343F3FF337712
:100C2000E300B318180133E7E800639FF70550C9E4
:100C30008506E39AC6FD18C11307F00F6375B70464
:100C400054412146854E3D4F930F8002930280040C
:100C5000414EB398CE0033F715016392E8021317A3
:100C6000260001173313EF001343F3FFB376D300CD
:100C70003317E800D98E639DF701232A1501050675
:100C8000E319C6FD54C18280E39457FA10C94DB7E9
:100C9000E39757FE23281501DDB70CC982804CC9A4
:100CA000828019C20CC982804CC9828003A701834B
:100CB000894710216311F70214318D4763EDD70086
:100CC0003C219A0637E700E09607D58F93F7F70F98
:100CD00032972300F7405441054793575600331786
:100CE000C70089CA938707048A07B7E600E0B6976A
:100CF00098C3828093870706B7E600E08A07B69715
:100D000098C30F1000008280B7160240DC42517772
:100D10007D17F98F5D8DC8C28280371702405C4312
:100D20009146B18B6385D700A1466382D706B7177A
:100D30007A00938707201CC1371602405C423707B0
:100D40000020130707019183BD8BBA9794231C41A0
:100D5000B3D7D7005CC15442A1829D8ABA9694222F
:100D6000B3D6D70014C55442AD829D8A3697182356
:100D7000B3D7E7005CC558423983937637001387B1
:100D8000418036971823B3D7E7021CC982805C43A1
:100D90005843C166C983758FB7F6FF1F83A6C67017
:100DA000BD8B89071396160163480600C5460146A8
:100DB0006392D702C94739A88946638FD702BD46D7
:100DC000638ED702C146638ED702C5460146639340
:100DD000D700C1471DEF3747024003270780418BEB
:100DE00005C737177A0013070720B307F7021CC19E
:100DF00021D61C41858381B701466DBF0546B547A5
:100E0000D1BF0146BD47F9B737173D00130707901B
:100E1000E9BFB7150240D8559316F700D85563DFE0
:100E2000060411833D8B9306170037177A001307CA
:100E300007203357D70218C1D455A182BD8A8DE24D
:100E400095463307D702058318C137170240585714
:100E500014413D8B050733D7E60218C1184171B71D
:100E600085456394B600E546E9BFBD456396B60087
:100E7000D1463387E602C9BF8906E5BF3D8B93069D
:100E8000170037177A00130707203357D702F1B737
:100E900099C5371702401C4F5D8D08CF8280B71768
:100EA0000240984F1345F5FF798D88CF828099C510
:100EB000371702405C4F5D8D48CF8280B7170240E4
:100EC000D84F1345F5FF798DC8CF828099C5371764
:100ED00002405C475D8D48C78280B7170240D84703
:100EE0001345F5FF798DC8C782801A218D679387D6
:100EF0000704B6217D8F9E21D58FD621D58FF6216F
:100F0000D58F9625D58FB625D58FD625D58FF625A5
:100F1000D58FD98F1EA15A2DFD779387F77FF98F33
:100F20005EAD9E291EA982801E2189C593E7070414
:100F30001EA18280C207C18393F7F7FBC207C1835A
:100F4000C5BF4EA582804A2582800A256D8D333526
:100F5000A000828037F7FF1F032747701E219146AC
:100F600011833D8BC2077117C18363E6E6023737F1
:100F70000140930607C0630ED50013070740630ABC
:100F8000E50037570140930607C06304D500631A94
:100F9000E5000967D98F37370140130707C063029F
:100FA000E50437070040630EE50213070740630AB4
:100FB000E50237170040930607806304D502130744
:100FC00007C06300E5023737014013070740630A93
:100FD000E50037570140930607C06304D500631846
:100FE000E50093F7F7F8BA21C207C183D98F371705
:100FF0000040630CE500130707406308E50093F722
:10100000F7CFFA21C207C183D98F1EA1DE215EB5B9
:101010009E211EB5B7370140138707C0630EE50058
:1010200093870740630AF500B7570140138707C04D
:101030006304E5006314F5009C251EB985475EA98D
:1010400082801E2189C593E717001EA18280C207F6
:10105000C183F99BC207C183CDBF5E2501C6DD8D6B
:101060004EA5828093C5F5FFFD8DDDBF1E294A2563
:10107000ED8F4205418189C76D8D3335A000828097
:101080000145828093C5F5FFC205C1810EA982800A
:10109000EFF22F9A1A29F577FD17F98FFA21797156
:1010A0002A84D98F1EA99A25DE2156252EC6D98FCE
:1010B000BA25D98F7D771307379F758FD98F5EA596
:1010C0005E29DA25C207C18393F7F7CFD98F5EA9CE
:1010D0006808A131B747014093870780B245631183
:1010E000F404A2576547B387E70298411306400608
:1010F0000A07B3D7E702B3D6C702B3F7C70292060F
:1011000013974700930727031307F063637CF700E7
:1011100093870601C207C1831EA445616FF0AF9398
:101120009257C9B7B3D7C702D58FEDB791C55E2522
:101130000967D98F5EA582805A25F977FD17F98F47
:10114000D5BF93F5F51F4EA182800A216D8D3335F1
:10115000A0008280EFF2EF8D01111306000281459D
:101160000A85EFF00F9013854183EF009045854588
:1011700013050020313B31653724014071361305DA
:101180000440EFF05F89B7070E003EC68A858547A9
:1011900013050440230AF10002C002C202C402C8BF
:1011A000EFF07F8B854513050440EFF03F908145BC
:1011B00013050440393413050440EFF03F909304C5
:1011C00004402685EFF03F906DFD13050440372461
:1011D0000140EFF0DF8F930404402685EFF0DF8FAE
:1011E0006DFD854513050440E93A37B50000130548
:1011F0004596EF80806105616FF0EF85EFF26F83B8
:101200002A8408414111854502C202C402C64931FF
:101210001E2448404C007C8202C6EFF01F9C410116
:101220006FF06F83EFE25FFF2A8A37240140138556
:101230004183EF0070392949814413040440D28569
:1012400022859D460546EFF03F8B85452285EFF0D0
:101250003F8989452285EFF03F9665DD2285EFF0D5
:101260003F957D19AA941379F90F1545EF40D02EBB
:10127000E31709FC13854183EF00F036294533D588
:10128000A402420541816FE07FFCEFE29FFAAA874A
:101290009A279C2B48416397B700BA85EFF0FF9FD0
:1012A0006FE07FFBBA85EFF09F9FDDBFEFE27FF835
:1012B0002A8408414111854502C202C402C6C93EC2
:1012C0001E2448404C007C825C443EC68D473EC490
:1012D000EFF0BF90814522854D3F41016FE0BFF7A0
:1012E000EFE23FF5056501118545110502C002C217
:1012F00002C402C602C802CA02CC231E0100493E33
:101300003714014091478D447C808A85C14713057D
:1013100004803EC426C2EFF05F8C13050480914523
:10132000EFF0BF979307000261498A851305048097
:101330007C804AC426C2EFF05F8A930700047C8059
:101340008A859147130504803EC4EFF01F899307F7
:1013500000088A85130504807C804AC426C2EFF009
:10136000DF87B70704013EC6B70702003EC8B707CC
:10137000000285073ECAA1473ECC6C009D47373529
:101380000140FC869D36854537350140713E05613B
:101390006FE07FECEFE2FFE9014611C1054637152A
:1013A0000140914513050580EFF0BF8F6FE0BFEA64
:1013B000EFE23FE82A84894537350140793665DD1B
:1013C000A28537350140B53E854537350140B53EEC
:1013D00065DD37350140853E1375F50F6FE0BFE7DA
:1013E000C5C1EFE27FE30111AE84814701449D490D
:1013F000294A3D49930A00020387040021EB9D44DA
:101400003D499309000263FE840499A063184703D1
:101410006350F902A285C14670000145230E010008
:101420000904EF00406F1374F40F81478504E9B796
:1014300078003E97230057018507D9BFE348F9FE9E
:101440001410BE962386E6FE8507CDB7E3F089FC2F
:10145000014505616FE09FDF78003E97230037016B
:101460008507E35BF9FEA285C14670000145230EA6
:1014700001000904EF00206A1374F40F814761B77B
:101480007D558280EFE2FFDA411185452145EFF07D
:101490003FA08567938707C07C82371501408D4741
:1014A0004C00130505C03EC4C1473EC6EFF0EFF245
:1014B000EF00606AEF00E05937B60000C14613063E
:1014C000C69881450145EF000065370500201305EA
:1014D0000502EF00007641016FE0FFD78547631AF0
:1014E000F600EFE21FD58C210845453301456FE03A
:1014F0009FD67D55828091476312F602EFE27FD33B
:101500001C452E84A827393B8567938747CE330532
:10151000F502318508C001456FE0FFD37D5582801B
:101520009147631AF60AEFE2DFD01C452E84A82704
:10153000D53909E9B7B7000083A7C79F1CC001458B
:101540006FE07FD18567FD176317F500B7B700001F
:1015500083A707A0E5B7EF70C053B7B70000AA8410
:10156000AA8503A547A0EF708007AA852685EF60AE
:10157000D01BB7B4000083A584A0EF60105D83A5E5
:1015800084A0EF60901AEF70C05DEF40700CB7B7A9
:10159000000003A607A183A647A1EF50D04EB7B71E
:1015A000000003A687A183A6C7A1EF40106EB7B7BE
:1015B00000002A86AE8603A507A283A547A2EF50A6
:1015C000C05FEF70E064B7B7000083A5C7A0EF70FD
:1015D000000108C0ADB77D558280EFE29FC59D3EFA
:1015E0002D65130585A219392D651305059E393121
:1015F0002D651305C59A5D393705002013050505CE
:10160000EF0020633705002013050504EF0060623A
:101610003705002013050503EF00A0616FE0BFC38D
:10162000EFE23FC10145BD331945593305459D33AF
:101630006FE07FC2EFE2FFBF0145A93B15458D3B3F
:101640001305F00FB5332A8405880545A1336DF4E1
:101650006FE07FC0EFE2FFBDE1370145253B054567
:10166000813B0145B13305453533E9376FE0BFBEF6
:10167000EFE23FBCB5310145313B130500090D3B9D
:1016800001453D3301452D3301451D331305F00F51
:1016900005332205131405011305F00F113B41809A
:1016A000498C420405454180F53122856FE0BFBA7F
:1016B000EFE23FB82A8901452E84B284E1390D4515
:1016C000C539135504011375F50FDD311355840029
:1016D0001375F50FF1391375F40FD93901449317C8
:1016E0000401C18363E6970005456D316FE0BFB625
:1016F0001305F00F7539B307890088A30504C5B732
:10170000EFE23FB32E84B2842A89193F0145593153
:1017100009457939135504011375F50F51391355DE
:1017200084001375F50F69311375F40F51310144BD
:1017300093170401C18363E897000545EFF09FC547
:10174000D53D6FE05FB1B307890088230504EFF052
:101750003FC6F9BFEFE2FFAD1314C500D135014517
:10176000EFF05FC313050002EFF09FC413550401AF
:101770001375F50FEFF0DFC3135584001375050FD4
:10178000EFF01FC30145EFF0BFC20545EFF09FC06A
:1017900055356FE05FAC01458280EFE29FA92E8551
:1017A000553F01456FE03FABEFE2BFA8404D41110F
:1017B0001309001033848502329409E70145410181
:1017C0006FE07FA9BA846374E90093040010139654
:1017D0000401A285368541823AC636C41537A24631
:1017E00032472694A696058FC9BFEFE29FA45C4DB1
:1017F0003685B385F502B2951316070141824D3D3A
:1018000001456FE05FA5EFE2DFA241119535AA85A2
:1018100037B50000130585A8EF70F06D253D37B58D
:1018200000001305C5AAEF70507E83A78181014592
:1018300002C63EC40537114681452800D135814591
:1018400011466800B5350C86C94798876396F50040
:10185000930780076309F7021487908637B5000065
:10186000130545ADEF70306937B50000130545B17C
:10187000EF70B07937B50000130505B3EF70F0785D
:1018800041016FE05F9D37B50000130545B8EF706B
:10189000D07737B50000130585BBEF701077AD64C6
:1018A000938544A31385818AEF4080031DCD37B50E
:1018B00000001305C5BDEF705075938544A31385D3
:1018C000818AEF30D07111C537B50000130585C08E
:1018D00075B7938544A31385818AEF40600011C5D5
:1018E00037B50000130585C251BF37B50000130599
:1018F000C5C469B7EFE2FF9337140140856493854F
:101900000480130504C0EFF04FB9130504C093051C
:101910000040EFF08FB8130504C093050040EFF0CE
:101920000FB893850480130504C0EFF04FB76FE044
:101930009F92EFE21F90371401408565130504C0A4
:1019400093850580EFF06FB5130504C09305004043
:10195000EFF0EFB493050040130504C0EFF0EFB3D0
:101960006FE07F8FEFE2FF8C371401408564938531
:101970000480130504C0EFF04FB293850480130573
:1019800004C0EFF0CFB16FE01F8DEFE2FF88056973
:101990003714014093050980AA89130504C0EFF0AC
:1019A0000FB0A144130404C013090980939789015F
:1019B000E18793050040228563D50702EFF0EFAD84
:1019C000CA852285EFF06FADFD148609CA85228590
:1019D00093F4F40F93F9F90FEFF06FACE1F86FE0C7
:1019E000FF86EFF0CFABE9BFEFE2BF842A8419375F
:1019F00013058007593FBD370145413FA537228573
:101A000069378D373D376FE01F85EFE29F822A846B
:101A1000D53513058007953FB13713050004B53759
:101A2000913722859D373D3F29376FE0DF82EFE216
:101A30005F80938505FB2A8413F5F50F75371355E1
:101A40004400136505014D371375F400713F6FE0D5
:101A50009F80EFE20FFE1304000B1309800B228519
:101A6000613701455137414541379304000801452D
:101A7000FD14613FEDFC05041374F40FE31124FF22
:101A80006FE06FFDEFE24FF993178501130406FE37
:101A9000E187AE841374F40F2A8963D70700938417
:101AA000250093F4F40F0149C147A6854A85639246
:101AB000F604B53F131644002D64130484EA8149EB
:101AC0003294214AB3073401882385093D3FE39BC3
:101AD00049FF9385140093F5F50F4A85893FA1448A
:101AE0000824FD1493F4F40F0D370504F5F86FE0A6
:101AF000EFF5353F19463304C4022D6981441309BB
:101B000009C89949B3878400CA9788238504F53D9D
:101B1000E39A34FFE9BFEFE22FF02A842E89B289DD
:101B2000368A8144930A8007B3879900902319E28B
:101B30006FE0CFF122852104D286CA851374F40F99
:101B4000913763F68A0009091379F90F0144850476
:101B500093F4F40FD1BFEFE2CFED13050032EF4065
:101B6000A01F1305E00AEFF03FE80145EFF0DFE7C3
:101B70004145EFF07FE713050004EFF0FFE61305A2
:101B8000000BEFF07FE613051008EFF0FFE51305FB
:101B9000F00FEFF07FE51305100AEFF0FFE41305F7
:101BA000600AEFF07FE41305800AEFF0FFE313050E
:101BB000F003EFF07FE31305800CEFF0FFE2130575
:101BC000300DEFF07FE20145EFF01FE21305500DFD
:101BD000EFF09FE113050008EFF01FE11305800D02
:101BE000EFF09FE01545EFF03FE01305900DEFF0AB
:101BF000BFDF1305100FEFF03FDF1305A00DEFF06F
:101C0000BFDE4945EFF05FDE1305B00DEFF0DFDD1D
:101C100013050003EFF05FDD1305D008EFF0DFDC04
:101C20005145EFF07FDC1305F00AEFF0FFDB6FE0CA
:101C30008FE221C9EFE2EFDF0C412A847D5585C197
:101C400083A781839384818389EF5C4089C79C4308
:101C500099C3228582979C40014580C05CC46FE097
:101C60008FDF94432E86038706000305060019C301
:101C70006306A7006309E500DC47F9B7850605069A
:101C8000DDB77D5582807955D9BFEFE28FDA03A4A5
:101C9000818315C01840AA868307070003860600C3
:101CA00099C3638DC700631EF6005C4089C7DC439F
:101CB00099C32285829722856FE0EFD905078506B3
:101CC000E1BF4044F9B719C95841FD5709CB18473E
:101CD00019C7EFE20FD602976FE0EFD7FD573E85A9
:101CE000828019C95841FD5709CB584719C7EFE2FF
:101CF0004FD402976FE02FD6FD573E858280EFE2EA
:101D00004FD3B70600201387061F23AEE182B70723
:101D100000209387075F23A8F61EB717002093873C
:101D2000079F2320F740B71600208567BA97938650
:101D300006DF23A0D780B71600209386065F94C3E2
:101D4000B72600209386069F23A0F7C023A0D74084
:101D50008967BA9737270020130707DF37B50000D8
:101D600023A0E78023A007C013060040A145130568
:101D7000C54BEF7050186FE00FCEEFE28FCB93871B
:101D8000C183804311E837B5000013058549EF7022
:101D9000D02722856FE02FCC184098C3DDBF0DC13E
:101DA00085C119CE91CEEFE2CFC80CC152A176A168
:101DB0002324050023160500390521206FE0AFC953
:101DC0008280230005008280EFE2AFC64111054406
:101DD0001C216306F40000A141016FE0CFC72AC6B1
:101DE000E9283245F5B7230005008280EFE26FC491
:101DF000B72700209387071F23A0070023A207000F
:101E000023A40700138501846D3F6FE0CFC4EFE288
:101E10004FC2AA8413850184453FB727002013854C
:101E2000018423A8971EC1376FE0EFC2EFE26FC0B5
:101E3000AA8413850184EFF03FF9B72700201385AA
:101E40000184238C971EEFF01FFA6FE0CFC015C5F9
:101E5000EFE22FBE2A8413850184EFF0FFF6B72549
:101E6000002031469385051F2285EF60107B138586
:101E70000184EFF05FF76FE00FBE82808A0636962E
:101E8000419A930706FC1CC123A007009107E31D9C
:101E9000F6FE2320B6FC8280938601859C221D4796
:101EA000636CF70037270020139627001307C71F1E
:101EB0003297850708C39CA2828003C601850DCA9C
:101EC000EFE22FB7138781841C2393864184850713
:101ED000B3E7C70288421CA3372700201307C71F98
:101EE0008A07BA978C438CC2EFE08FAD6FE0AFB634
:101EF000828083C701858DC3EFE2AFB32384018461
:101F0000B727002083A5C71F1385C18423A2B184EE
:101F1000EFE00FAB6FE02FB48280EFE28FB10111E1
:101F20008545054502CA02CC231E010002C602C82F
:101F3000EFE0FFF7B707002083A7070C37470F0034
:101F400013070724B3D7E7024C0837050040231BCB
:101F50000100FD17FC829307703E3ECCEFE09FFF2F
:101F60009307C0027C8685475C87680085473EC82A
:101F7000EFE0DFD30546854537050040EFF0EF8DF4
:101F8000854537050040EFF0CF8B05616FE0AFACC2
:101F900009CD01CE0CC150C114C558C52328050078
:101FA0005CA9A30A0500232C050082800DC95839BD
:101FB00085476306F70203A741855C45BA971CC9AC
:101FC00083A6818593878185368711E714CD88C3E1
:101FD00085475CB98280E30DA7FE184FFDB782806C
:101FE00009C55C3999C3A30A05008280EFE26FA49A
:101FF000138741851C4393844185054985071CC38C
:1020000003A4818519E06FE00FA55C38639E27016A
:102010009C401848998F63C907005C2881EBA30A8C
:1020200004005C4008448297004CE9BF98405C443F
:10203000BA971CC8FDB7EFE2CF9F138741851843BD
:1020400013844185B304A7001C40858F63C4070037
:102050006FE06FA0EFF07FE6C5BF1841FD57630743
:10206000F70048410505133515008280054582803B
:1020700010419C41630EF6005841D4410145630A6A
:10208000D7006308D6003385E7403335A00082804F
:102090000145828093176501D987850793B717009B
:1020A0003E951375F53F1105828098411C41B98F0B
:1020B0001CC1D8415C41B98F5CC198451C45B98FA2
:1020C0001CC582801C4181EB584101E71C4593B738
:1020D00017003E8582808147EDBF1C41D18393F775
:1020E000077091CBEFE2EF941105EFF07FF8133515
:1020F00015006FE04F960145828011E182806304F4
:10210000B5000841DDBF054582807C557849BE9504
:10211000998DB3F5F5023C4D63FDF500785193D7E9
:1021200035009D893E978547B395B7001C23DD8D0B
:102130000CA301458280939735002A8663C4070467
:1021400037071070130707C01442B3C7B6007D8F5E
:1021500015C793976601D9877D576381E7023707D3
:102160001000B7070080130707C093C707C0758F1B
:102170003705F04FED8F498F639BE7002320060062
:102180000545828037070080134707C075BF93D786
:10219000450113F807701307004001456310E8027A
:1021A00013D7A600A9811377F73F93F5F53F63672F
:1021B000B700E207E187AA07B6971CC28280EFE268
:1021C0004F872A842E85EFF0FFEC1C403E9508C017
:1021D00001456FE04F881C4185071CC10145828085
:1021E000EFE22F823A8C3E84338717013C55DC4F57
:1021F00063EDE7007C552A8AAE8CB28BB68A428D9D
:102200004689638B07166369FC161305C0FA9DA205
:1022100063890C0483A70C00CA846395870583A493
:102220004C0083A98C00A699637D340363689402F3
:10223000B389894063733901CA8983A5CC00B3048B
:1022400094404E86A6956A85EF60303D4E9D4E9433
:1022500033093941E31E09FA014529AA818C6373C8
:102260009900CA8483A70B00639B870383A54B0057
:1022700083A98B00AE9963743403636EB400B38991
:10228000894063F33401A68983A7CB00B305B4402A
:102290004E86BE954DBF818D63F39500AE84636C11
:1022A000590503258A065C493377F40229E76364FC
:1022B000F904B3F9F4025C41EA862286E285B38D23
:1022C00034416E8782976351A002B7B600002D6635
:1022D000938686721306C64E9305000637B5000036
:1022E00013054573EF60702951E5B38499406E9DE5
:1022F0006E94269985B78327CA0689CF636CFC0044
:10230000B7B600002D66938686741306C64E9305F5
:10231000C006E9B703258A0623A08B015C494C4D12
:102320003307FB00B376F4022297B377F702330644
:10233000D44023A2CB001D8F63F3E5002E871C55EC
:10234000818E369763F3E7003E875C4183A6CB001E
:1023500023A4EB00E2858297635CA000B7B600007F
:102360002D66938686721306C64E93057007BDB719
:10237000E30205EE6FD0BFEC138BFAFFE1BDEFD2A5
:102380005FE83E8D9C490111B28C2A891305C50373
:102390002E8AB68A3AC4C28BC4453ECE93D9AC00CD
:1023A000EFF0BFD393F9F93F63090514638709146C
:1023B0008327C90313D7AA001377F73FA98393F79D
:1023C000F73F6396E700795505616FD05FE70144F9
:1023D00063F4E700130400C0B707008093C7F7FF5A
:1023E000370C10003EC6130C0CC0B70D1040724BDA
:1023F0005A85EFF03FCA93074500E3E6F4FC032754
:102400000A00898C91481308C101A68791464A8623
:1024100081454A85EFF0DFDC6351A002B7B60000CA
:102420002D6693868672130606539305702E37B574
:10243000000013054573EF60501459F57245EF40E5
:102440008002B2473345AB007D8D2ACE63800904FC
:1024500093574B0113F70770930600406318D70298
:1024600033878A401356A7009356AB001376F63F86
:1024700093F6F63F636CD600337787013367B70175
:10248000E30367F5E207E187AA073E94B3878A4032
:10249000B3C76701B3F79701B9FB93176B01D987EE
:1024A0007D57E382E7F29379FB3F63F33B01DE89DB
:1024B000A24703270A00CE8891076A88A697CE868E
:1024C0004A8681454A85EFF0BFD1635CA000B7B66C
:1024D00000002D66938686721306065393054030DE
:1024E000B9B7E31305EE33863B41814533053D0122
:1024F000EFD03FD733056401C1BD0144F1BDEFD238
:102500005FD3BA8713F8F63F0147EFF05FE76FD06C
:102510009FD4EFD21FD24111B706F07F328458000A
:10252000B1063706F07FEFF09FFD63580500F957BD
:102530006309F50041016FD01FD24C002285EFF0F6
:10254000DFB60145C5BFEFD2DFCE328710415C4315
:102550001843345641112A84D44EA14813088100EF
:10256000930506013285EFF0BFC701E993054400EA
:102570002800EFF0FFAF3335A00041016FD0BFCD91
:10258000EFD23FCB3C552A84DC5B81E74845EF60C6
:10259000F0053C549C5F81E7484CEF6030053C54AB
:1025A000DC5F81E76850EF60700401456FD0BFCAFF
:1025B000EFD23FC87C5563E1F502B7B600002D6647
:1025C0009386C668130606529305501137B500006E
:1025D00013054573EF60607A28555C458297635C0C
:1025E000A000B7B600002D669386867213060652C9
:1025F00093057011E1BF6FD01FC6EFD29FC31C417E
:1026000013F7F73F1DE363D30504B7C600002D663B
:102610008565938606BF1306865E9385853237B53A
:10262000000013054573EF6040759306E01F63FFDC
:10263000E600635DB000B7C600002D668565938631
:1026400086C21306865E93859532D1BFBE9593F7F9
:10265000F53FB337F0008605FE078581DD8D0CC19F
:1026600001456FD05FBFEFD2DFBC2E8410554844C8
:102670009305F00FEFD0FFBEFD571CC06FD0BFBD5C
:10268000EFD23FBB9C512CD52A847CD5DC418DE315
:10269000B7C600002D668565938606C61306065DDF
:1026A0009385350837B5000013054573EF60E06C7E
:1026B0009C45AE8481EFB7C600002D668565938684
:1026C00006C81306065D93855508E9BFDC4581EF12
:1026D000B7C600002D668565938606CA1306065D9B
:1026E00093856508C1B79C4981EFB7C600002D6688
:1026F0008565938606CC1306065D938575085DB7E0
:10270000D44981EEB7C600002D668565938606CE56
:102710001306065D9385C50871B7984D01EFB7C6DE
:1027200000002D6685659386C6CF1306065D9385EA
:10273000D5088DBF03A98502631D0900B7C6000037
:102740002D668565938686D11306065D9385E5081B
:1027500091BFB377D90281CFB7C600002D668565DA
:10276000938646D31306065D9385250925BFB37767
:10277000E90281CFB7C600002D668565938646D6EF
:102780001306065D9385350931BFDC4D33F627030B
:1027900001CEB7C600002D668565938646D913061F
:1027A000065D93854509FDBD1306F007636DF600D0
:1027B000B7C600002D668565938686DC1306065D28
:1027C00093857509C5B5D05101EEB7C600002D66D9
:1027D0008565938646DE1306065D9385350AD9B571
:1027E000905921C293D51700637DB600B7C600008B
:1027F0002D668565938606E01306065D9385A50A1A
:1028000055B5FD55630FB60063FDC700B7C60000A0
:102810002D668565938646E51306065D9385C50A94
:1028200051B5F04439CAB376D60281CEB7C600009E
:102830002D668565938646EB1306065D9385150B1D
:1028400095B53377E60201CFB7C600002D668565E2
:10285000938646F01306065D9385350BA1B5B3F755
:10286000C70281CFB7C600002D668565938646F501
:102870001306065D9385550B35B5DC5885CF5CC4D2
:102880009C5CB9C35CCC2685A285EFF0DFDD2854C3
:1028900093050401EFF03FDD2454C85405EDB7C69D
:1028A00000002D668565938646FA1306065D9385BE
:1028B000350DCDBB4A85EF60C05248C471F1228509
:1028C000EFF01FCC5155A9AA4A85EF60805148CC42
:1028D0005DF9F5B7DC5C95C37CD0BC401307F00F05
:1028E0006372F702B7C600002D668565938646FCC5
:1028F0001306065D9385F50D75B3EF60804E68D0C5
:1029000069FD75BF85C33CD8FC4063DF0700B7C6CF
:1029100000002D668565938606FE1306065D938589
:10292000550E49B338D8CDB795C37CD8BC441307EE
:10293000E03F6372F702B7C600002D668565938697
:1029400046001306065D9385B50EA9BBB707008048
:1029500093C7F7FFD9BF8DC33CDCF444D84C637FE9
:10296000D700B7C600002D6685659386060213065C
:10297000065D9385150F3DB338DCC5B7BC487D5661
:102980006380C7069054637DF600B7C600002D66CD
:102990008565938606051306065D9385450F19B375
:1029A000305C637DF600B7C600002D6685659386B2
:1029B000860A1306065D9385650FEDB11356370041
:1029C00099C213D63600637DF600B7C600002D66A7
:1029D00085659386860F1306065D9385A50FD9B18D
:1029E0007CDC7D566390C704232E0406FD571CD063
:1029F0005CD02324040223260402232E0402232075
:102A000004042322040423280402232A0402232C7E
:102A10000402232404042326040423280404014577
:102A20006FD07F83E1F79C54305C0D8399C213D73C
:102A300036006373F600B2876373F700BA877CDCF5
:102A400075B7EFD26FFD0329C501844101456119B6
:102A500063EB240333D52403AE897D15EF30901C3E
:102A6000130425000A0433848440335424033309B7
:102A700089022285EF30101B0A05898C2285B384D8
:102A8000244123A099006FD06FFCEFD20FF8AA89E0
:102A9000285541117D172E8B4C00B28BB68C3E8A87
:102AA000C28A3AC2EFF0FFF9AA84094CE68556853E
:102AB000029A29E5A1C413F9140033042C41931898
:102AC00024001308810081476687C6865E86DA8502
:102AD0004E85EFF0EFF01DE17D14634A85000A0496
:102AE0001C083E947919832C84FFCA94C1B7A2456F
:102AF0005685029AAA870545EDD33E8541016FD0E0
:102B00004FF4EFD28FF0011132C63AC489EA7D57F3
:102B100098C323200800014505616FD08FF22A89F0
:102B20002855FD16AE8A6C08C2893E8A36CEEFF073
:102B30005FF1AA84032589062C00930B0002EFF0B5
:102B40005FF02A8B054C324763689B00A247232025
:102B5000EA0023A0F900C1B7338564413AC2EF30DF
:102B6000E07E2A8433848B402685EF3010057D1467
:102B70001247637385002A8491481308C100931794
:102B800024009146568681454A85EFF06FE549F568
:102B900033148C00818C45BFEFD22FE73709F8FF43
:102BA000AA89AE8A328C3A8BBE84428DC68C795A01
:102BB000938BF6FF130909C063940C00014549A0EB
:102BC00003270C008327CC00631C470303274C001A
:102BD00003248C003A9463F5840263E3E402058CD9
:102BE00063F38C0066843387E4406A852286B3856C
:102BF000E700EF608022229DA294B38C8C406DBFD1
:102C000003A6890623204C01544A10563388DB0062
:102C100033F7D4022698B376D8023387E4402322D0
:102C2000EC003308D84063730601328823240C017A
:102C3000DA864A86D6854E85EFF06FF4E35E05F6B8
:102C40006FD02FE0EFD2EFDB3E8BB7270000717122
:102C5000938767133EC6835C010FB7071060831428
:102C6000410F7E5C938707C02AC4AE8B36843A8AB4
:102C7000C289468902D802DA814A014D3EC82285BE
:102C800032CAEFF02FC1524683A7CB00B30DC50067
:102C900063F0FD08224603A70B0091481308C10208
:102CA000EE87914681453285EFF08FD3631E052470
:102CB0003255EF30407BB7070080298C5D8C83A7AD
:102CC0000B0022D614183ED893874D003EDA3256B8
:102CD0003707F07FB347A601B3F73701F98FCDEB84
:102CE00093D7A90093F7F73F63810716894763FCE1
:102CF0005703B7C600002D6637B500009386869748
:102D0000130646549305203C13054573EF60E00617
:102D1000635A601F83270A0083264A007D1B3ED624
:102D2000210AB28D6DB79307C0033387FA021C19CD
:102D3000EE55850ABA9723ACD7FAC25623AE37F9B7
:102D400023A0A7FB23AED7FAD256239227FB2393C7
:102D500097FB239497FA23A887FB23A477F923A64C
:102D6000B7F923A887F823AA47F923AC67F923A664
:102D7000B7FA23AAC7FA23A0D7FC130CC7023C1842
:102D80003E9CB247014D8149BEDD8144814C0149E1
:102D90006E86F5B5130620106392C7040147B2573B
:102DA00013F6F73FE376C7FEA9838C4693F7F73F08
:102DB000A697AA07CD8F8C22D042628593850530D5
:102DC000D205DD8DEE573ACC36CA8297634E051296
:102DD000D246B10655FD62470507D1B7EE57939528
:102DE000A4003686BA9562858297634F05104DD14F
:102DF000638C0A10FD1A9307C003B387FA021819EF
:102E0000BA9703A7C7FA83AB87F883ADC7F8BADDD3
:102E100003A747FB03A407F903AA47F903AB87F904
:102E200083A9C7F903AD07FA03D947FA83DC67FA28
:102E3000839487FA03AC07FB3AD683A687FB03A7E4
:102E4000C7FB83A707FC3AD83EDA93D7A90093F7CC
:102E5000F73F325789CB9357A70093F7F73FE3E942
:102E600027F3E3F797F39357470193F7F77F8DD352
:102E700013061010E390C7F23ACEEE57324736CC25
:102E8000E388E7F09307C003B387FA021819130623
:102E9000C0038145850ABA97138587F83ECAEFD0EB
:102EA0004FBCD2476E57E246239227FB23A6E7FA90
:102EB0007247239497FA23A477F91379F73F29836C
:102EC0001377F73F33072741BA94C20423A6B7F913
:102ED00023A887F823AA47F923AC67F923AE37F96B
:102EE00023A0A7FB239397FB23A887FB930C190030
:102EF000C184B68B370D0020C249014B014A7D5475
:102F0000814D79B50145EDB54D616FD04FB3EFD22D
:102F1000CFAF4111AA892E8AB28A368BBA8B3E8CEA
:102F200042890144A14C63642401014581A0B3049A
:102F3000894063F39C00A144A68813088100B3076D
:102F400074015A87B3868A40528681454E85EFF0D8
:102F50002FA909ED2686B3058C002800EF50B06933
:102F6000AA8701C9054563C30700094541016FD020
:102F70004FAD26944DBFEFD2CFABAA8403A88400F7
:102F800013F4F53F08416373040122885842144248
:102F9000DC404286AA85EFF09FF701E99C446386F6
:102FA0008700054563E3870009456FD0CFAAEFD2BC
:102FB000AFA62E848C41854741111387250063F20B
:102FC000E70A7C55368AB2892A8963E1F502B7B6E9
:102FD00000002D66938646681306864F9305400BC6
:102FE00037B5000013054573EF50305928550328B5
:102FF000840054441C4D50403E987D18B377F8022D
:103000003308F8401C45428742C68297AA8432485A
:10301000635CA000B7B600002D6693868672130627
:10302000864F9305800B6DBF01E9631B0A000325E2
:103030008906A285EFF02FE3268541016FD00FA10D
:10304000FD5723A0F90058405C4414404286CE85C9
:103050004A85EFF0DFEB6348050071D99304C0FAAD
:10306000E1BF8144D1BFAA84C1BFEFD20F9A3E898C
:10307000F9572A8AAE84B28A368B3A8CC28CC689BA
:103080006304F7027C556361F702B7B600002D6652
:103090009386866A130646519305900E37B5000055
:1030A00013054573EF50704D03278A06B3073901A6
:1030B000FD5B584F637DF706B7B600002D6693861B
:1030C000066E130646519305A00EC9BF9C406315BA
:1030D000FC06C8406362A90603278A0600572A94A3
:1030E000637C89043304244163F389004E84DC4407
:1030F0003305A940E6853E952286EF501052DC400C
:1031000098442299B307F940A29CB389894063F39C
:10311000E700BA8703278A069CC418576399E7001B
:10312000DA865686A6855285EFF07FE801E5E39FB3
:1031300009F801456FD0EF90638C7701B7B60000B6
:103140002D66938646701306465193057010B9B7E5
:1031500083278A0623A084019C4F23A40400B3770D
:10316000F902B307F940DCC0D9B7EFD2EF8ADC41EE
:103170009841B68832882E84B289B6842A868146E0
:1031800093050501EFF07FEE2A8911E94844268670
:10319000CE85EF20F035544048C4A69654C04A85E9
:1031A0006FD0CF8AEFD26F8641112A8A32852E8462
:1031B000B28B368BEFE01FEE5C4058481159AA974E
:1031C0006362F704AA840844939A1B0093DA1A00F6
:1031D00033C5AA00EF3020292AC691467000A28587
:1031E0005285EFF09FF82A8911EDF114814963C8E7
:1031F0000B04A6865A86A2855285EFF01FF739E1A7
:10320000232454014A8541016FD0AF8383274B00AB
:1032100003270B0085481308B100CE97B3863441CD
:10322000528681455285EFE0BFFB09ED85461306C6
:10323000B100A2855285EFF05FF309E58509E3E768
:1032400099FC7DBF2A897DBFEFC2BFFEB2862E8664
:103250004C410841EFF01FF56FC0FFFFEFC27FFD4B
:10326000FD571CC281462A84EFF07FD40DE5285417
:103270001C4982976351A002B7B600002D6637B58E
:10328000000093868672130686509305E00D1305A1
:103290004573EF50902E6FC01FFCEFC21FF7411116
:1032A0002A8AAE8A328BB68B3A8C3E89C289014417
:1032B000A14C63662401014541016FC09FF8B3042E
:1032C000894063F39C00A144A68813088100B307DA
:1032D00084015E87B3068B40568681455285EFE0B8
:1032E0003FF079F903A5090026862C00EF20502035
:1032F00023A0A900269475BFEFC23FF13455DC41ED
:103300004111984ED44ED107AA842E8463F3F6005F
:10331000B6879309F7FFCE97B3F9E702370B100092
:10332000814B814A130B0BC0938C0401B389374145
:10333000138CC9FE5C4063E8370318481440FD57FE
:103340003EC413088100B387EA4013864A00A6856D
:103350002685EFF09FF4631D0512A247638D771356
:103360001305C0FA35A23389F94071191307E03FFC
:10337000637427011309E03F91073E996375390192
:1033800063732C016289FD57DC8363643907BC5485
:10339000944FDC4F958F63EE27051840854813083E
:1033A0007100CA87268681452685EFE07FE309C53F
:1033B0009307C0FA631EF50CBC5414407D579C4F14
:1033C0001308C1003AC63E864A87A68526853EC4B4
:1033D000EFF0BFEC09C59307C0FA631BF50A370687
:1033E00000603400130686C0A2852685EFF09FDBBF
:1033F00045E1034A71005C400844134A0A08135A25
:103400007A00130A0A50B307F940F117520A336AD7
:10341000FA00336A6A013345AA00EF30C0042AC4B7
:10342000484411462C00EF20B00C5C40184048C4C2
:103430002AC6A1481308810081462686E68526858E
:10344000EFF0BFC231E563970A00832A4400832B63
:10345000C400910A9C83370700802322240193C76C
:10346000F7FFE207F98F33CA4701FD5723244401D0
:103470005CC463783901BC54D8489C57BA97E36B55
:10348000F9EA2686E6852685EFF05FDDE30405EAA6
:1034900041016FC01FDB144013088100914756871C
:1034A0001146A6852685EFF05FDF7DF1A247EDD3BB
:1034B00045BDEFC21FD5032EC5065D71832E0600E4
:1034C00063080E0063F2CE4303234600637EC341CC
:1034D00046CE42C63EC43ACC36CA3289AE8B9148FB
:1034E000130801038147768791462A8681452A84FD
:1034F00002D802DAEFE0DFCEAA8A09C59307C0FA44
:10350000631DF50A032749009148130841038147C9
:103510009146228681452285EFE09FCCAA8A55C13B
:103520009307C0FA631BF50881449397240033077F
:10353000F900184393C414008A0423A0EB002699D1
:1035400003270900FD5A23A60B0023A2EB009808CD
:10355000BA9783A707FE7D5B370C008023A4FB008E
:1035600089473EC2B7071000938707C03EC811467F
:1035700093858B007D555ADC5ADEEF2060772AD286
:10358000D68C02C0814D81497D5D014A6A85EFE09C
:103590007FB0345403A70B002A9AD44E91481308E5
:1035A0008102D287228681452285EFE07FC305C153
:1035B0009307C0FA6300F526AA8A568561616FC039
:1035C0001FC8D254C2579D8CB3249000B9BF125566
:1035D00011462C10EF20C0712AD22255EF20B0687E
:1035E0003349AD004AD46353090493574D0193F70F
:1035F0000778938707B093B7170003A7CB00631D25
:1036000007209C08A69703A70B0083A64B0083A75F
:1036100007FE124623A0DB0023A4FB0023A2EB003D
:1036200085476303F62A85473EC291B74A85EFE096
:103630007FA63C54D04FB3074501636DF61C13576A
:103640004901137707789307005083A60B00130DE9
:103650004A006315F70636879148B2861308C102FF
:10366000EA87228681452285EFE09FB731F1325704
:1036700092576311F71AA25748541146D183FE0797
:103680004C103349F900EF20A06648D42255EFE0F2
:103690007FA0E257529523A6AB0023ACFB00F25764
:1036A00023A82B01239A3B0123AEFB00A38BBB0174
:1036B0005AD2E687E68A4A8DBE8CC9BD9307C5FFFC
:1036C000130841026A87A2852285EFF01FBDE3112E
:1036D00005EEA25713D7470193160701C18213F6CF
:1036E00006701DEEA98393F7F73F63E437019389D2
:1036F0001700A255E2475247AD8FF98FF9EFB24755
:10370000E1E3B7B600002D6637B500009386867DED
:10371000130686559305E05013054573EF50E06599
:10372000930500406311B604C24662076187BA99E7
:10373000B3F6DC003706F04FC209D18E93D90901E8
:103740006395D700B3EC8C016DB7E3846CFBA98360
:1037500093D6AC0093F7F73F93F6F63FE3EBF6F81A
:103760002A07BA9C79B7930700606313F6023454B2
:10377000937D170003A70B00D44EA14813088103C3
:10378000EA87228681452285EFE09FA53DD10DB5D0
:1037900093F6F67F9307F05FE39DF6F4345403A7A6
:1037A0000B00A148D44E13080104EA872286814504
:1037B0002285EFE0FFA2E31D05DE85473EC015BF71
:1037C00083A70B007245B000BEC4B247EAC6829719
:1037D000E34005DEA25609E5B68CE687D68CD9BD56
:1037E00037070080B3C79601134707C0F98F8DC311
:1037F0008947E314F5FE13D7AC0093D7A6001377DF
:10380000F73F93F7F73FE36AF7FCB3EC8601F1B7B4
:10381000FD5CE1B78147D5B3238B0B00A1C33054C6
:103820001C4EB377F7029DEB82478DCBFD573ED6FA
:1038300083A60B008647504E1308C102A28522853D
:10384000EFF0BFA509C59307C0FAE317F5D6964771
:103850003257998F93B71700238BFB00DE85130532
:10386000C403EFE09F8719CD5C5C13D7AA001377E0
:10387000F73FA98393F7F73F6310F704B70700807A
:10388000B3EAFA00A24781CF03D74B0193D7AA002E
:1038900093F7F73F6373F700BA8722471EA3E3DE6F
:1038A0000AD003D74B0113DEAA009377FE3FF95AE3
:1038B000E3E5E7D0814A11B3FD56E385DAFCE3F393
:1038C000E7FC938A0AC07DBFB7B70000B7B5000018
:1038D00037B500009387C7931306805693854573C9
:1038E0001305C57EEF503061930AC0FAF9B1EFC2FB
:1038F0005F948148014881477D57FD56EFF07FBBBB
:103900006FC07F95EFC2FF8F1C51832C0600011101
:103910009CCD5C51DCCD03870C0055CBB707300044
:1039200037070020938A07C09307870036C432C246
:103930002E84AA8437CA000037CB0000938B850100
:103940003EC013DC4A0109476318EC006685930505
:103950008A82EF50B075AA9C93058A826685EF50E3
:10396000107305472A89631AE50483C60C00130700
:10397000E00293891C006382E608B3892C014E871C
:10398000854D93058A823A853AC6EF5030723247A8
:1039900093058A82330DA7006A85EF50506F2A88FD
:1039A0002DC18547631AF50203460D009307E00217
:1039B0006317F60433070D01E9B70947E31FE5FA7A
:1039C000094693054B826685EF50E0425DF5A95AA2
:1039D000568505616FC0BF8689476312F5022AC606
:1039E000094693054B826A85EF50E040324801E971
:1039F000FD1DE3910DFC93092D00CE8C99B7850D2B
:103A000055BF03870C0069D79247094723A0970148
:103A10006313EC0693D7AA0093F7F73F1307F03F21
:103A20006381E7028246AA07370610705E87DD8E43
:103A3000130606C0A2852685EFE07FACAA8AE3497B
:103A400005F8B7370000138867F7A24793084101CC
:103A50004A87B70600785E86A285268526CA66CC88
:103A60004ACEEFF01FA5AA8AE34405F659F57C3843
:103A7000E9FBF95AB1BFB15AA1BFEFC28FFB37C9F9
:103A80000000930589822A84EF507060AA84930510
:103A900089822295EF5090612295269503050500B5
:103AA000133515006FC02FFB184D9C41D441631591
:103AB000F700504D6307D6026315D700544D63825B
:103AC000D702D4459C456399D70098C1584D8607C5
:103AD00023A40500D8C1DCC59C45014585079CC5CC
:103AE0008280EFC20FF5B7B600000566B7B50000DB
:103AF00037C500009386C6931306C6179385457392
:103B000013058533EF50303F1305C0FA6FC0AFF493
:103B1000EFC28FF001118547AE8AA9653284232C4C
:103B200006005CCE2A8A4146938505650808B704DD
:103B300000203709F07FEF50402E93098401372B86
:103B40000000A1041309F93F4E85EFE00FD119C120
:103B5000795535A80C082285EFF01FF56349050259
:103B600083A70A009308410013086B543EC483A73F
:103B70004A002687CA863EC64E868147A285528560
:103B800052C2EFF01F9393072500F59BD5DF056127
:103B90006FC0CFEBEFC24FE841118547AE89A965F1
:103BA0003284232C06005CCE2A8941469385056524
:103BB0000A85EF508026930484012685EFE0EFC943
:103BC00019C1795515A08A852285EFF0FFED634074
:103BD0000502CE852685EFE0AFC919C52686A285E8
:103BE0004A85EFF0DFD071D941016FC02FE6130590
:103BF000C0FADDBFEFC2EFE0DC5903A9C50263FEE6
:103C0000270D3309F940AA8A2E84B28963F326016D
:103C10003689CA8D130A0404795B930BC403130C11
:103C20008403930C8400370D102063940D004A85A3
:103C300015A81C581397C7006358070003A78A06E6
:103C4000545C584F639AE60293967700585863CDB8
:103C50000600545410545E88E287D2855685EFE002
:103C60005FEA11C56FC0AFDD232C640358DC1C581C
:103C700037070800D98F1CD883A78A06D44F5C5C0D
:103C8000B384F64063F39D00EE8418581316770052
:103C9000635C06025A20338697002A073367A70120
:103CA00063EFC602A6884E885286E6855685EFE009
:103CB000BFEE4DF95C58A699B38D9D40A6975CD890
:103CC0005C5CA6975CDC95B7185CA6884E8852862B
:103CD00081455685EFE0CFD0E9BF014561B71305B7
:103CE000C0FA49B7EFC26FD23971AA842E89B2895E
:103CF000814571460810368BEFC0AFD6A965854760
:103D00004146938505650808370A0020B70A1070F8
:103D10003EDE210AEF506010938A0AC02818EFE0B7
:103D2000CFB301CD8054054AB70A0300370B040115
:103D3000B70B040045E00145BDA80C080810EFF0E2
:103D4000BFD66345050EE2554E8502992DE5F25525
:103D50004E8502992DE130180C102685EFF03FB901
:103D600039E90144930B2020130C0020F95C8357A0
:103D70004103E375F4FA9316A4003800B3E6460154
:103D800056860C102685EFE08FF763580500631404
:103D90009503050442044180D9BF51816310750326
:103DA000324765DBA2464E88CA872686814526852E
:103DB000EFE0BFCD79DD21616FC0AFC8E30B0BFC35
:103DC000E31985FDA2454E85029975F5B2454E85EC
:103DD0000299CDB77C20638447010040A1BF1C58E5
:103DE00033F757011DE31C58B377FB00E39777FFC8
:103DF000585865D7145C4E88CA87268693050404F4
:103E00002685EFE09FC871D97DB713977700E34C03
:103E100007FC585469DB14544E88CA8726869305DC
:103E200004042685EFE07FC65DDD71B71305C0FA97
:103E300059B7EFC20FC0784D7C49232E05042A8460
:103E4000BA977855B3F7E70238517CC93C55D0573B
:103E5000931736006373F700BA87685081453CCCEE
:103E6000EFC02FC0B7250000854622869385A51098
:103E70002285EFF03FE719C57C54232C0404232E40
:103E800004043CD06FC02FBDEFC2AFBA41112A84E9
:103E9000384C744C63EDE6023C50C9E77C4837B7B8
:103EA0000000B7B50000BE967C5437B5000013077C
:103EB000C793B3F6F6021306002C938545731305DA
:103EC0008565EF505003115541016FC0CFB8705058
:103ED00093D7360013F57600B2979C23B3D7A7008B
:103EE000858B9DEB7C48BE967C54B3F6F60294C15C
:103EF000344C7C4C385085077D177CCC38D063FB24
:103F0000D70013D73700329718239D8BB357F7008C
:103F1000858BE5F301454DBF3C50850674CCFD17FC
:103F20003CD085BF22852EC6EFF0BFF0B2452DD123
:103F300061BFEFC20FB02E8491052A89EFF0DFF444
:103F4000AA842DE1A2854A85EFF01FF4AA8439E9FD
:103F500018402324040091481308840081479146A7
:103F60004A8681454A85EFE0AFA709C59307C0FAA5
:103F7000631DF50283278906DC53635DF000184456
:103F8000850793E717007D173E97B377F702B307CE
:103F9000F7401CC491475CC4FD571CC8232A040089
:103FA0001CCC5CCC26856FC00FABAA84E5BFEFC2EA
:103FB000CFA541112A84AE84138A0504938A850013
:103FC000130B05016C002285EFF01FECAA8919E99B
:103FD000B2452285EFE0CFDDAA8969C19307C0FA17
:103FE0006302F50C4E8541016FC0AFA59C58B386A6
:103FF000264113977700635807043054DA2093075B
:104000001900504E2A07336777016366F608854822
:104010001308B100CA875286D6852285EFE0DFB744
:104020000DE1324785481308B100CA8785462286CC
:10403000DA852285EFF06F8315C19307C0FA630319
:10404000F506AA8945B7985C85481308B100CA8768
:104050002286D2852285EFE0AF98D9B70509D45CD6
:10406000E366D9F83C544C4CE8449057EF40F05A82
:104070001C48285493050401BCC05C48FCC01C4C7F
:10408000BCC4EFE04FDEB247370704009CDC9C580D
:10409000D98F9CD881BF1305C0FA65B70149B70B0A
:1040A000102075BFB24637B700000566B7B50000EF
:1040B00037C500001307C793130636D093854573A1
:1040C000130505A2EF502063FD571CC8E5BDEFC2E4
:1040D000CF93BE893C55BA8B9845DC531D712A8419
:1040E000AE84B28A368B428A05076340F00698C5D3
:1040F0000149014C3854FD57CC40BEC8BECA7C476C
:10410000AEC482C682CCBDC7E1172285BECEEFE029
:104110002FCA3DC19307C0FA6311F51AFD571CC899
:104120006313091AD44037B700000566B7B500001D
:1041300037C500001307C79313065683938545734D
:10414000130505A2EF50205BBDAA850793E7170072
:10415000B377F70298C5C9FF85474C10268502D270
:104160003ED4EFD0FFF0631D0514054959B701494E
:10417000054C49B75C4F49BF930C810491461386A7
:104180008400E6852285EFE05FFE49F57C103EC69F
:10419000B7370000938787243EC4B3073041C20776
:1041A000C187370810403EC252C0CE88130808C0ED
:1041B000DA875687FD560146DE85228522D666D8E7
:1041C000EFE05FA821F993868401368536CEEFD0E3
:1041D000DFE8F24619EDFC3837061000130686C0FA
:1041E00093870760D2075D8EE6852285EFE09FFB0F
:1041F00015F102DE82C082C2631C0C009305C40369
:104200006818EFD09FEA930504036818EFD0FFE920
:10421000930584046818EFD05FE9F2577018A685FB
:1042200093F707C022853EDEEFE0AFAE59E5681890
:10423000EFD05FE901ED3706008074181346C6C061
:10424000E6852285EFE01FF6E31605ECE68522857C
:10425000EFF08F8AE31005EC3C5436479C4FB37760
:10426000F7028DC3B7B600002D66856537B500002F
:10427000938686771306C656938535821305457354
:10428000EF40B02F9C40D440B3093A41DCC0C64750
:1042900094C0239A3401D8C49CC823240404232640
:1042A00004042328040463190C0031469305040315
:1042B0001305C403EF407036628525616FB07FF847
:1042C000FD571CC8054985474C18268502DA3EDC97
:1042D000EFD01FDA0DE5D44037B700000566B7B55B
:1042E000000037B500001307C7931306B683938504
:1042F00045731305057AEF50004011557DBF938536
:1043000044002285EFF05FB8E30305E69157E3161A
:10431000F5FAE30409FA4A8C0149E9BBEFB2DFEF91
:1043200079712E840C08AA8432C636C43AC2BE8A79
:1043300042C0EFF01FC02A8939E57C380248124795
:10434000A303F1021C4CA24632463ED45C4C0C083E
:1043500026853ED6D687EFF09FD7634A0502424AAC
:10436000D2498547232C4401232E34017CB8938500
:1043700004022285EFD0DFCF19E563960A0023A05F
:10438000440323A234034A8545616FB03FEC2A8978
:10439000DDBFEFB21FEA4111B72500008146700072
:1043A0009385651D02C6EFF0FF9311E1324541018F
:1043B0006FB07FEAEFB2FFE42A8913153700328B22
:1043C0005D71AE84B6893A8A368636950148130304
:1043D0001040130EF04F930E0060DA28631FC512D1
:1043E000631D0818FC28639D071C83DB4401FD57EF
:1043F000372C0000B70C10402328F900054D930D11
:104400008103130CEC1B938C0CC0814A33835B41FA
:10441000636D6D2E63870A04C20A93DA0A015E880F
:10442000D6872687D2864E86A6854A85EFF01FEF6F
:104430002A84630A052C9157631EF50CD8409440DA
:10444000B7B700000566B7B5000037C50000938711
:10445000C7931306F688938545731305C58EEF50F1
:10446000802983278906DC53635CF008984485071C
:1044700093E717000507B377F702D9E385472C18B0
:10448000268502DC3EDEEFD0BFBE3DE94A85EFF077
:104490005FF02A84634D05108327C9063384A74043
:1044A0008D8363FF87049444B7BC0000056CB7BAE2
:1044B000000037C500001387CC9313064C8A938500
:1044C0004A731305C591EF5000235E888147268704
:1044D000D2864E86A6854A85EFF05FE42A84630F74
:1044E000052891576318F50237C500009386CC93D1
:1044F0001306EC8A93854A731305C594EF50A01FE9
:104500005E8881472687D2864E86A6854A85EFF04B
:104510001FBC2A84635F041A59A81442D182939560
:104520000601C18193F8F57F639668000507DAA854
:10453000210665B56397C8030DE3B7C600002D6675
:1045400085659386468D1306C6579385758C37B55A
:10455000000013054573EF4050027D17DAA80548A7
:10456000C1BF93F50570E395D5FD5842858A0C438C
:104570008CCC5843F4B8D8CC65BFE31507E681EF7F
:10458000B7C600002D6685659386468E1306C6570E
:104590009385458D6DBF3E86A6854A853ECCEFF05E
:1045A0006FDF2A84E24701C9F957E30DF5E222855E
:1045B00061616FB0DFC8FC3BE38607E2094411AAE2
:1045C000DA289307E00FE3E2E7E29C40032789063D
:1045D000D0443EDC9448FD57BEC27C4732DEB6C0B4
:1045E000B2C4B1C3E117BEC65C103EC6B737000007
:1045F000938787243EC4930A810302C202C0814884
:104600000148D2874E87A6854A854AD256D4EFE024
:104610006FE32A8419C99157E309F4DC9307C0FAC0
:10462000E317F4F8D9B35C4F75BF130C0903E285A7
:10463000681002D602D802DA930BC903EFD0FFA6A6
:10464000DE856810EFD07FA6681093058904EFD04F
:10465000DFA5B257681093F707C03ED6EFD09FA6EC
:104660001DE17010A6854A85EFD0BFEA2A8421F1AA
:104670003706008074101346C6C0D6854A85EFE021
:104680007FB22A8449F9D6854A85EFE0FFC62A849D
:1046900059F18327890672579C4FB377F70281CF70
:1046A000B7B600002D668565938686771306C657D4
:1046B0009385E59169BD8647D8C431469CC8E2859B
:1046C0005E85EF40807523240904232609042328EE
:1046D000090483270B00832C8902130D10403ED65A
:1046E00083274B00894B930D09023ED8E3810CECE4
:1046F000938A8C006C105685EFD09F972A8C49C105
:1047000083AC0C00E5B7D68B09B393980A0193D814
:104710000801B3071041C207C1873EC26EC662C41A
:104720005EC06688D2874E87FD560146A6854A85BB
:104730001ACC02DCEFE00FD12A84E31D05DC8327CD
:1047400089066243130EE00FF84711E3D84F636305
:104750006E02944F13561700130787FD9387F6FFD9
:10476000B297B3F6D702958F6373F700BA87625793
:10477000E3F2E7CA135313009A9A49B9854B49B338
:10478000A685130600025685EF402069FD55639B00
:104790006A07138C0C0203D74C0083D6CC01E3616B
:1047A000D7F603C6FC0129DEEE85628536CE3ACC0B
:1047B000EFD01F8C11C56247F246158F2392EC0093
:1047C0006286D6854A85EFF08F9271D52A84C5B36B
:1047D00013173C004E9718439307F04F13564701A9
:1047E0001376F67F6314F60429831377F73F63107B
:1047F000D70203C76C006306770123A4BC0023A67D
:10480000BC00050C83D64C00E3144CFD59B7E37A89
:10481000D7FE03C76C00FD162392DC00E31377FF7D
:1048200003A78C027D1723A4EC02E1BFE31BA6FDC6
:1048300029831377F73FE3E6E6FC03C76C008506A0
:104840002392DC00E31F77FB03A78C020507E1BF7F
:10485000EFB23F9B9C5901112A8C13977700AE8CC5
:10486000328AB68963500704D859D455B307370143
:1048700063F3D700B6878326CC0763F5F602832758
:10488000CC0623AEEC02E6852320FC066285EFF021
:104890000FF283A70C033DE1370700FF7D17F98F67
:1048A00023A8FC024E8419E04E85B1A883A60C0310
:1048B000B707040093840C04F58F81CB03278C0683
:1048C00003A6CC03584F6316E60C1396760003A795
:1048D0004C036346061CA1E31DCF83A6CC0203A6AE
:1048E0008C021308010193878C037D17A6856285CE
:1048F00002C8EFE00FA119C983A70C033707100006
:10490000D98F23A8FC0205616FB07F9303258C0625
:10491000A685EFD05FD58327CC0603AB4C0383AAD3
:104920008C032320FC06930DFBFF4C086285EFF0FF
:10493000AFD579F1D2456285EFD09FC71DC99307E6
:10494000C0FAE31BF5FAB7B700001387C793D24646
:10495000B7B70000938547730566B7C70000138596
:1049600007A2130656BCEF401059FD5723A0FC04C4
:104970006DBF03258C0663110B06D24723AE0C02D4
:1049800023ACFC0283A70C0337070400D98F23A8AC
:10499000FC0283278C0603A9C70183A7CC03330934
:1049A000F940637324012289930AC0FA83A7CC03D8
:1049B00003A78C03CA88528885466286A6856285CD
:1049C000EFE0AFEA6303050EE31855F3E685628571
:1049D000EFF0EFDD61DD0DB72C086ECCEFE06F86F8
:1049E00003278C06E2470149584F85073ECC639266
:1049F000E7080505EF10701CAA8B1309150056CEA9
:104A0000014D5247131F2D00FA8791481308C10129
:104A100085466286A68562857AC6EFE00FE5324F4D
:104A200019FD6391AB07050DE36D2DFDD2470A0912
:104A300023AE2C0323ACFC02B1B785481308C10197
:104A4000CA875687B3862641628681456285EFD044
:104A50002FF9E31305EA524785481308C101CA87B5
:104A600085466286A6856285EFE02FE0E31905ECB6
:104A70000509E246E363D9FCD24723AEDC0223AC4E
:104A8000FC0209B7724791481308C101FA879146A1
:104A9000628681456285EFD0AFF451D5B1BDF9573B
:104AA00023ACFC0223AEEC02F1BD83A74C034A9A6F
:104AB00033042441CA9723AAFC0283A7CC03CA97D4
:104AC00023AEFC028327CC062320FC06E9BBEFB211
:104AD000CFF39C591D71AA841397C700635D07002B
:104AE00013977700634407007D57B8C13707F8FF75
:104AF0007D17F98F9CD99C5901451397D7006358AE
:104B00000708139777002E8403A9450383A9C502DC
:104B1000634B070A1306400581456800EFB06FF448
:104B20001C544146A6853EDAE80085474EDC3EDE51
:104B3000CAC0EF40802EFD579CC0FD5958585C54A8
:104B4000636AF7048569930B0404130CC0FA37BB3E
:104B50000000938929D5B7BA000037CA00008546FE
:104B60002686DE852685EFE08FC43DC1631185036F
:104B7000145C93854A731307CB934E8613050AA2E0
:104B8000EF407037A2852685EFF06FC269D92561A5
:104B90006FB02FEB85461306B1006C002685EFF051
:104BA0006F85E34605FE85461306B100A28526857E
:104BB000EFF01FCAE34D05FC9C40E38137F9CEC6F8
:104BC00023A03401A5BFCA8763733901CE875CD89F
:104BD0001C5C3707FCFF7D171CD45C580145232A59
:104BE00024035CD41C58F98F4167D98F1CD845B772
:104BF000EFB28FE241112A89DC59328495C605470C
:104C00003304F6006382E60209473E84639EE600B1
:104C10009459D8551395D6003A84635605003E84BE
:104C200063F3E7003A843294032749072955636503
:104C300087006316F400228541016FB02FE1985977
:104C4000AE849316C70063D0060403258906D45D9D
:104C5000584D638AE6022C003EC4EFD09FDEAA893D
:104C6000032589066C0022C6EFD0BFDD639DA90035
:104C7000FC4032476369F700B444B6976375F700A8
:104C8000C0D8D8DC4DBFA6854A85EFF05FE44DF56E
:104C9000C0D855B7EFB2EFD683298502370A00FF97
:104CA00019712A842E89B28A368B854B7D1A6395B9
:104CB000090C8327090013060002CA853EC4832716
:104CC000490088003EC6EF4040159C105A87D686A2
:104CD0004A868C002285EFF0EFEDAA84634105102F
:104CE0002C004A85EFD0CFB819E5130600028C00DE
:104CF0004A85EF4080128947639CF40413068404BC
:104D0000CA852285EFD0FF80AA8471E986573707CC
:104D10001000130787C03EC49657610914083EC6A9
:104D20008347F9FF30008C1093870760D207D98F33
:104D30003EC80547814722854ACAEFF0AFE7AA84FB
:104D4000634F0508130600028C108800EF40E00C4A
:104D5000268D814A37BA0000B7B90000B7CB0000F2
:104D600037CB0000130C040285476313FD2CB70CEE
:104D70000080938CFC3FB1AA13858900631525013F
:104D800083A909002DB7CA85EFD08FAE75F983C707
:104D90006900E39777FF83A7090313977700E3512F
:104DA00007FE3C5403A7C9029C57E3FBE7FC83A71B
:104DB0004903CE85228523AEF9027C543CD0EFF026
:104DC0000F9FAA8409ED83A70903CE852285B3F737
:104DD000470123A8F902EFF09FCFAA8455D1268579
:104DE00009616FB0CFC5938584002800EFD04FA82C
:104DF00009E523A4A40123A62401FC20639CB70198
:104E00009385C4022800EFD0AFA609E523A6A4032A
:104E100023A824038440D5A893040403854526854C
:104E2000EFD0AFFD2A8D631E05128C102685EFD0C2
:104E3000CFAA63040512045816578656A98093F426
:104E4000F43F0566A6871308CA931306A69D9385AB
:104E5000497313058B86EF40100A1C58232A04025D
:104E6000232C0402B3F797011CD89357A90093F79A
:104E7000F73F4A8763F4F400130709C08657930687
:104E8000F03F3ECC96573ECE81476386D400AA04BD
:104E9000B707F04FC58F3ED09C003AD43ED60947A5
:104EA0008147141030088C10228502D2EFF08FD089
:104EB0002A8D6348050A85476317F506E2471306FE
:104EC00000028C103EC4F2478800854A3EC6EF308F
:104ED000D074164886473247A24605669308CA939F
:104EE0001306D69A938549731385CB82EF40B000A1
:104EF000E2852800EFD0CF971649064D09E523201B
:104F0000A403232224030454894DE39E04EC90104F
:104F10002C002285EFE0DFBF2A89E35F05EEF95719
:104F2000631DF510014D90102C002285EFE09FC607
:104F3000AA8415C9F957E314F5EAE307A9E2B7C64D
:104F400000002D6685659386C68A1306865993856B
:104F5000B59F13854973EF3050624A879304F03F41
:104F600031BFEA84ADBD1C58930C040393F7F73F9F
:104F7000C5E78C106685EFD04F969304F03F15CDB2
:104F8000045816578656A98093F4F43F0566A68701
:104F90001308CA931306E6A09385497313058B86FD
:104FA000EF4060751C58370700801307F73FF98FF3
:104FB0001CD8232A0402232C040286571307F03F2F
:104FC0003EC496573EC681476386E400AA04B707ED
:104FD000F04FC58F3ED8834771073707100013077E
:104FE00087C093870760D207D98F3EDC9C003EDEE6
:104FF00009478147141830008C10228502DAEFF03F
:105000006FBBAA84E34D05DC130600028C108800F8
:10501000EF30B060268D89BB93052900B335B00011
:10502000B305B0406685EFD04FDDAA8439D145BBCA
:105030008D44E3960ADA81445DB3AA844DB3EFB29E
:105040004F9C19712A842E8B8147B7B9000037BA5B
:10505000000037CC0000BE84B7CC0000714681450B
:105060000810EFB00FA08547A30BF102B70B00802B
:105070008547B70A10603EDE0149938A8AC0138DC6
:10508000FB3F2818EFC07FFD09C56301091081446B
:10509000F1B730188C002285EFE07F8511ED834752
:1050A0007103F1EF90102C182285EFE07FA6635872
:1050B0000500F9576309F50E09616FB04F98E1E0FB
:1050C000AA860A8713C60BC08C102285EFD02FC387
:1050D000E34405FE8247E256124872576394D700B4
:1050E000630FE8086314F700630BD8080563130621
:1050F000A33B9388C99393054A7313058CA9EF408A
:10510000805F0C1013050403EFC03FFD05631DE134
:10511000814D894610080C1022856EC802CA56CCF3
:105120000ACEEFF03FB7E34905F88D47E31BF5F4EE
:10513000054981BF832D04031257825693DDAD00CC
:1051400093FDFD3FEE871388C9931306433C9305F7
:105150004A731385CCADEF40005A1C58232A040231
:10516000232C0402B3F7A7011CD89307F03FE38177
:10517000FDFAAA0DB707F04FB3EDFD0059BF1306B6
:1051800000028C000810EF305049E5BD8547E384EC
:1051900004EC0C5813050403B305B040E205E185A7
:1051A000EFD0AFC511BFE1DCE30B0BFC7257E25649
:1051B000056637C500001306363E93054A7393878C
:1051C000C993130545B2EF400053130684048C00C5
:1051D0002285EFD00FB4E31105EE83477105370741
:1051E0001000130787C093870760D207D98F3EC48A
:1051F0008546BC0830000C1022853EC6EFF09FA902
:10520000E34C05EA8D47E31EF5E65A899DBDEFB2F2
:105210004F822A84EFF01FA8634C050011C91C5867
:10522000014593F7F73F89C781452285EFF03FE1BC
:105230006FB06F82EFA2FFFF1C5939712A84A583DA
:10524000858BBDCB58511451B7B700000566B7B573
:10525000000037C5000013064634938545739387D5
:10526000C793130545B5EF400049130604020C101F
:105270002285EFE0CFE721EDB707020085073EC4A6
:105280003C5485460A86DC4F0C1022853EC67C5471
:105290003EC83C583ECA7C583ECC3C5C3ECEB7072C
:1052A0001020E1073EC03C003EC2EFF05FF605E192
:1052B0001C5893F7F7DF1CD85C5C13D747011377B2
:1052C000077009EB1C58014593F7F73FDDE32161B7
:1052D0006FA07FF878403440A98337B80000056993
:1052E000B7B4000037C5000093F7F73F1308C89321
:1052F0001306D93693854473130585B8EF40A03F54
:105300005C5C1307F04FD18393F7F77F638FE7005F
:10531000B7C600002D669386C6BB1306C65F93050D
:10532000193713854473EF305025130604040C100D
:105330002285EFE0CFDB41FD5C5C1858B7060080AA
:105340009386F63FA983758F93F7F73F18D8AA077E
:105350003707F04FD98F232A0402232C04028546F5
:1053600030000C1022853EC402C6EFF05FEA39D946
:10537000B9BF85452285EFF09FCC91BFEFA2DFE951
:1053800083A905030111AA849397F9002E8463D899
:105390000708138985004A85EFC03FCC49E1939700
:1053A000790063D5070470445454130710205E201D
:1053B000520732CAAA07DD8E558F3AC838481008FE
:1053C000CA8514472685D58FB7062010D58F3ECCC9
:1053D0005C4389463ECEEFF09FE31C580DCD370766
:1053E0001000D98F1CD805616FA05FE626869385D3
:1053F00004012685EFD09FE67DF51C5813977700B2
:10540000E34307FA1C54A14630003EC45C54130722
:1054100020203EC669BF41777D17F98F1CD8845480
:10542000054993098400370A020089E81C583707A8
:10543000EEFF7D17F98F1CD8014575B76303940201
:10544000FC2063902703CE8513858400EFC05FC2E4
:1054500009E9DA205E206316F7009C58B3E747019C
:105460009CD88440D9B7EFA2DFDC9C592A892E84CE
:105470001397B7008144634B0700EFF04FE5AA8410
:1054800005C91C5837071000D98F1CD883278902FB
:105490001307890289C794436312F40214C33C487A
:1054A0009C4381E76844EF30701426856FA0BFDA13
:1054B000A2854A85EFF09FECAA84C9BF3E87B687D4
:1054C000D1BFEFA29FD4797132C693F726002A8903
:1054D000AE84B689A1EB138A8400B8C823A834032C
:1054E00023AA040223AE040223A6040493864400E4
:1054F0007000D2854A85EFE0EFC02A84635E050222
:10550000F9576317F5003245EFE02FD715E57954C9
:105510009C5837071000A685D98F9CD84A85EFF094
:105520009FF439A03AC4EFF0FFD02A84224745D532
:10553000228545616FA0FFD08547FCA083278902A3
:105540009CC023249902F9576318F40A93F90910AF
:10555000E38F09FA3244B7C500009385858222851E
:10556000EF40E032B307A400838707006393071A74
:105570008327090763F5A7001304C0FD51BFDE2090
:10558000370710408D46AA075D8F3ACC5D8D3707EF
:105590001000598D37071020D98F2AD03008D285B6
:1055A0004A8522D23ED402CE02D6EFF05FC6915792
:1055B0002A84E303F5FC29FD37041020B70A008094
:1055C0008149314B93CA0AC0F95B416CBC4898478A
:1055D00063EEE9069C4383298906E9CBFCC49385E5
:1055E00004044E85EFD02F889357440113071020F1
:1055F0006386E70C01442DBF93F70920639D0710D4
:1056000051801374F47F85476319F410C22093F915
:1056100009402A04638A09009C584167B706102094
:10562000D98F558C9CD859BFB7060020A1063706E4
:105630001070C18E13878402130606C0D2854A8576
:10564000EFC0FFEB2A84E35B05F6D9B59858058BCC
:1056500019E79C5813F7270005EF850985BF3387A5
:105660006903DC43D6205686D285AA064A853E9732
:105670001C47DD8E1C23584393870730D207DD8EED
:10568000EFC0FFE7E35705FCE30575FD2A8449B544
:10569000B3866903B84858433697144703278907E8
:1056A000636FD706B3E787019CD845BF03A589027E
:1056B000EF302073E8C405F5515499BD9C58B706E6
:1056C00000017957D58F9CD8832789061374F43F3E
:1056D00098D49457C0D4B8C023A20404B4C419D831
:1056E000DE201306E03FF844AA076374D600930651
:1056F000E03FDD8E37061070B7070020DD8E130601
:1057000006C0D2854A85EFC09FDF2A84E35405EEA8
:1057100001B53154F5BB3D54E5BB2D54D5BB1154F7
:10572000C5BBEFA27FAF9C59411113F727000DE3D2
:10573000B7C600002D66856537B50000938646A480
:105740001306065C938525E513054573EF30E0628B
:105750001397C700AA842E84328AB689634207044D
:105760001C58139747016343070403294403F8585F
:105770001555B30639016368D7021397D700635DE7
:105780000702CE865286A2852685EFF06F8C634C89
:1057900005001C583707EEFF7D17F98F1CD821A094
:1057A000EFF0EFB255DD41016FA05FAA5854545895
:1057B000E3FDE6FA58D855BF5C54E3F427FD5CD806
:1057C00085461306F100A2852685A3070100EFF0A8
:1057D0002F88E34A05FC5C58E3E427FF5DB7EFA29E
:1057E0005FA51D712A842E89EFC09FE96312050E03
:1057F000832709028DE3B7C600002D66856537B59E
:105800000000938646A71306C65D9385751313059E
:105810004573EF3080563C5468508145D057EFA017
:105820005FA43C547854232A0404DC578E07637326
:10583000F700BA873CCC232E040438D08C00228594
:10584000EFE02FEFAA8435EDB707020085073EC8C9
:105850003C548D463010DC4F8C0022853ECA7C546F
:1058600002D63ECC3C583ECE7C583ED03C5C3ED22C
:10587000B70710403ED4B707F00FA1073ED8B7C70F
:1058800000009387C7A83EDAB7071020E1073EDC87
:105890001C083EDEEFF0BF97AA8405E5814601466D
:1058A0008C002285230B0104EFF07F96AA8411E976
:1058B000854730008C00228502C43EC6EFE02F836E
:1058C000AA842285EFC0DFCB268525616FA0BF9813
:1058D000AA84DDBFEFA2FF95EFC09FCA6FA0BF975C
:1058E000EFA2BF921D712A84EFC09FD92A894DE192
:1058F000714681458800EFA0DF96A965854741463E
:10590000938505652808B7C90000416ABECE938912
:10591000C9A8EF308050B73A00007D1A37BB0000AD
:10592000B7BB000037CC0000A808EFC00FF3AA8C6B
:1059300025C5930404032685EFC0CFF80DE51C5C54
:105940005858145837B800000566B7B5000037C579
:1059500000001308C8931306E621938545731305C9
:105960000530EF30505918583146A6859357F70146
:10597000BA971CD81305C403EF30204A78545C54FE
:10598000232C0404232E0404B3F7E70238D07CC888
:105990004A8525616FA0FF8A2C088800EFE0CF9030
:1059A000AA846345050AA1473707F00F370D008029
:1059B0003ECA9308C10013886AF7814721079346BE
:1059C0000DC0B0088C00228522C64EC8EFD07FAE35
:1059D000AA84634D0506630E051893146501D984E6
:1059E000FD576388F4188647B706102038101CD07E
:1059F0009647E10613460DC05CD08C002285EFC0AF
:105A00001FB0AA846344050422570946931707016F
:105A100093560701C1836395C6000546637DF60270
:105A2000B7B8000042070566B7B5000037C50000EB
:105A30009388C8930548894741831306461C93857C
:105A4000457313058518EF30104BA9542285EFF0EC
:105A50007FE8268935BF95E305669308CB93054813
:105A600089473377470189461306361D93854B7363
:105A700013050C1CEF303048854C1C58A60CD25630
:105A800093F7F7DFB3EC9701232894039DC63858AA
:105A90006374D702B7B700000566B7B5000037C515
:105AA00000009387C7931306E61D9385457313057E
:105AB0000520EF30504451BF34D8E2568DC6785897
:105AC0006372D702B7B700000566B7B5000037C5E7
:105AD00000009387C7931306961E9385457313059D
