:040000006F106067B6
:100004000000000000000000EC120000EE120000EE
:100014000000000074160000000000000000000052
:1000240074160000741600000000000000000000B8
:1000340074160000000000007416000000000000A8
:100044007416000074160000741600007416000084
:100054007416000074160000741600007416000074
:100064007416000074160000741600007416000064
:100074007416000074160000741600007416000054
:100084007416000074160000741600007416000044
:100094007416000074160000741600007416000034
:1000A4007416000074160000741600007416000024
:1000B400FE1200007416000074160000741600008E
:1000C4007416000074160000741600007416000004
:1000D40074160000741600007416000074160000F4
:1000E40074160000741600007416000074160000E4
:1000F40074160000741600007416000074160000D4
:10010400000000007416000074160000741600004D
:1001140022220000741600007416000074160000F9
:1001240074160000741600007416000074160000A3
:100134007416000074160000741600007416000093
:100144007416000074160000741600007416000083
:100154007416000074160000741600007416000073
:100164007416000074160000741600007416000063
:100174007416000074160000741600007416000053
:100184007416000074160000741600007416000043
:100194007416000074160000741600007416000033
:1001A400000000000000000000000000000000004B
:0C01B4000000000000000000000000003F
:1001C000397106C022C226C44AC64EC852CA56CC8D
:1001D0005ACE5ED062D266D46AD66ED8232025006D
:1001E00003A1050082401244A2443249C249524A46
:1001F000E24A724B825B125CA25C325DC25D21619D
:100200008280397101436EC619A0397141536AC8A1
:1002100066CA62CC5ECE19A0397101535AD056D24B
:1002200052D44ED64AD826DA22DC06DE33016140AB
:10023000828241114AC026C222C406C68282B24DC1
:100240004101024D924C224CB24B4101024B924A69
:10025000224AB2494101024992442244B24041013A
:1002600082803D432A876373C3029377F700BDEF13
:10027000ADE5937606FF3D8ABA960CC34CC30CC716
:100280004CC74107E36BD7FE11E28280B306C3403F
:100290008A069702000096966780A6002307B7009B
:1002A000A306B7002306B700A305B7002305B700D0
:1002B000A304B7002304B700A303B7002303B700C8
:1002C000A302B7002302B700A301B7002301B700C0
:1002D000A300B7002300B700828093F5F50F939633
:1002E0008500D58D93960501D58D61B7939627002E
:1002F0009702000096968682E78086FA9680C1175C
:100300001D8F3E96E374C3F8A5B73367B500FD5360
:100310000D8B79E7B7877F7F9387F7F7104194417B
:10032000B372F6003363F600BE92B3E262006395E7
:10033000720C6318D6065041D441B372F600336391
:10034000F600BE92B3E262006396720A631BD604A3
:1003500010459445B372F6003363F600BE92B3E2E3
:100360006200639F7208631ED6025045D445B37283
:10037000F6003363F600BE92B3E26200639872083F
:100380006311D60210499449B372F6003363F60044
:10039000BE92B3E26200639172085105D105E30F8A
:1003A000D6F61317060193970601631CF70013573F
:1003B000060193D706013305F7409375F50F91E9D0
:1003C00082804183C1833305F7409375F50F91E136
:1003D00082801377F70F93F7F70F3305F74082808A
:1003E00010219421050585056313D60075FA3305A0
:1003F000D640828011059105E314D6FE0145828026
:100400002105A105E31ED6FC014582803105B10519
:10041000E318D6FC014582804105C105E312D6FCF4
:100420000145828081468147A54895450D43114885
:100430003307D5001823130607FD1376F60F63ED77
:10044000C800938707FDBA97638366009207850605
:10045000E39006FF3E8582801306F7FB1376F60FC6
:1004600063E5C500938797FCF9BF1306F7F9137688
:10047000F60F63E5C500938797FAF1B78147D9BFB7
:10048000EFF23FD894419C452A8B13062002138734
:100490001700B69788234111AE89B38DE600631E1D
:1004A000C52083A845006E89014513032002130E61
:1004B000C0053308D940637218210348090063124C
:1004C0006804B307F9403385A74083A709010505F0
:1004D00082972A8D6303051EB70610004974CD74F8
:1004E000938706C0AA8C130CC005930A6006130AF2
:1004F000200713040440930BF03F938404803EC410
:100500001DA06318C80105093308D9406377181B7B
:100510000505050979BF83C60D006389860323801D
:10052000DC00850D850CE3E82DFF23800C00C1471E
:100530002326FB0083A709002328AB0105453306CA
:10054000F940050623A4C9004101D5B93305B941D5
:100550006352A00283C61D00638E560F63E2DA0465
:100560001305F002638BA6026362D5021305200215
:100570006385A60283A749016A85829783A709003C
:1005800001453387FD4023A4E9007DBF63878601D1
:1005900013052006E390A6FEA1462380DC0075A883
:1005A0006381460D6368DA001305E006E394A6FC58
:1005B000A946E5B7930740076387F60A93075007F4
:1005C000E39AF6FA9547E3D7A7FA13852D00993DEC
:1005D000AA862295E3F0ABFA3385960063E7AB0871
:1005E00013856D0036C63305A9409547E3D4A7F8B7
:1005F00003C56D00E31085F903C57D00930750071F
:10060000E31AF5F613858D00313D33088500E3E3E9
:100610000BF7B246A2471375F53FAA06FD8EC98EA9
:100620004165AA963145930F000F91481388F8FF52
:100630001378F80F669813FFF60F63970C0785473A
:100640009376FF076384F800B3E6EF012380DC00B4
:10065000C69C31A0B1472380FC00850C0945AA9DAA
:10066000D9B5B547CDBFA547FDB79307F00763FFE1
:10067000D7009307F07F63FFD700416563E1A602CF
:1006800037051100E3F8A6EE194571BF1945814FF2
:10069000854869BF1945930F000C894841BF19452A
:1006A000930F000E8D4859B7137FFF03136F0FF898
:1006B0002300E80199827D18BDBF0145E3900DEC50
:1006C00061B51DC9144185CA5C4118451306000275
:1006D0006365F7008280050718C518456378F70041
:1006E000B385E6008C21E378B6FE82806396E7004E
:1006F000FD171CC5828001458280EFF2FFB159C908
:10070000D1C9AE8900453DEE854A49C4032904029A
:1007100063070906630E39074E8B034A0B00EF90FF
:10072000B04E52951C318D8B63945701130A0A0207
:1007300083440900EF90504D26951831A6870D8B04
:10074000631457019387040283440B006307FA0480
:10075000EF90904B26951C318D8B639457019384B9
:10076000040203490900EF90304A4A951831CA87BC
:100770000D8B6314570193070902638BF40000404B
:1007800069B7004001C80C5081C54E85BD3E75F962
:100790001C5091E30144228555BCFDD8050B050989
:1007A000ADBFEFF21FA9AA871305800282972A84A2
:1007B00009C51306800281456D34228569BCEFF2BC
:1007C0005FA7B70400202A849384040011E061B479
:1007D0005C440329040093F7071089E7084415E1F6
:1007E000084815E55C4493F7072099E7085009C5C8
:1007F000DC40829723200402DC4022854A848297D1
:10080000F1B7753F5C4493F70710F9DBE1BFDC40BB
:10081000829723280400F9B781E581473E858280CD
:10082000EFF29F9F83A905004111638A091203A972
:10083000850003AA45002E84930A4900AA846362B6
:100840005A03B7E500001146938585C63385290113
:10085000EFA0C07B19E59147DCC4232454018547F0
:100860001DA0130B590063636A03B7E5000015462A
:10087000938505C733852901EFA0407901E98547B4
:10088000DCC4232464013E854101C9B263635A0379
:10089000B7E500001146938585C733852901EFA090
:1008A000E07601E98947DCC48547DCC8232454018C
:1008B000D9BF6376490BB387290198239306200299
:1008C0006317D700A2852685653EAA876DBF93066C
:1008D000D0026309D700930607FD93F6F60F25466D
:1008E0006368D60ED29902C63E87014A130690036A
:1008F0009305500413085006930800039306B002B2
:10090000054313051A006381E9021C23636BF60497
:1009100063FD1705638BD70463E8D700938737FD22
:1009200093F7F70F6373F3041C4882972A89814772
:1009300039D91C440C4052864A9ABE95EF90F03447
:100940006C0023000A004A85EFB0C041B2492A8AF0
:10095000AE8A032B4401631D39014A85029B8147FE
:100960001DB76384B700E39107FD05072A8A51BFCD
:10097000B7E7000003A687C583A6C7C588CCCCCC43
:10098000EF70105663410502B707008093C7F7FF69
:10099000DCC81844A147DCC4B3872941BA971CC4FA
:1009A0004A85029B6DBDB7E7000003A607C683A674
:1009B00047C65285D685EF70905D6345A000B707A6
:1009C0000080F9B75285D685EF80F02AC8C8D1B724
:1009D0009306B005631CD70A54441306703EE360C7
:1009E000D6F8850654C49C23E39BE7F60509232427
:1009F00024012285F9311C44584063F3E70E184066
:100A00003E9714231307D0056394E60201498149F8
:100A10005C44FD175CC46384090023A22901930789
:100A20000002DCC41C4423A4340185071CC405BD9A
:100A3000FD171CC4014A8149930AC0020848953336
:100A40002A89630C0512638109042320AA0023224A
:100A500045011C44228585071CC4A531A2854A8511
:100A6000653B630E05102285A93918445C40637804
:100A7000F7101C404A8ABA979C23E38157FD13075D
:100A8000D005639EE70E69B7AA89E1B79306B00760
:100A9000E317D7EC54441306703EE362D6EC8506A8
:100AA00054C49C23E39DE7EA0509232424012285FD
:100AB00009391C44584063F5E70218403E97142357
:100AC0001307D0076391E602014981495C44FD1791
:100AD0005CC46384090023A229019307000491B731
:100AE000FD171CC4ADBDFD171CC4014A8149130B81
:100AF000A003930AC00208486D312A893DCD638C5A
:100B000009062320AA00232245011C4458408507DA
:100B100063F7E7061CC422856D36A2854A858D32AF
:100B200039CD2285793E83270901584023280900C1
:100B30002320F9021C4463F4E70418403E9718236D
:100B4000631F670385071CC42285A53EA2854A85CD
:100B5000E13115C52285B53618445C406371F70252
:100B60001C404A8ABA979C23E38757F91307D0079A
:100B70006397E700A1BFAA8949BFE38209DE4E85DA
:100B80003D39F1BBEFF24FE901112A892E84B28978
:100B9000814571464800368AEFF0AFEC9387818239
:100BA00023A0070023A207006304090A938481821B
:100BB00049C0B705002022C4314613840500480807
:100BC000938505004AC2EF90500C0840D93E2A8414
:100BD0002DC11245814705C5324715E3A24611478D
:100BE0005C00637ED700B7E500000D46938545C5E0
:100BF000EFA0C0415C0001E58D473EC65C003E852C
:100C0000C934AA85228509391DC163180A00639376
:100C10000904228505616FF06FE348005D343247B7
:100C2000A2476376F7009247BA979C23EDD32285BB
:100C300079363247A2476365F70291C3FD17638691
:100C400009003307F90023A0E90023A02401DCC038
:100C50000144C1B792473247BA9723A0F90055BF64
:100C6000BA87F1BF15C1EFF2CFDC41112A84AE84FF
:100C700032C6EFA08038B24693051500268622853D
:100C8000113741016FF02FDD01458280EFF26FDAFD
:100C900001468145C13F6FF00FDCEFF28FD901466D
:100CA000A93C6FF04FDB11C54825411513351500E0
:100CB000828001458280EFF2CFD74111A307010066
:100CC00019CD05469305F100EF20E0340145EF20F2
:100CD000804937E50000130585CBEFA0C01A41011C
:100CE0006FF06FD7EFF26FD237E500003571130563
:100CF00085DDEF20C02C2A8937E50000130585DE4D
:100D0000EF20E02BB7E7000083AA87DC37E4000080
:100D1000B7E40000AA8937EB00001304C4DC938415
:100D200044DD630609064808EF200046524A528512
:100D3000EF90E025AA8BEF90A02BAA855285EF803B
:100D4000706CD685EF80D042EF9060249357F541C8
:100D5000B3C6A70002C89D8E6389090011460C081E
:100D60004E8536C6EF206029B2460346C101424790
:100D7000A28711E2A6875E8693058BDF0810EFA09D
:100D80004015130600080C104A85EF20C0281305F3
:100D9000401FEF20C07A71B7EFF2AFC937E500000E
:100DA0004111130585DEEF2080212A8402C611C47B
:100DB00011466C002285EF2040241305401FEF20D0
:100DC0000078F5B7EFF2EFC337E50000697113055E
:100DD00085DEEF20C01EAA8A37E50000130545E333
:100DE000EF20E01D2A8A37E50000130505E402D054
:100DF000EFA0600937E4000037E500001306007D2E
:100E0000930504E6130545E6EF1020470565130535
:100E1000C5DAEF20C07237E500001306803E930567
:100E200004E6130505E7EF10404537E5000013061B
:100E3000803E930504E6130585E7EF100044B734C0
:100E4000002037E500009385C488130585E8EF90FE
:100E50009071B7360020B7E500001386C4889385EB
:100E600045EA9386C68A0818EFA0A0061166B7E582
:100E70000000130686A99385C5EB0818EF10E03F24
:100E800001CD37E50000130585ECEF90D07F130509
:100E9000803EEF20C06AE5BF37E50000130585EE10
:100EA000EF90707E1305007DEF20606937E500004C
:100EB0001306803E930504E6130545F0EF10E03B72
:100EC0003734002037E500009305C48C130545F145
:100ED000EF907069B7E500001306C48C9385C5F3E5
:100EE0000818EF90107F0966B7E500001306067139
:100EF0009385C5F50818EF10403801CD37E500009F
:100F0000130545F6EF9030781305803EEF202063FF
:100F1000E5BF1305401FEF20806237E50000130591
:100F200045F8EF10604D11C51305803EEF2020619C
:100F3000E5BF1305803EEF20806037E50000130514
:100F400085F9EF10C0661305401FEF20405F1306C0
:100F5000001081451385C18923A80182EFF06FB08D
:100F6000B7E7000003AB87DC8149014913840183A3
:100F7000B7EB000037EC0000B7EC000037ED0000E5
:100F8000B7ED00001305F101EF10A04029E5B7E728
:100F90000000938587FA1385C189EFA0C00D2DC588
:100FA00013850DFBEF90306E85472308F10A630728
:100FB0000A0005460C195285EF20E0050545EF2093
:100FC000801A1306001081451385C189232004006F
:100FD000EFF02FA9ADA08307F10189E79307000285
:100FE000A30FF1001C401307E00FE34DF7F8034691
:100FF000F1011387C18993861700BA9790A336979A
:1010000014C023000700BDBF93858CFD1385C189E3
:10101000EFA0600605C113050DFEEF90D066230812
:10102000010A63070A0005460C195285EF10B07ECD
:10103000014571B718409307800CE3C4E7F88509B0
:101040009307301F63FB37074810EF20E0139257D8
:101050003E853EC6EF80B073AA89EF807079B247B3
:10106000AA853E85EF80103ADA85EF807010EF8018
:1010700010729357F541B3C6A7009D8E63890A008D
:1010800011460C10568536C6EF103077B24682579F
:101090000347C1024E8693858B000819EF90706359
:1010A0000C1913058C03EF1040400509954763F5B3
:1010B0002701EF10004B014981492945EF202048C5
:1010C000D1B5EFF28F9437E500004111130545E3E8
:1010D000EF10F06E056737160000B7E50000814796
:1010E000AA862A84130787BB130666CB938545D34C
:1010F00013850188EF20403AB7E7000083A907D3A2
:101100000149854A37EB0000854B37EC0000480069
:10111000EF208007124ACE855285EF804074635ECF
:10112000A002631D0906A301710119C405469305B8
:1011300031002285EF10306E0545EF20C002130507
:101140004CD4EF90505413850188EF20A036054908
:101150001305800CEF20A03E5DBFCE855285EF8049
:101160006078E347A0FEE31559FF1C86639257039E
:10117000A301010019C40546930531002285EF1033
:1011800090690145EF10307E13850188EF20C0354E
:1011900013058BD8EF90304F01495DBFCE85528546
:1011A000EF80206679D16DB7EFF20F8737E5000049
:1011B0004111130585CFEF109060930700003EC6E4
:1011C000B7E7000003A947CF2A84B7E9000039C078
:1011D00011466C002285EF1050623245EF10907678
:1011E000B2442685EF80B05A2A8AEF807060AA85C3
:1011F0002685EF803021CA85EF808077EF803059D7
:101200001356F541318D3306C540D285138549D03B
:10121000EF9070351305401FEF2060324DBFEFE2B5
:10122000BFFF954611469385C19A1385C199EF106A
:10123000506AEF10D067B71500002A869306001099
:101240009385851A13854184EF20C013EF10306613
:10125000B71500002A8693060010938585D913855B
:101260008183EF202012EF109064B71500002A86CA
:10127000930600109385250C13854183EF20801081
:10128000EF10F062B71500002A86930600109385D0
:1012900045CE13850184EF20E00EEF105061B715A5
:1012A00000002A8693060010938545DC1385C183D0
:1012B000EF20400D13854184EF20800E138581833C
:1012C000EF20000E13854183EF20800D13850184EC
:1012D000EF20000D1385C183EF20800C37E500005F
:1012E000130585C9EF90303A6FE05FF601A0B707AC
:1012F000EFBE37E700E0938707083CC701A08545AC
:1013000037050040EF00702585476314F500EF2096
:10131000601E854537050040EF00B0257300203082
:10132000EFE23FF137E500001D711305850F02C4A0
:10133000EF90703537E60000930630101306C611A3
:101340006C00138541DCEF509054635C0500AA8566
:1013500037E500001305C512EF90F02025616FE01E
:101360009FEF300091466C00138541DCEF50D05A5E
:10137000A2476C00138541DC85073EC4EF507066C0
:10138000914630006C00138541DCEF5010616C0019
:10139000138541DCEF50905437E5000013054515E7
:1013A000EF90702EA24537E5000013058517EF90EA
:1013B000901B37E500001305051AEF90D02C79BF7C
:1013C000EFE23FE74922EF501067716513050520F2
:1013D000EF50706C37E500001305C504EF90B02A9C
:1013E00037E5000013050507EF90F02937E5000009
:1013F00013054515EF903029EF10E052AA8537E527
:10140000000013054509EF901016EF107051EF1012
:101410004046EF104030EF00F05537E5000013056F
:10142000450BEF905026EF10E06CDD3DEF10B0580B
:10143000EF10307FEF10F03FDD3337E5000013058C
:10144000450DEF905024EF10507B01A0B7170240DC
:101450009843B706FFF041111367170098C3D843AC
:1014600037060200758FD8C39843B706F7FEFD16FE
:10147000758F98C39843B706FCFFFD16758F98C308
:10148000D843B70601FFFD16758FD8C39843B7063A
:1014900000ECFD16758F98C33707FF0098C723A689
:1014A000070202C402C69843C166558F98C3B71697
:1014B000024005679C42F18F3EC6A24785073EC4A5
:1014C000B24781E7A247E397E7FEB71702409C4384
:1014D0001397E7006357070685473EC6324785479F
:1014E000631FF704B7170240D843B706C1FFFD16C4
:1014F000D8C3D843D8C3D84313670740D8C3D84309
:10150000758FD8C3D843B7062900558FD8C39843E1
:10151000B7060001558F98C3984393166700E3DD23
:1015200006FED843B7160240719BD8C3D843136751
:101530002700D8C32147DC42B18BE39EE7FE41017F
:10154000828002C661BFB7160240D842B7070020AA
:101550001146318B938787236305C70021466308B3
:10156000C70237177A001307072098C337170240BE
:10157000584311839376F700370700201307C700FD
:101580003697142398433357D70098C38280D842A4
:10159000D442416649833D8BF18E1306270015CF57
:1015A0003D47630FE6024147630FE6024547814529
:1015B0006313E6004146A1E2374702400327078054
:1015C000418B0DC737177A00130707203306C70270
:1015D00090C3C9DD9843058349BF81454946E1BFB2
:1015E00085453546C9BF81453D46F1B737173D00B2
:1015F00013070790E1BF3715024058559316F700BF
:10160000585563DF060411833D8B93061700371787
:101610007A00130707203357D70298C35455A18285
:10162000BD8A8DE295463307D702058398C33717E5
:101630000240585794433D8B050733D7E60298C3C1
:10164000984369B705456394A600E546E9BF3D4563
:101650006396A600D1463387E602C9BF8906E5BF77
:101660003D8B9306170037177A001307072033576F
:10167000D702F1B701A097F1FF1F9381213C1771A9
:1016800000201301219817F50000130565EC97F56C
:10169000FF1F938525971386C18163FAC5008322B6
:1016A000050023A0550011059105E3EAC5FE138549
:1016B0008182971500209385E5276377B500232065
:1016C00005001105E36DB5FEFD42739002BCAD420D
:1016D00073904280B7620000938282087390023058
:1016E00097F2FFFF9382429293E23200739052305E
:1016F000EFF0DFD5970200009382C2CC73901234D2
:1017000073002030EFE2FFB2B72701409387074014
:10171000631CF5008545130500204521814513050F
:10172000002061296FE03FB3B737014093870780FE
:10173000E31AF5FE85451305004041218145130557
:101740000040C5B75C413707F1E01307F7EF944D50
:101750007D8F9C41D58FD44DD58FD441A206D58F96
:10176000D98F5CC11C4537F7F1FF1307D77FD445EC
:101770007D8F9C49D58F94458606D58FD98F1CC502
:101780005C55370710FF7D177D8FDC29FD1793F718
:10179000F70FD207D98F5CD582801C4589C593E7A6
:1017A00017001CC58280F99BEDBF1C4593E787009D
:1017B0001CC5828008450D81058982801C4593E700
:1017C00047001CC5828008450981058982801C4527
:1017D00091C537075000D98F1CC582803707B0FFED
:1017E0007D17F98FD5BFA54763F7B7048D471387DA
:1017F00065FF3307F7020328C5009D47B397E7004D
:1018000093C7F7FFB3F70701B396E600DD8E54C523
:10181000994763E3C70495477D163306F602585986
:10182000FD47B397C70093C7F7FFF98F3396C500FD
:101830005D8E50D982800D473387E502032805016C
:101840009D47B397E70093C7F7FFB3F70701B39638
:10185000E600DD8E14C96DBFB14763E2C70295474C
:1018600065163306F6021859FD47B397C70093C7AC
:10187000F7FFF98F3396C5005D8E10D982809547AA
:101880004D163306F6025855FD47B397C70093C768
:10189000F7FFF98FB395C500DD8D4CD58280684583
:1018A00042054181828008416D8D3335A0008280E0
:1018B0005C4191C537070004D98F5CC1828037072E
:1018C00000FC7D17F98FD5BF9C4513F7070113F86E
:1018D000F70001C7D8413368E8008E2113F7F50FF0
:1018E00039C318418146854E3D4F930F80029302C4
:1018F0008004214E3396DE00B3F8C5006311160351
:101900009398260033131F011343F3FF3377E3004B
:10191000B318180133E7E800639FF70550C985063F
:10192000E39AC6FD18C11307F00F6375B70454415D
:101930002146854E3D4F930F800293028004414E15
:10194000B398CE0033F715016392E802131726000F
:1019500001173313EF001343F3FFB376D3003317AC
:10196000E800D98E639DF701232A15010506E319C6
:10197000C6FD54C18280E39457FA10C94DB7E3976E
:1019800057FE23281501DDB70CC982804CC982801F
:1019900019C20CC982804CC9828003A781848947FF
:1019A00010216311F70214318D4763EDD7003C21FC
:1019B0009A0637E700E09607D58F93F7F70F32972F
:1019C0002300F74054410547935756003317C7008B
:1019D00089CA938707048A07B7E600E0B69798C3D9
:1019E000828093870706B7E600E08A07B69798C318
:1019F0000F1000008280B7160240DC4251777D173D
:101A0000F98F5D8DC8C28280371702405C439146D2
:101A1000B18B6385D700A1466382D706B7177A00DA
:101A2000938707201CC1371602405C42370700200D
:101A30001307C7019183BD8BBA9794231C41B3D779
:101A4000D7005CC15442A1829D8ABA969422B3D633
:101A5000D70014C55442AD829D8A36971823B3D758
:101A6000E7005CC55842398393763700138741807D
:101A700036971823B3D7E7021CC982805C435843CA
:101A8000C166C983758FB7F6FF1F83A6C670BD8B6D
:101A900089071396160163480600C54601466392FE
:101AA000D702C94739A88946638FD702BD46638EDE
:101AB000D702C146638ED702C54601466393D7005D
:101AC000C1471DEF3747024003270780418B05C7F9
:101AD00037177A0013070720B307F7021CC121D676
:101AE0001C41858381B701466DBF0546B547D1BF0F
:101AF0000146BD47F9B737173D0013070790E9BF07
:101B0000B7150240D8559316F700D85563DF060481
:101B100011833D8B9306170037177A0013070720B0
:101B20003357D70218C1D455A182BD8A8DE295469C
:101B30003307D702058318C137170240585714419D
:101B40003D8B050733D7E60218C1184171B78545AB
:101B50006394B600E546E9BFBD456396B600D1463D
:101B60003387E602C9BF8906E5BF3D8B93061700A0
:101B700037177A00130707203357D702F1B799C5F3
:101B8000371702401C4F5D8D08CF8280B717024087
:101B9000984F1345F5FF798D88CF828099C5371707
:101BA00002405C4F5D8D48CF8280B7170240D84F0E
:101BB0001345F5FF798DC8CF828099C5371702404C
:101BC0005C475D8D48C78280B7170240D8471345F0
:101BD000F5FF798DC8C782801A218D679387070426
:101BE000B6217D8F9E21D58FD621D58FF621D58F19
:101BF0009625D58FB625D58FD625D58FF625D58FA9
:101C0000D98F1EA15A2DFD779387F77FF98F5EAD8F
:101C10009E291EA982801E2189C593E707041EA163
:101C20008280C207C18393F7F7FBC207C183C5BF98
:101C30004EA582804A2582800A256D8D3335A0000D
:101C4000828037F7FF1F032747701E2191461183BB
:101C50003D8BC2077117C18363E6E6023737014047
:101C6000930607C0630ED50013070740630AE5001B
:101C700037570140930607C06304D500631AE50097
:101C80000967D98F37370140130707C06302E5049E
:101C900037070040630EE50213070740630AE502B9
:101CA00037170040930607806304D502130707C067
:101CB0006300E5023737014013070740630AE50078
:101CC00037570140930607C06304D5006318E50049
:101CD00093F7F7F8BA21C207C183D98F37170040AD
:101CE000630CE500130707406308E50093F7F7CF9F
:101CF000FA21C207C183D98F1EA1DE215EB59E21C4
:101D00001EB5B7370140138707C0630EE500938700
:101D10000740630AF500B7570140138707C0630403
:101D2000E5006314F5009C251EB985475EA98280F5
:101D30001E2189C593E717001EA18280C207C183B7
:101D4000F99BC207C183CDBF5E2501C6DD8D4EA5BF
:101D5000828093C5F5FFFD8DDDBF1E294A25ED8FDD
:101D60004205418189C76D8D3335A00082800145D0
:101D7000828093C5F5FFC205C1810EA98280EFE282
:101D80004FCB1A29F577FD17F98FFA2179712A843B
:101D9000D98F1EA99A25DE2156252EC6D98FBA25A0
:101DA000D98F7D771307379F758FD98F5EA55E29F1
:101DB000DA25C207C18393F7F7CFD98F5EA96808E8
:101DC000A131B747014093870780B2456311F404FE
:101DD000A2576547B387E7029841130640060A07F2
:101DE000B3D7E702B3D6C702B3F7C7029206139779
:101DF0004700930727031307F063637CF70093877B
:101E00000601C207C1831EA445616FE0CFC492578B
:101E1000C9B7B3D7C702D58FEDB791C55E2509679E
:101E2000D98F5EA582805A25F977FD17F98FD5BF26
:101E300013F7F50F85471583B395B7006319F700BE
:101E40009307C500984301CED98D8CC38280894603
:101E500093074501E318D7FE93070501E5B793C53E
:101E6000F5FFF98DDDB793F5F51F4EA182804A216C
:101E70001375F51F82800A216D8D3335A000828095
:101E800013F7F50F85461583B397B6006311D70294
:101E90005A25F98F1A2101454207418381CB054517
:101EA000A181B315B5006D8F3335E000828089467E
:101EB0006314D7001A29F1BF5A29E1BFA1818547D0
:101EC000B397B70093C7F7FFC207C1831EA18280F3
:101ED000EFE22FB601111306000281450A85EFE0FB
:101EE0004FB81385C184EF100021854513050020EC
:101EF0007931316537240140EFF0FFAF130504401D
:101F0000EFF05F80B7070E003EC68A858547130550
:101F10000440230AF10002C002C202C402C8EFF06A
:101F20007F82854513050440EFF03F878145130507
:101F30000440EFF0FF9713050440EFF01F87930470
:101F400004402685EFF01F876DFD130504403724FC
:101F50000140EFF0BF86930404402685EFF0BF8672
:101F60006DFD854513050440EFF09F9437E50000B3
:101F70001305451CEF80307105616FE0CFADEFE2D6
:101F80004FAB2A8408414111854502C202C402C6F2
:101F9000EFF0FFBE1E2448404C007C8202C6EFF0EA
:101FA000BF9241016FE02FABEFE20FA72A8A3724DF
:101FB00001401385C184EF10601429498144130442
:101FC0000440D28522859D460546EFF0DF81854598
:101FD0002285EFF0CFFF89452285EFF0DF8C65DDAC
:101FE0002285EFF0DF8B7D19AA941379F90F15453F
:101FF000EF500027E31709FC1385C184EF10E011AF
:10200000294533D5A402420541816FE02FA4EFE2B8
:102010004FA2AA879A279C2B48416397B700BA859D
:10202000EFF09F966FE02FA3BA85EFF03F96DDBFEC
:10203000EFE22FA02A8408414111854502C202C463
:1020400002C6EFF0DFB31E2448404C007C825C44A3
:102050003EC68D473EC4EFF03F8781452285453F10
:1020600041016FE04F9FEFE2CF9C0565011185456F
:10207000110502C002C202C402C602C802CA02CCD2
:10208000231E0100EFF0BFAF3714014091478D448C
:102090007C808A85C147130504803EC426C2EFF0C8
:1020A000BF82130504809145EFF01F8E9307000255
:1020B00061498A85130504807C804AC426C2EFF0FA
:1020C000BF80930700047C808A85914713050480B4
:1020D0003EC4EFF06FFF930700088A851305048064
:1020E0007C804AC426C2EFF02FFEB70704013EC62B
:1020F000B70702003EC8B707000285073ECAA147DE
:102100003ECC6C009D4737350140FC86EFF0DFACDC
:10211000854537350140EFF01FB005616FE0AF93A3
:10212000EFE22F91014611C1054637150140914557
:1021300013050580EFF0DF856FE0EF91EFE26F8F21
:102140002A84894537350140EFF01FAF7DD9A2853C
:1021500037350140EFF0DFAD854537350140EFF011
:10216000BFAD7DD937350140EFF0DFAC1375F50F0A
:102170006FE06F8EEFE2EF8B79718545414502CAC2
:1021800002CC02CE02D002D202D402D602C602C8CB
:10219000EFF0FF9E854537050800EFF03FA093075D
:1021A0000040FC828D473ECC4C08E147371501408A
:1021B0003ECEEFF06FF1856793870780FC824C0875
:1021C00093078004371501403ECEEFF0EFEFF16743
:1021D00037540040938707200C103ED0130504C0ED
:1021E000B7070C003ED402D223160102EFF03FB92C
:1021F000930740147C8685475C87680085473EC806
:10220000EFF0AFF90546130504C093055052EFF007
:102210003FC28545130504C0EFF03FC045616FE044
:102220008F83411122C63754004093055052130545
:1022300004C0EFF0FFC415CD130504C0EFF03FC399
:102240009387019C03D7074083D627400507137760
:10225000F73F6308D70083D607402390E740BE9638
:1022600088A23755004093055052130505C0EFF082
:10227000FFC43244410173002030EFD21FF9B7543C
:1022800000401171AA892E8A32892A84938404C05D
:1022900083070400B1EBA547854463F52701A944F2
:1022A000B354990201491384019CA94A354BB7EBF9
:1022B000000037EC00000357044083572440C20756
:1022C000C1836392E70429450509EF104027E39491
:1022D00024FF37E50000CE851305451FEF80B028A9
:1022E000795511616FD0FFF5930500082685EFF051
:1022F0009FB87DD98305040026850504C205C181E8
:10230000EFF07FB671B783572440C207C1830357EC
:102310000440E38AE7FA3E87229703070700850710
:1023200093F7F73FE31557FF8A87BE8C8356244007
:102330000357044042074183E307D7F8035724407B
:102340002297830607000357244005071377F73FBA
:102350002311E440E38C66FD6387560194A385074F
:10236000F1B70145BDBF23800700E68513850B212A
:10237000EF80701F63070A00D2856685EF80B04F3B
:102380006DF19305CC1E6685EF80F04E0DDD7D5519
:1023900089BF9387019C83D6074003D72740420714
:1023A00041836300D70203D727403E97182318A123
:1023B00003D72740054505071377F73F2391E740EB
:1023C000828001458280EFD2DFE6B75400402A8444
:1023D0003309B500938404C0631424016FD0BFE7B0
:1023E000930500082685EFF01FA97DD90C202685CE
:1023F0000504EFF05FA7CDB7EFD21FE23971AA89CC
:10240000EF80B03F1376F50F1309C600B7E5000063
:1024100039061376F60F938505222A840810EF807B
:10242000502BB7E500001306007D938505E60810E4
:10243000A93501CD37E5000013050523EF80B02451
:10244000FD54268521616FD07FE0AA8413054006E4
:10245000EF10E00EC14768001379F90F89455C86DB
:10246000A30621018D37B9652946938585C34808A0
:10247000EF80A0014808A945B9371317040141832B
:10248000218393178400D98F08088945FC80253F54
:10249000931504014E85C1813D3737E50000CE8597
:1024A00013050525EF80300C69BFEFD2FFD6797197
:1024B0002E8AAA89EF807034AA845285EF80F03387
:1024C0003386A4001376F60F13042600B7E5000048
:1024D00011061376F60F93850522AA8A0808EF8065
:1024E000501FB7E500001306007D938505E6080838
:1024F000EFF0BFD801CD37E500001305852AEF8046
:1025000090187D594A8545616FD05FD42A8913059B
:102510004006EF10C0029307000328001374F40F65
:1025200089455C84C0844535139704014183218328
:1025300093978400D98F6800894541647C867D1417
:102540005935B3F584004E85BD3DB3F58A005285FB
:102550009D3D37E50000CE851305852CEF80B0004A
:1025600055B7EFD21FCDB7E5000037E500004111A8
:102570001306007D938505E613050528EFF0FFCFD0
:102580007D5415E12A8413054006EF00507B930724
:10259000000C680089457C863D3537E50000130551
:1025A0000529EF80500E228541016FD0DFCAEFD29E
:1025B000BFC67971AA89EF8050241376F50F1309ED
:1025C0005600B7E500001D061376F60F9385052229
:1025D0002A840808EF80F00FB7E500001306007D9D
:1025E000938505E60808EFF05FC901CD37E50000E7
:1025F0001305052EEF803009FD54268545616FD007
:10260000FFC4AA8413054006EF007073930720F8F7
:1026100048001379F90F89455C82A3022101EFF08C
:102620009FDA93070010280089457C84EFF0BFD91A
:10263000131704014183218393178400D98F680005
:1026400089457C86EFF03FD8931504014E85C18102
:10265000EFF07FD7130531008545A3010100EFF0AE
:102660009FD637E50000CE8513050530EF80A06FBB
:1026700069B7C5C1EFD25FBA0111AE848147014489
:102680009D49294A3D49930A00020387040021EB32
:102690009D443D499309000263FE840499A0631898
:1026A00047036350F902A285C14670000145230E1D
:1026B00001000904EF0040791374F40F8147850489
:1026C000E9B778003E97230057018507D9BFE34853
:1026D000F9FE1410BE962386E6FE8507CDB7E3F01B
:1026E00089FC014505616FD07FB678003E972300D5
:1026F00037018507E35BF9FEA285C14670000145FD
:10270000230E01000904EF0020741374F40F8147B5
:1027100061B77D558280EFD2DFB1411185452145FA
:10272000EFF0EFC58567938707C07C8237150140BE
:102730008D474C00130505C03EC4C1473EC6EFF0AF
:10274000AF98EF008074EF00A06237E60000C1464A
:102750001306063281450145EF00006F3705002062
:102760001305C502EF00300041016FD0DFAE854791
:10277000631BF600EFD2FFAB8C210845EFF03F89D9
:1027800001456FD05FAD7D55828091476313F6029E
:10279000EFD23FAA1C452E84A827EFF0FF80856763
:1027A000938747CE3305F502318508C001456FD0C8
:1027B0009FAA7D5582809147631BF60AEFD27FA7BF
:1027C0001C452E84A827EFF02FFE09E9B7E700008B
:1027D00083A707391CC001456FD0FFA78567FD1788
:1027E0006317F500B7E7000083A74739E5B7EF7037
:1027F000B00CB7E70000AA84AA8503A58739EF705B
:102800006040AA852685EF60B054B7E4000083A538
:10281000C439EF70E01583A5C439EF607053EF70D1
:10282000B016EF407033B7E7000003A6873A83A6DF
:10283000C73AEF602001B7E7000003A6073B83A675
:10284000473BEF500015B7E700002A86AE8603A588
:10285000873B83A5C73BEF50D006EF70D01DB7E78D
:10286000000083A5073AEF70E03908C0ADB77D5589
:102870008280EFD21F9CEFF0AFE539651305053C70
:10288000EFF0EFEF396513054537EFF04FEF39659E
:1028900013050534EFF0CFF9370500201305C50502
:1028A000EF00606C370500201305C504EF00A06B36
:1028B000370500201305C503EF00E06A6FD0BF990C
:1028C000EFD23F970145EFF0BF851945EFF01F8725
:1028D0000545EFF0FF846FD01F98EFD29F9501451B
:1028E000EFF01F841545EFF07F851305F00FEFF033
:1028F000FF842A8405880545EFF09F826DF06FD034
:102900009F95EFD21F936D3F0145EFF07F81054505
:10291000EFF0DF820145EFF07F820545EFF05F8049
:102920006D3F6FD05F93EFD2DF90EFF0CFF30145B3
:10293000EFF00FFF13050009EFF05F800145EFF0A6
:10294000EFFF0145EFF08FFF0145EFF02FFF13057B
:10295000F00FEFF0AFFE2205131405011305F00F81
:10296000EFF0CFFD4180498C420405454180EFF0F6
:102970002FFB22856FD03F8EEFD2BF8B2A89014576
:102980002E84B284EFF0CFF90D45EFF02FFB1355F5
:1029900004011375F50FEFF06FFA135584001375EA
:1029A000F50FEFF0AFF91375F40FEFF02FF90144C5
:1029B00093170401C18363E797000545EFF04FF6D5
:1029C0006FD07F891305F00FEFF04FF7B307890041
:1029D00088A30504F1BFEFD2DF852E84B2842A8953
:1029E000EFF01FEE0145EFF0AFF30945EFF00FF503
:1029F000135504011375F50FEFF04FF413558400D0
:102A00001375F50FEFF08FF31375F40FEFF00FF36D
:102A1000014493170401C18363E997000545EFF072
:102A20002FF0EFF09FEB6FD01F83B307890088234F
:102A30000504EFF0AFF0F1BFEFD2AFFF1314C50004
:102A4000EFF01FE80145EFF0AFED13050002EFF0E6
:102A5000EFEE135504011375F50FEFF02FEE13553C
:102A600084001375050FEFF06FED0145EFF00FEDEA
:102A70000545EFF0EFEAEFF05FE66FD0CFFD0145DF
:102A80008280EFD20FFB2E85EFF01FFB01456FD048
:102A90008FFCEFD20FFA404D41111309001033841F
:102AA0008502329409E7014541016FD0CFFABA841B
:102AB0006374E9009304001013960401A28536851F
:102AC00041823AC636C4EFF01FF1A246324726943F
:102AD000A696058FC1BFEFD2CFF55C4D3685B38585
:102AE000F502B295131607014182EFF0FFE80145A8
:102AF0006FD06FF6EFD2EFF34111EFF0DFE2AA856E
:102B000037E5000013050542EF80E025EFF07FDF99
:102B100037E5000013054544EF80E03683A7818147
:102B2000014502C63EC4EFF03FF111468145280041
:102B3000EFF07FEA814511466800EFF0FFE30C8675
:102B4000C94798876396F500930780076309F702E2
:102B50001487908637E500001305C546EF80A02056
:102B600037E500001305C54AEF80E03137E5000086
:102B70001305854CEF80203141016FD0CFED37E553
:102B800000001305C551EF80003037E50000130544
:102B90000555EF80402FB9649385C43C138541DC13
:102BA000EF4080241DCD37E5000013054557EF8029
:102BB000802D9385C43C138541DCEF40C01211C5C4
:102BC00037E500001305055A75B79385C43C138596
:102BD00041DCEF40602111C537E500001305055CBD
:102BE00051BF37E500001305455E69B7EFD26FE4CA
:102BF00037140140856493850480130504C0EFE019
:102C0000BFD8130504C093050040EFE0FFD71305BC
:102C100004C093050040EFE07FD79385048013053F
:102C200004C0EFE0BFD66FD00FE3EFD28FE03714D0
:102C300001408565130504C093850580EFE0DFD46E
:102C4000130504C093050040EFE05FD493050040F6
:102C5000130504C0EFE05FD36FD0EFDFEFD26FDD7D
:102C600037140140856493850480130504C0EFE0A8
:102C7000BFD193850480130504C0EFE03FD16FD02E
:102C80008FDDEFD26FD905693714014093050980B4
:102C9000AA89130504C0EFE07FCFA144130404C048
:102CA0001309098093978901E187930500402285E4
:102CB00063D50702EFE05FCDCA852285EFE0DFCC68
:102CC000FD148609CA85228593F4F40F93F9F90F50
:102CD000EFE0DFCBE1F86FD06FD7EFE03FCBE9BF9C
:102CE000EFD22FD52A84EFF07FF013058007EFF0A5
:102CF0005FF9EFF0BFF60145EFF0BFF8EFF01FF618
:102D00002285EFF01FF8EFF07FF5EFF01FF26FD0A4
:102D10008FD4EFD20FD22A84EFF05FED1305800736
:102D2000EFF03FF6EFF09FF313050004EFF07FF5AF
:102D3000EFF0DFF22285EFF0DFF4EFF03FF2EFF09B
:102D4000DFEE6FD04FD1EFD2CFCE938505FB2A8433
:102D500013F5F50FEFF0DFF8135544001365050187
:102D6000EFF01FF81375F400EFF09FF76FD0AFCEC0
:102D7000EFD22FCC1304000B1309800B2285EFF048
:102D80003FF60145EFF0DFF54145EFF07FF59304A5
:102D900000080145FD14EFF0DFF7E5FC05041374AE
:102DA000F40FE31D24FD6FD00FCBEFD2EFC69317C6
:102DB0008501130406FEE187AE841374F40F2A899B
:102DC00063D707009384250093F4F40F0149C147AA
:102DD000A6854A856396F604EFF0FFF613164400C5
:102DE0003D641304048481493294214AB3073401B9
:102DF00088238509EFF0FFF1E39A49FF93851400DA
:102E000093F5F50F4A85EFF01FF4A1440824FD1453
:102E100093F4F40FEFF0FFEF0504EDF86FD00FC35C
:102E2000EFF07FF219463304C40239698144130973
:102E300089619949B3878400CA9788238504EFF094
:102E40005FEDE39934FFD9BFEFD20FBD2A842E89FD
:102E5000B289368A8144930A8007B3879900902308
:102E600019E26FD0AFBE22852104D286CA851374C1
:102E7000F40FEFF09FF363F68A0009091379F90F55
:102E80000144850493F4F40FC9BFEFD28FBA130540
:102E90000032EF40E03C1305E00AEFF07FE401452B
:102EA000EFF01FE44145EFF0BFE313050004EFF03E
:102EB0003FE31305000BEFF0BFE213051008EFF03E
:102EC0003FE21305F00FEFF0BFE11305100AEFF03A
:102ED0003FE11305600AEFF0BFE01305800AEFF051
:102EE0003FE01305F003EFF0BFDF1305800CEFF0B8
:102EF0003FDF1305300DEFF0BFDE0145EFF05FDE81
:102F00001305500DEFF0DFDD13050008EFF05FDD76
:102F10001305800DEFF0DFDC1545EFF07FDC1305C6
:102F2000900DEFF0FFDB1305100FEFF07FDB1305C3
:102F3000A00DEFF0FFDA4945EFF09FDA1305B00D71
:102F4000EFF01FDA13050003EFF09FD91305D00847
:102F5000EFF01FD95145EFF0BFD81305F00AEFF09D
:102F60003FD86FD04FAF21C9EFD2AFAC0C412A840C
:102F70007D5585C183A701859384018589EF5C40D8
:102F800089C79C4399C3228582979C40014580C094
:102F90005CC46FD04FAC94432E86038706000305B4
:102FA000060019C36306A7006309E500DC47F9B70B
:102FB00085060506DDB77D5582807955D9BFEFD2EC
:102FC0004FA703A4018515C01840AA8683070700F0
:102FD0000386060099C3638DC700631EF6005C403C
:102FE00089C7DC4399C32285829722856FD0AFA61B
:102FF00005078506E1BF4044F9B719C95841FD5797
:1030000009CB184719C7EFD2CFA202976FD0AFA450
:10301000FD573E85828019C95841FD5709CB584755
:1030200019C7EFD20FA102976FD0EFA2FD573E85CF
:103030008280EFD20FA0B71600201387068823AA3C
:10304000E184B7170020938707C823A0F688B71735
:103050000020938707082320F740B71600208567D4
:10306000BA979386064823A0D780B7260020938678
:1030700006C894C3B72600209386060823A0F7C08D
:1030800023A0D7408967BA9737270020130707483E
:1030900037F5000023A0E78023A007C013060040F7
:1030A000A145130545E5EF70104C6FD0CF9AEFD2D4
:1030B0004F9893874185804311E837F50000130549
:1030C00005E3EF70505C22856FD0EF98184098C3ED
:1030D000DDBF0DC185C119CE91CEEFD28F950CC148
:1030E00052A176A1232405002316050039052120CD
:1030F0006FD06F968280230005008280EFD26F939D
:10310000411105441C216306F40000A141016FD068
:103110008F942AC67D243245F5B7230005008280AE
:10312000EFD22F91B73700209387078823A007009D
:1031300023A2070023A4070013858185EFF0BFFBBE
:103140006FD06F91EFD2EF8EAA8413858185EFF057
:10315000FFFAB73700201385818523A09788EFF009
:10316000DFFB6FD04F8FEFD2CF8CAA841385818580
:10317000EFF0DFF8B7370020138581852384978827
:10318000EFF0BFF96FD02F8D15C5EFD28F8A2A844B
:1031900013858185EFF09FF6B73500203146938582
:1031A00005882285EF70602E13858185EFF0FFF68C
:1031B0006FD06F8A8280EFD22F860D7113060010B8
:1031C00081458810EFD0EF8937F50000130545E8F9
:1031D000EF70704BB7F400008D46138604EB6C0063
:1031E000138541DCEF30B06A6355051237F50000F6
:1031F0001305C5EBEF703049138604EB93063010CE
:103200006C00138541DCEF309068B7F40000930642
:10321000C005138604EF6C00138541DCEF30F077B6
:103220006C00138541DCEF30706B938504EF8810E0
:10323000EF70D0598810EFD07FA5B739002037390B
:1032400000202A84B7340020138BC98A930AC98CC2
:10325000630B050EB7F50000938585F7EFD0FFA34C
:10326000B7F50000938545F82A8A2285EFD0FFA2A2
:10327000B7F50000AA89938505F92285EFD0FFA153
:103280002A89630D0A005285EFD0FFA101C9832569
:103290000A017D461385C488EF70D059638C0900FC
:1032A0004E85EFD05FA019C583A509017D465A85DB
:1032B000EF705058630D09004A85EFD0DF9E01C9B9
:1032C000832509011306F0035685EF70B056228559
:1032D000EFD0EFCE37F500001305C5F9EF70B03A27
:1032E00037F500009385C4881305C5FBEF70B02740
:1032F00037F50000DA851305C5FCEF70D02637F5E9
:103300000000D6851305C5FDEF70F02535616FC04F
:10331000FFF39306F00F90106C00138541DCEF3043
:10332000B05F9C12AA97AA846C00138541DC2380AD
:1033300007F0EF30B05A37F50000A685130505F504
:10334000EF707022C5BD37F500001305C5FEEF70A4
:103350009033B7F50000938505021385C488EF709C
:10336000F046B7F500009385C5021385C98AEF7052
:10337000F045B7F50000938585031305C98CEF7000
:10338000F04469B78A063696419A930706FC1CC139
:1033900023A007009107E31DF6FE2320B6FC8280E0
:1033A000938681869C221D47636CF7003737002087
:1033B000139627001307C7903297850708C39CA26E
:1033C000828003C681860DCAEFC2BFE613870186DD
:1033D0001C239386C1858507B3E7C70288421CA3D7
:1033E000373700201307C7908A07BA978C438CC2DF
:1033F000EFC01FDD6FC03FE6828083C781868DC32B
:10340000EFC23FE323800186B737002083A5C79032
:103410001385418623AEB184EFC09FDA6FC0BFE34E
:103420008280EFC21FE101118545054502CA02CC29
:10343000231E010002C602C8EFE04FF6B7070020C6
:1034400083A7872337470F0013070724B3D7E70263
:103450004C0837050040231B0100FD17FC82930731
:10346000703E3ECCEFE0EFFD9307C0027C868547BF
:103470005C87680085473EC8EFE02FD2054685454A
:1034800037050040EFE05F8C854537050040EFE0F1
:103490003F8A05616FC03FDC09CD01CE0CC150C130
:1034A00014C558C5232805005CA9A30A0500232CD0
:1034B000050082800DC9583985476306F70203A7C6
:1034C000C1865C45BA971CC983A60187938701878B
:1034D000368711E714CD88C385475CB98280E30D38
:1034E000A7FE184FFDB7828009C55C3999C3A30AAE
:1034F00005008280EFC2FFD31387C1861C439384EB
:10350000C186054985071CC303A4018719E06FC064
:103510009FD45C38639E27019C401848998F63C9EB
:1035200007005C2881EBA30A04005C4008448297F2
:10353000004CE9BF98405C44BA971CC8FDB7EFC285
:103540005FCF1387C18618431384C186B304A700D5
:103550001C40858F63C407006FC0FFCFEFF07FE68C
:10356000C5BF1841FD576307F700484105051335EE
:10357000150082800545828010419C41630EF60053
:103580005841D4410145630AD7006308D60033850A
:10359000E7403335A00082800145828093176501A2
:1035A000D987850793B717003E951375F53F110529
:1035B000828098411C41B98F1CC1D8415C41B98FB0
:1035C0005CC198451C45B98F1CC582801C4181EBAC
:1035D000584101E71C4593B717003E85828081471B
:1035E000EDBF1C41D18393F7077091CBEFC27FC42D
:1035F0001105EFF07FF8133515006FC0DFC50145E9
:10360000828011E182806304B5000841DDBF054579
:1036100082807C557849BE95998DB3F5F5023C4D75
:1036200063FDF500785193D735009D893E97854716
:10363000B395B7001C23DD8D0CA3014582809397C1
:1036400035002A8663C4070437071070130707C0C4
:103650001442B3C7B6007D8F15C793976601D9870B
:103660007D576381E70237071000B7070080130713
:1036700007C093C707C0758F3705F04FED8F498F8F
:10368000639BE70023200600054582803707008002
:10369000134707C075BF93D7450113F80770130789
:1036A000004001456310E80213D7A600A9811377F3
:1036B000F73F93F5F53F6367B700E207E187AA0795
:1036C000B6971CC28280EFC2DFB62A842E85EFF047
:1036D000FFEC1C403E9508C001456FC0DFB71C41A0
:1036E00085071CC101458280EFC2BFB13A8C3E8480
:1036F000338717013C55DC4F63EDE7007C552A8A80
:10370000AE8CB28BB68A428D4689638B071663698D
:10371000FC161305C0FA9DA263890C0483A70C0054
:10372000CA846395870583A44C0083A98C00A6995D
:10373000637D340363689402B389894063733901FC
:10374000CA8983A5CC00B30494404E86A6956A85A9
:10375000EF60B0534E9D4E9433093941E31E09FA90
:10376000014529AA818C63739900CA8483A70B0041
:10377000639B870383A54B0083A98B00AE99637479
:103780003403636EB400B389894063F33401A689BE
:1037900083A7CB00B305B4404E86BE954DBF818D47
:1037A00063F39500AE84636C590503258A065C4972
:1037B0003377F40229E76364F904B3F9F4025C4156
:1037C000EA862286E285B38D34416E878297635103
:1037D000A002B7F600003D669386462813068604CD
:1037E0009305000637F5000013050529EF60503BEF
:1037F00051E5B38499406E9D6E94269985B78327D1
:10380000CA0689CF636CFC00B7F600003D6693865C
:10381000462A130686049305C006E9B703258A06DF
:1038200023A08B015C494C4D3307FB00B376F402B7
:103830002297B377F7023306D44023A2CB001D8F23
:1038400063F3E5002E871C55818E369763F3E700FE
:103850003E875C4183A6CB0023A4EB00E2858297E0
:10386000635CA000B7F600003D6693864628130609
:10387000860493057007BDB7E30205EE6FC03F9C59
:10388000138BFAFFE1BDEFC2DF973E8D9C4901111A
:10389000B28C2A891305C5032E8AB68A3AC4C28B14
:1038A000C4453ECE93D9AC00EFF0BFD393F9F93FB6
:1038B00063090514638709148327C90313D7AA0072
:1038C0001377F73FA98393F7F73F6396E70079559E
:1038D00005616FC0DF96014463F4E700130400C084
:1038E000B707008093C7F7FF370C10003EC6130CD4
:1038F0000CC0B70D1040724B5A85EFF03FCA9307CA
:103900004500E3E6F4FC03270A00898C914813087C
:10391000C101A68791464A8681454A85EFF0DFDCE2
:103920006351A002B7F600003D6693864628130651
:10393000C6089305702E37F5000013050529EF60C2
:10394000302659F57245EF408002B2473345AB004F
:103950007D8D2ACE6380090493574B0113F70770BE
:10396000930600406318D70233878A401356A70096
:103970009356AB001376F63F93F6F63F636CD60092
:10398000337787013367B701E30367F5E207E18720
:10399000AA073E94B3878A40B3C76701B3F797017C
:1039A000B9FB93176B01D9877D57E382E7F29379CF
:1039B000FB3F63F33B01DE89A24703270A00CE8861
:1039C00091076A88A697CE864A8681454A85EFF098
:1039D000BFD1635CA000B7F600003D669386462821
:1039E0001306C60893054030B9B7E31305EE3386D6
:1039F0003B41814533053D01EFC0BF86330564017E
:103A0000C1BD0144F1BDEFC2DF82BA8713F8F63FB2
:103A10000147EFF05FE76FC01F84EFC29F81411144
:103A2000B706F07F32845800B1063706F07FEFF01A
:103A30009FFD63580500F9576309F50041016FC008
:103A40009F814C002285EFF0DFB60145C5BFEFC274
:103A50004FFE328710415C431843345641112A848B
:103A6000D44EA14813088100930506013285EFF07A
:103A7000BFC701E9930544002800EFF0FFAF3335DD
:103A8000A00041016FC02FFDEFC2AFFA3C552A8460
:103A9000DC5B81E74845EF6050193C549C5F81E74F
:103AA000484CEF6090183C54DC5F81E76850EF6051
:103AB000D01701456FC02FFAEFC2AFF77C5563E115
:103AC000F502B7F600003D669386861E1306C6070C
:103AD0009305501137F5000013050529EF60500CD0
:103AE00028555C458297635CA000B7F600003D66F0
:103AF000938646281306C60793057011E1BF6FC071
:103B00008FF5EFC20FF31C4113F7F73F1DE363D3AB
:103B10000504B7F600003D6685659386C6741306F6
:103B200046149385853237F5000013050529EF60AB
:103B300030079306E01F63FFE600635DB000B7F651
:103B400000003D6685659386467813064614938586
:103B50009532D1BFBE9593F7F53FB337F000860598
:103B6000FE078581DD8D0CC101456FC0CFEEEFC230
:103B70004FEC2E84105548449305F00FEFC06FEEC4
:103B8000FD571CC06FC02FEDEFC2AFEA9C512CD582
:103B90002A847CD5DC418DE3B7F600003D6685655F
:103BA0009386C67B1306C6129385350837F5000049
:103BB00013050529EF60C07E9C45AE8481EFB7F602
:103BC00000003D6685659386C67D1306C612938503
:103BD0005508E9BFDC4581EFB7F600003D66856515
:103BE0009386C67F1306C61293856508C1B79C49A4
:103BF00081EFB70601003D6685659386C681130691
:103C0000C612938575085DB7D44981EEB7060100E9
:103C10003D6685659386C6831306C6129385C508DF
:103C200071B7984D01EFB70601003D668565938633
:103C300086851306C6129385D5088DBF03A9850214
:103C4000631D0900B70601003D66856593864687BA
:103C50001306C6129385E50891BFB377D90281CFC9
:103C6000B70601003D668565938606891306C61270
:103C70009385250925BFB377E90281CFB7060100F7
:103C80003D6685659386068C1306C61293853509B5
:103C900031BFDC4D33F6270301CEB70601003D6688
:103CA00085659386068F1306C61293854509FDBD6B
:103CB0001306F007636DF600B70601003D668565E3
:103CC000938646921306C61293857509C5B5D051E1
:103CD00001EEB70601003D668565938606941306DE
:103CE000C6129385350AD9B5905921C293D51700CC
:103CF000637DB600B70601003D6685659386C6956F
:103D00001306C6129385A50A55B5FD55630FB60077
:103D100063FDC700B70601003D6685659386069B77
:103D20001306C6129385C50A51B5F04439CAB37655
:103D3000D60281CEB70601003D668565938606A151
:103D40001306C6129385150B95B53377E60201CF9E
:103D5000B70601003D668565938606A61306C61262
:103D60009385350BA1B5B3F7C70281CFB706010024
:103D70003D668565938606AB1306C6129385550B83
:103D800035B5DC5885CF5CC49C5CB9C35CCC26855A
:103D9000A285EFF0DFDD285493050401EFF03FDD4D
:103DA0002454C85405EDB70601003D668565938629
:103DB00006B01306C6129385350DCDBB4A85EF605C
:103DC000206648C471F12285EFF01FCC5155A9AA95
:103DD0004A85EF60E06448CC5DF9F5B7DC5C95C3DB
:103DE0007CD0BC401307F00F6372F702B7060100E6
:103DF0003D668565938606B21306C6129385F50D5A
:103E000075B3EF60E06168D069FD75BF85C33CD8CC
:103E1000FC4063DF0700B70601003D6685659386B9
:103E2000C6B31306C6129385550E49B338D8CDB71D
:103E300095C37CD8BC441307E03F6372F702B70612
:103E400001003D668565938606B61306C612938506
:103E5000B50EA9BBB707008093C7F7FFD9BF8DC3C5
:103E60003CDCF444D84C637FD700B70601003D66C4
:103E700085659386C6B71306C6129385150F3DB3A5
:103E800038DCC5B7BC487D566380C7069054637D57
:103E9000F600B70601003D6685659386C6BA13062F
:103EA000C6129385450F19B3305C637DF600B706E3
:103EB00001003D668565938646C01306C61293854C
:103EC000650FEDB11356370099C213D63600637DE6
:103ED000F600B70601003D668565938646C5130664
:103EE000C6129385A50FD9B17CDC7D566390C704BB
:103EF000232E0406FD571CD05CD023240402232665
:103F00000402232E04022320040423220404232871
:103F10000402232A0402232C04022324040423265B
:103F200004042328040401456FC0EFB2E1F79C5458
:103F3000305C0D8399C213D736006373F600B287E5
:103F40006373F700BA877CDC75B7EFC2EFAC032967
:103F5000C50184410145611963EB240333D5240372
:103F6000AE897D15EF30901C130425000A043384BC
:103F7000844033542403330989022285EF30101B17
:103F80000A05898C2285B384244123A099006FC03F
:103F9000EFABEFC28FA7AA89285541117D172E8B51
:103FA0004C00B28BB68C3E8AC28A3AC2EFF0FFF95F
:103FB000AA84094CE6855685029A29E5A1C413F91D
:103FC000140033042C419318240013088100814706
:103FD0006687C6865E86DA854E85EFF0EFF01DE1D6
:103FE0007D14634A85000A041C083E947919832CC9
:103FF00084FFCA94C1B7A2455685029AAA8705458F
:10400000EDD33E8541016FC0CFA3EFC20FA00111D8
:1040100032C63AC489EA7D5798C323200800014577
:1040200005616FC00FA22A892855FD16AE8A6C085B
:10403000C2893E8A36CEEFF05FF1AA840325890655
:104040002C00930B0002EFF05FF02A8B054C3247F7
:1040500063689B00A2472320EA0023A0F900C1B7B0
:10406000338564413AC2EF30E07E2A8433848B404A
:104070002685EF3010057D141247637385002A846E
:1040800091481308C1009317240091465686814534
:104090004A85EFF06FE549F533148C00818C45BFFC
:1040A000EFC2AF963709F8FFAA89AE8A328C3A8BF5
:1040B000BE84428DC68C795A938BF6FF130909C0D2
:1040C00063940C00014549A003270C008327CC0012
:1040D000631C470303274C0003248C003A9463F5C8
:1040E000840263E3E402058C63F38C006684338707
:1040F000E4406A852286B385E700EF600039229D9F
:10410000A294B38C8C406DBF03A6890623204C017A
:10411000544A10563388DB0033F7D4022698B3761E
:10412000D8023387E4402322EC003308D84063737D
:104130000601328823240C01DA864A86D6854E850C
:10414000EFF06FF4E35E05F66FC0AF8FEFC26F8BD9
:104150003E8BB737000071719387E7633EC6835C7F
:10416000010FB70710608314410F7E5C938707C06F
:104170002AC4AE8B36843A8AC289468902D802DACA
:10418000814A014D3EC8228532CAEFF02FC1524606
:1041900083A7CB00B30DC50063F0FD08224603A73B
:1041A0000B0091481308C102EE8791468145328584
:1041B000EFF08FD3631E05243255EF30407BB707F5
:1041C0000080298C5D8C83A70B0022D614183ED862
:1041D00093874D003EDA32563707F07FB347A6018A
:1041E000B3F73701F98FCDEB93D7A90093F7F73FDA
:1041F00063810716894763FC5703B7F600003D66E5
:1042000037F500009386464D1306060A9305203CB9
:1042100013050529EF60C018635A601F83270A0041
:1042200083264A007D1B3ED6210AB28D6DB79307C7
:10423000C0033387FA021C19EE55850ABA9723ACDE
:10424000D7FAC25623AE37F923A0A7FB23AED7FA7D
:10425000D256239227FB239397FB239497FA23A804
:1042600087FB23A477F923A6B7F923A887F823AA05
:1042700047F923AC67F923A6B7FA23AAC7FA23A004
:10428000D7FC130CC7023C183E9CB247014D814934
:10429000BEDD8144814C01496E86F5B513062010C0
:1042A0006392C7040147B25713F6F73FE376C7FEA0
:1042B000A9838C4693F7F73FA697AA07CD8F8C2248
:1042C000D042628593850530D205DD8DEE573ACC1C
:1042D00036CA8297634E0512D246B10655FD624733
:1042E0000507D1B7EE579395A4003686BA95628537
:1042F0008297634F05104DD1638C0A10FD1A930706
:10430000C003B387FA021819BA9703A7C7FA83AB99
:1043100087F883ADC7F8BADD03A747FB03A407F905
:1043200003AA47F903AB87F983A9C7F903AD07FAD5
:1043300003D947FA83DC67FA839487FA03AC07FB57
:104340003AD683A687FB03A7C7FB83A707FC3AD807
:104350003EDA93D7A90093F7F73F325789CB9357AB
:10436000A70093F7F73FE3E927F3E3F797F39357B2
:10437000470193F7F77F8DD313061010E390C7F230
:104380003ACEEE57324736CCE388E7F09307C003C6
:10439000B387FA0218191306C0038145850ABA9734
:1043A000138587F83ECAEFB0DFEBD2476E57E2467F
:1043B000239227FB23A6E7FA7247239497FA23A4B4
:1043C00077F91379F73F29831377F73F33072741AD
:1043D000BA94C20423A6B7F923A887F823AA47F9F9
:1043E00023AC67F923AE37F923A0A7FB239397FBF0
:1043F00023A887FB930C1900C184B68B370D0020CE
:10440000C249014B014A7D54814D79B50145EDB555
:104410004D616FB0DFE2EFB25FDF4111AA892E8AF2
:10442000B28A368BBA8B3E8C42890144A14C6364BC
:104430002401014581A0B304894063F39C00A14499
:10444000A68813088100B30774015A87B3868A408F
:10445000528681454E85EFF02FA909ED2686B305DA
:104460008C002800EF602000AA8701C9054563C3BE
:104470000700094541016FB0DFDC26944DBFEFB264
:104480005FDBAA8403A8840013F4F53F084163733B
:104490000401228858421442DC404286AA85EFF08B
:1044A0009FF701E99C4463868700054563E3870025
:1044B00009456FB05FDAEFB23FD62E848C41854755
:1044C00041111387250063F2E70A7C55368AB289C9
:1044D0002A8963E1F502B7F600003D669386061E61
:1044E000130646059305400B37F500001305052913
:1044F000EF50106B28550328840054441C4D504045
:104500003E987D18B377F8023308F8401C4542877F
:1045100042C68297AA843248635CA000B7F60000C6
:104520003D6693864628130646059305800B6DBFAE
:1045300001E9631B0A0003258906A285EFF02FE33A
:10454000268541016FB09FD0FD5723A0F900584048
:104550005C4414404286CE854A85EFF0DFEB634829
:10456000050071D99304C0FAE1BF8144D1BFAA8488
:10457000C1BFEFB29FC93E89F9572A8AAE84B28A79
:10458000368B3A8CC28CC6896304F7027C55636112
:10459000F702B7F600003D6693864620130606072D
:1045A0009305900E37F5000013050529EF50505F75
:1045B00003278A06B3073901FD5B584F637DF70671
:1045C000B7F600003D669386C623130606079305DB
:1045D000A00EC9BF9C406315FC06C8406362A906D3
:1045E00003278A0600572A94637C890433042441F4
:1045F00063F389004E84DC443305A940E6853E958B
:104600002286EF509068DC4098442299B307F94025
:10461000A29CB389894063F3E700BA8703278A061F
:104620009CC418576399E700DA865686A68552859A
:10463000EFF07FE801E5E39F09F801456FB07FC027
:10464000638C7701B7F600003D6693860626130655
:10465000060793057010B9B783278A0623A0840143
:104660009C4F23A40400B377F902B307F940DCC0E0
:10467000D9B7EFB27FBADC419841B68832882E8430
:10468000B289B6842A86814693050501EFF07FEE54
:104690002A8911E948442686CE85EF20F03554401A
:1046A00048C4A69654C04A856FB05FBAEFB2FFB552
:1046B00041112A8A32852E84B28B368BEFE01FEEB1
:1046C0005C4058481159AA976362F704AA840844C9
:1046D000939A1B0093DA1A0033C5AA00EF30202901
:1046E0002AC691467000A2855285EFF09FF82A896C
:1046F00011EDF114814963C80B04A6865A86A28580
:104700005285EFF01FF739E1232454014A85410116
:104710006FB03FB383274B0003270B008548130876
:10472000B100CE97B3863441528681455285EFE081
:10473000BFFB09ED85461306B100A2855285EFF057
:104740005FF309E58509E3E799FC7DBF2A897DBF11
:10475000EFB23FAEB2862E864C410841EFF01FF516
:104760006FB07FAFEFB2FFACFD571CC281462A8409
:10477000EFF07FD40DE528541C4982976351A002C5
:10478000B7F600003D6637F500009386462813060D
:1047900046069305E00D13050529EF5070406FB0F4
:1047A0009FABEFB29FA641112A8AAE8A328BB68B9D
:1047B0003A8C3E89C2890144A14C636624010145BB
:1047C00041016FB01FA8B304894063F39C00A1446A
:1047D000A68813088100B30784015E87B3068B4067
:1047E000568681455285EFE03FF079F903A509002F
:1047F00026862C00EF20502023A0A900269475BF08
:10480000EFB2BFA03455DC414111984ED44ED107D0
:10481000AA842E8463F3F600B6879309F7FFCE9738
:10482000B3F9E702370B1000814B814A130B0BC021
:10483000938C0401B3893741138CC9FE5C4063E853
:10484000370318481440FD573EC413088100B3874E
:10485000EA4013864A00A6852685EFF09FF4631D83
:104860000512A247638D77131305C0FA35A2338969
:10487000F94071191307E03F637427011309E03F02
:1048800091073E996375390163732C016289FD5765
:10489000DC8363643907BC54944FDC4F958F63EE1F
:1048A00027051840854813087100CA872686814568
:1048B0002685EFE07FE309C59307C0FA631EF50C78
:1048C000BC5414407D579C4F1308C1003AC63E8625
:1048D0004A87A68526853EC4EFF0BFEC09C593073D
:1048E000C0FA631BF50A370600603400130686C061
:1048F000A2852685EFF09FDB45E1034A71005C400D
:104900000844134A0A08135A7A00130A0A50B307D4
:10491000F940F117520A336AFA00336A6A013345E3
:10492000AA00EF30C0042AC4484411462C00EF20EE
:10493000B00C5C40184048C42AC6A1481308810046
:1049400081462686E6852685EFF0BFC231E563976E
:104950000A00832A4400832BC400910A9C833707F2
:1049600000802322240193C7F7FFE207F98F33CA9F
:104970004701FD57232444015CC463783901BC54CA
:10498000D8489C57BA97E36BF9EA2686E6852685D0
:10499000EFF05FDDE30405EA41016FB09F8A144048
:1049A00013088100914756871146A6852685EFF0AA
:1049B0005FDF7DF1A247EDD345BDEFB29F84032EAB
:1049C000C5065D71832E060063080E0063F2CE43B8
:1049D00003234600637EC34146CE42C63EC43ACC62
:1049E00036CA3289AE8B9148130801038147768716
:1049F00091462A8681452A8402D802DAEFE0DFCE8A
:104A0000AA8A09C59307C0FA631DF50A032749005E
:104A100091481308410381479146228681452285AA
:104A2000EFE09FCCAA8A55C19307C0FA631BF50833
:104A30008144939724003307F900184393C414006A
:104A40008A0423A0EB00269903270900FD5A23A618
:104A50000B0023A2EB009808BA9783A707FE7D5BA3
:104A6000370C008023A4FB0089473EC2B707100023
:104A7000938707C03EC8114693858B007D555ADC4D
:104A80005ADEEF2060772AD2D68C02C0814D814950
:104A90007D5D014A6A85EFE07FB0345403A70B00C7
:104AA0002A9AD44E914813088102D28722868145E2
:104AB0002285EFE07FC305C19307C0FA6300F526A6
:104AC000AA8A568561616FB08FF7D254C2579D8C08
:104AD000B3249000B9BF125511462C10EF20C071BD
:104AE0002AD22255EF20B0683349AD004AD463532F
:104AF000090493574D0193F70778938707B093B74D
:104B0000170003A7CB00631D07209C08A69703A7E7
:104B10000B0083A64B0083A707FE124623A0DB00F1
:104B200023A4FB0023A2EB0085476303F62A8547F5
:104B30003EC291B74A85EFE07FA63C54D04FB30701
:104B40004501636DF61C13574901137707789307E6
:104B5000005083A60B00130D4A006315F706368735
:104B60009148B2861308C102EA87228681452285D0
:104B7000EFE09FB731F1325792576311F71AA257FE
:104B800048541146D183FE074C103349F900EF20F9
:104B9000A06648D42255EFE07FA0E257529523A6A5
:104BA000AB0023ACFB00F25723A82B01239A3B0157
:104BB00023AEFB00A38BBB015AD2E687E68A4A8D5F
:104BC000BE8CC9BD9307C5FF130841026A87A28541
:104BD0002285EFF01FBDE31105EEA25713D7470161
:104BE00093160701C18213F606701DEEA98393F791
:104BF000F73F63E4370193891700A255E247524714
:104C0000AD8FF98FF9EFB247E1E3B7F600003D66EB
:104C100037F50000938646331306460B9305E050A4
:104C200013050529EF50C077930500406311B604C2
:104C3000C24662076187BA99B3F6DC003706F04FC7
:104C4000C209D18E93D909016395D700B3EC8C01C9
:104C50006DB7E3846CFBA98393D6AC0093F7F73F61
:104C600093F6F63FE3EBF6F82A07BA9C79B7930779
:104C700000606313F6023454937D170003A70B0002
:104C8000D44EA14813088103EA87228681452285F4
:104C9000EFE09FA53DD10DB593F6F67F9307F05F4A
:104CA000E39DF6F4345403A70B00A148D44E130837
:104CB0000104EA87228681452285EFE0FFA2E31DF9
:104CC00005DE85473EC015BF83A70B007245B000C7
:104CD000BEC4B247EAC68297E34005DEA25609E5A4
:104CE000B68CE687D68CD9BD37070080B3C796014E
:104CF000134707C0F98F8DC38947E314F5FE13D717
:104D0000AC0093D7A6001377F73F93F7F73FE36A1A
:104D1000F7FCB3EC8601F1B7FD5CE1B78147D5B391
:104D2000238B0B00A1C330541C4EB377F7029DEBCD
:104D300082478DCBFD573ED683A60B008647504E4B
:104D40001308C102A2852285EFF0BFA509C593070C
:104D5000C0FAE317F5D696473257998F93B71700E5
:104D6000238BFB00DE851305C403EFE09F8719CD7D
:104D70005C5C13D7AA001377F73FA98393F7F73F3B
:104D80006310F704B7070080B3EAFA00A24781CFA7
:104D900003D74B0193D7AA0093F7F73F6373F7004C
:104DA000BA8722471EA3E3DE0AD003D74B0113DEE6
:104DB000AA009377FE3FF95AE3E5E7D0814A11B3A1
:104DC000FD56E385DAFCE3F3E7FC938A0AC07DBF76
:104DD000B7E70000B7F5000037F500009387C71963
:104DE000130680569385052913058534EF50B07757
:104DF000930AC0FAF9B1EFB2CFC3814801488147A5
:104E00007D57FD56EFF07FBB6FB0EFC4EFB26FBFC1
:104E10001C51832C060001119CCD5C51DCCD038715
:104E20000C0055CBB707300037070020938A07C026
:104E30009307870036C432C22E84AA8437FA000052
:104E400037FB0000938B85013EC013DC4A01094704
:104E50006318EC00668593054A38EF60E01FAA9C52
:104E600093054A386685EF60601705472A89631AFB
:104E7000E50483C60C001307E00293891C006382DB
:104E8000E608B3892C014E87854D93054A383A854B
:104E90003AC6EF60601C324793054A38330DA700CD
:104EA0006A85EF60A0132A882DC18547631AF50231
:104EB00003460D009307E0026317F60433070D0164
:104EC000E9B70947E31FE5FA094693050B386685FC
:104ED000EF5060595DF5A95A568505616FB02FB640
:104EE00089476312F5022AC6094693050B386A857D
:104EF000EF506057324801E9FD1DE3910DFC930925
:104F00002D00CE8C99B7850D55BF03870C0069D74E
:104F10009247094723A097016313EC0693D7AA0091
:104F200093F7F73F1307F03F6381E7028246AA0732
:104F3000370610705E87DD8E130606C0A2852685B3
:104F4000EFE07FACAA8AE34905F8B7470000138871
:104F5000E747A247930841014A87B70600785E8673
:104F6000A285268526CA66CC4ACEEFF01FA5AA8A5E
:104F7000E34405F659F57C38E9FBF95AB1BFB15A5B
:104F8000A1BFEFB20FAB37F90000930549382A846F
:104F9000EF60C004AA84930549382295EF60C00BE6
:104FA0002295269503050500133515006FB0AFAAAD
:104FB000184D9C41D4416315F700504D6307D6024C
:104FC0006315D700544D6382D702D4459C4563993D
:104FD000D70098C1584D860723A40500D8C1DCC569
:104FE0009C45014585079CC58280EFB28FA4B7E63A
:104FF00000000566B7F50000370501009386C61965
:105000001306C61793850529130545E9EF50B055DA
:105010001305C0FA6FB02FA4EFB20FA0011185479E
:10502000AE8AB9653284232C06005CCE2A8A4146BA
:10503000938545C40808B70400203709F07FEF5076
:10504000C04493098401374B0000A1041309F93FC0
:105050004E85EFE00FD119C1795535A80C0822858E
:10506000EFF01FF56349050283A70A00930841008A
:105070001308EBA43EC483A74A002687CA863EC60F
:105080004E868147A285528552C2EFF01F93930747
:105090002500F59BD5DF05616FB04F9BEFB2CF9731
:1050A00041118547AE89B9653284232C06005CCE58
:1050B0002A894146938545C40A85EF50003D9304F3
:1050C00084012685EFE0EFC919C1795515A08A85BD
:1050D0002285EFF0FFED63400502CE852685EFE0E7
:1050E000AFC919C52686A2854A85EFF0DFD071D9F0
:1050F00041016FB0AF951305C0FADDBFEFB26F90FD
:10510000DC5903A9C50263FE270D3309F940AA8AB9
:105110002E84B28963F326013689CA8D130A0404EA
:10512000795B930BC403130C8403930C8400370D39
:10513000102063940D004A8515A81C581397C700CA
:105140006358070003A78A06545C584F639AE60227
:1051500093967700585863CD0600545410545E88D7
:10516000E287D2855685EFE05FEA11C56FB02F8DDB
:10517000232C640358DC1C5837070800D98F1CD82F
:1051800083A78A06D44F5C5CB384F64063F39D002A
:10519000EE84185813167700635C06025A20338693
:1051A00097002A073367A70163EFC602A6884E88D7
:1051B0005286E6855685EFE0BFEE4DF95C58A6991C
:1051C000B38D9D40A6975CD85C5CA6975CDC95B7D8
:1051D000185CA6884E88528681455685EFE0CFD070
:1051E000E9BF014561B71305C0FA49B7EFB2EF81D6
:1051F0003971AA842E89B289814571460810368B8F
:10520000EFB02F86B96585474146938545C40808A8
:10521000370A0020B70A10703EDE210AEF50E02660
:10522000938A0AC02818EFE0CFB301CD8054054A15
:10523000B70A0300370B0401B70B040045E0014532
:10524000BDA80C080810EFF0BFD66345050EE25567
:105250004E8502992DE5F2554E8502992DE13018C3
:105260000C102685EFF03FB939E90144930B20205B
:10527000130C0020F95C83574103E375F4FA93168D
:10528000A4003800B3E6460156860C102685EFE0F0
:105290008FF76358050063149503050442044180A9
:1052A000D9BF518163107503324765DBA2464E8832
:1052B000CA87268681452685EFE0BFCD79DD21614D
:1052C0006FA03FF8E30B0BFCE31985FDA2454E856B
:1052D000029975F5B2454E850299CDB77C2063845D
:1052E00047010040A1BF1C5833F757011DE31C586C
:1052F000B377FB00E39777FF585865D7145C4E8867
:10530000CA872686930504042685EFE09FC871D9D5
:105310007DB713977700E34C07FC585469DB1454AE
:105320004E88CA872686930504042685EFE07FC64B
:105330005DDD71B71305C0FA59B7EFA29FEF784D45
:105340007C49232E05042A84BA977855B3F7E702DF
:1053500038517CC93C55D057931736006373F7001A
:10536000BA87685081453CCCEFA0BFEFB73500004D
:1053700085462286938525612285EFF03FE719C592
:105380007C54232C0404232E04043CD06FA0BFECD7
:10539000EFA23FEA41112A84384C744C63EDE602D7
:1053A0003C50C9E77C4837E70000B7F50000BE96DF
:1053B0007C5437F500001307C719B3F6F60213063D
:1053C000002C938505291305451BEF50D019115565
:1053D00041016FA05FE8705093D7360013F5760057
:1053E000B2979C23B3D7A700858B9DEB7C48BE96D4
:1053F0007C54B3F6F60294C1344C7C4C385085078B
:105400007D177CCC38D063FBD70013D73700329799
:1054100018239D8BB357F700858BE5F301454DBFEE
:105420003C50850674CCFD173CD085BF22852EC626
:10543000EFF0BFF0B2452DD161BFEFA29FDF2E8408
:1054400091052A89EFF0DFF4AA842DE1A2854A852F
:10545000EFF01FF4AA8439E918402324040091488E
:1054600013088400814791464A8681454A85EFE0CA
:10547000AFA709C59307C0FA631DF5028327890604
:10548000DC53635DF0001844850793E717007D1730
:105490003E97B377F702B307F7401CC491475CC44B
:1054A000FD571CC8232A04001CCC5CCC26856FA0A9
:1054B0009FDAAA84E5BFEFA25FD541112A84AE84AA
:1054C000138A0504938A8500130B05016C0022855D
:1054D000EFF01FECAA8919E9B2452285EFE0CFDD94
:1054E000AA8969C19307C0FA6302F50C4E85410190
:1054F0006FA03FD59C58B386264113977700635819
:1055000007043054DA2093071900504E2A073367F6
:1055100077016366F60885481308B100CA8752868A
:10552000D6852285EFE0DFB70DE1324785481308C5
:10553000B100CA8785462286DA852285EFF06F831F
:1055400015C19307C0FA6303F506AA8945B7985CAD
:1055500085481308B100CA872286D2852285EFE0EC
:10556000AF98D9B70509D45CE366D9F83C544C4CE4
:10557000E8449057EF4070711C482854930504018B
:10558000BCC05C48FCC01C4CBCC4EFE04FDEB24762
:10559000370704009CDC9C58D98F9CD881BF130529
:1055A000C0FA65B70149B70B102075BFB24637E79F
:1055B00000000566B7F5000037F500001307C719AE
:1055C000130636D0938505291305C557EF50A079EA
:1055D000FD571CC8E5BDEFA25FC3BE893C55BA8B21
:1055E0009845DC531D712A84AE84B28A368B428A78
:1055F00005076340F00698C50149014C3854FD5732
:10560000CC40BEC8BECA7C47AEC482C682CCBDC731
:10561000E1172285BECEEFE02FCA3DC19307C0FA45
:105620006311F51AFD571CC86313091AD44037E7F4
:1056300000000566B7F5000037F500001307C7192D
:1056400013065683938505291305C557EF50A0719E
:10565000BDAA850793E71700B377F70298C5C9FF7E
:1056600085474C10268502D23ED4EFD0FFF0631D53
:105670000514054959B70149054C49B75C4F49BF65
:10568000930C8104914613868400E6852285EFE021
:105690005FFE49F57C103EC6B7470000938707754B
:1056A0003EC4B3073041C207C187370810403EC22D
:1056B00052C0CE88130808C0DA875687FD560146C7
:1056C000DE85228522D666D8EFE05FA821F9938691
:1056D0008401368536CEEFD0DFE8F24619EDFC388E
:1056E00037061000130686C093870760D2075D8EC9
:1056F000E6852285EFE09FFB15F102DE82C082C2C3
:10570000631C0C009305C4036818EFD09FEA93054F
:1057100004036818EFD0FFE9930584046818EFD0FC
:105720005FE9F2577018A68593F707C022853EDE21
:10573000EFE0AFAE59E56818EFD05FE901ED37064D
:10574000008074181346C6C0E6852285EFE01FF678
:10575000E31605ECE6852285EFF08F8AE31005EC71
:105760003C5436479C4FB377F7028DC3B7F6000021
:105770003D66856537F500009386462D1306860C39
:105780009385358213050529EF4090419C40D44014
:10579000B3093A41DCC0C64794C0239A3401D8C447
:1057A0009CC8232404042326040423280404631926
:1057B0000C003146930504031305C403EF40F04C7D
:1057C000628525616FA0FFA7FD571CC80549854765
:1057D0004C18268502DA3EDCEFD01FDA0DE5D44006
:1057E00037E700000566B7F5000037F5000013073E
:1057F000C7191306B683938505291305C52FEF50E6
:10580000805611557DBF938544002285EFF05FB827
:10581000E30305E69157E316F5FAE30409FA4A8C27
:105820000149E9BBEFA25F9F79712E840C08AA841D
:1058300032C636C43AC2BE8A42C0EFF01FC02A89BF
:1058400039E57C3802481247A303F1021C4CA246FA
:1058500032463ED45C4C0C0826853ED6D687EFF007
:105860009FD7634A0502424AD2498547232C440107
:10587000232E34017CB8938504022285EFD0DFCF3C
:1058800019E563960A0023A0440323A234034A8542
:1058900045616FA0BF9B2A89DDBFEFA29F9941118F
:1058A000B7350000814670009385E56D02C6EFF0C4
:1058B000FF9311E1324541016FA0FF99EFA27F9460
:1058C0002A8913153700328B5D71AE84B6893A8A06
:1058D00036863695014813031040130EF04F930E91
:1058E0000060DA28631FC512631D0818FC28639D39
:1058F000071C83DB4401FD57373C0000B70C104008
:105900002328F900054D930D8103130C6C6C938CC7
:105910000CC0814A33835B41636D6D2E63870A043B
:10592000C20A93DA0A015E88D6872687D2864E8617
:10593000A6854A85EFF01FEF2A84630A052C91574C
:10594000631EF50CD8409440B7E700000566B7F534
:10595000000037F500009387C7191306F688938572
:10596000052913058544EF50004083278906DC5341
:10597000635CF0089844850793E717000507B37741
:10598000F702D9E385472C18268502DC3EDEEFD0EE
:10599000BFBE3DE94A85EFF05FF02A84634D0510F4
:1059A0008327C9063384A7408D8363FF870494440B
:1059B000B7EC0000056CB7FA000037F5000013875C
:1059C000CC1913064C8A93850A2913058547EF5095
:1059D00080395E8881472687D2864E86A6854A858D
:1059E000EFF05FE42A84630F052891576318F502EE
:1059F00037F500009386CC191306EC8A93850A29A3
:105A00001305854AEF5020365E8881472687D28667
:105A10004E86A6854A85EFF01FBC2A84635F041A70
:105A200059A81442D18293950601C18193F8F57F5C
:105A3000639668000507DAA8210665B56397C80371
:105A40000DE3B7F600003D668565938606431306B1
:105A5000860D9385758C37F5000013050529EF40F9
:105A600030147D17DAA80548C1BF93F50570E3959A
:105A7000D5FD5842858A0C438CCC5843F4B8D8CC19
:105A800065BFE31507E681EFB7F600003D66856563
:105A9000938606441306860D9385458D6DBF3E861D
:105AA000A6854A853ECCEFF06FDF2A84E24701C924
:105AB000F957E30DF5E2228561616FA04FF8FC3BD9
:105AC000E38607E2094411AADA289307E00FE3E22C
:105AD000E7E29C4003278906D0443EDC9448FD570A
