:040000006F00207DF0
:1000040000000000000000000A0300000C030000D0
:1000140000000000D0070000000000000000000005
:10002400D0070000D007000000000000000000001E
:10003400D007000000000000D0070000000000000E
:10004400D0070000D0070000D0070000D007000050
:10005400D0070000D0070000D0070000D007000040
:10006400D0070000D0070000D0070000D007000030
:10007400D0070000D0070000D0070000D007000020
:10008400D0070000D0070000D0070000D007000010
:10009400D0070000D0070000D0070000D007000000
:1000A400D0070000D0070000D0070000D0070000F0
:1000B400D0070000D0070000D0070000D0070000E0
:1000C400D0070000D0070000D0070000D0070000D0
:1000D400D0070000D0070000D0070000D0070000C0
:1000E400D0070000D0070000D0070000D0070000B0
:1000F400D0070000D0070000D0070000D0070000A0
:1001040000000000D0070000D0070000D007000066
:10011400D0070000D0070000D0070000D00700007F
:10012400D0070000D0070000D0070000D00700006F
:10013400D0070000D0070000D0070000D00700005F
:10014400D0070000D0070000D0070000D00700004F
:10015400D0070000D0070000D0070000D00700003F
:10016400D0070000D0070000D0070000D00700002F
:10017400D0070000D0070000D0070000D00700001F
:10018400D0070000D0070000D0070000D00700000F
:10019400D0070000D0070000D0070000D0070000FF
:1001A400000000000000000000000000000000004B
:0C01B4000000000000000000000000003F
:1001C000397106C022C226C44AC64EC852CA56CC8D
:1001D0005ACE5ED062D266D46AD66ED8232025006D
:1001E00003A1050082401244A2443249C249524A46
:1001F000E24A724B825B125CA25C325DC25D21619D
:100200008280397101436EC619A0397141536AC8A1
:1002100066CA62CC5ECE19A0397101535AD056D24B
:1002200052D44ED64AD826DA22DC06DE33016140AB
:10023000828241114AC026C222C406C68282B24DC1
:100240004101024D924C224CB24B4101024B924A69
:10025000224AB2494101024992442244B24041013A
:1002600082803D432A876373C3029377F700BDEF13
:10027000ADE5937606FF3D8ABA960CC34CC30CC716
:100280004CC74107E36BD7FE11E28280B306C3403F
:100290008A069702000096966780A6002307B7009B
:1002A000A306B7002306B700A305B7002305B700D0
:1002B000A304B7002304B700A303B7002303B700C8
:1002C000A302B7002302B700A301B7002301B700C0
:1002D000A300B7002300B700828093F5F50F939633
:1002E0008500D58D93960501D58D61B7939627002E
:1002F0009702000096968682E78086FA9680C1175C
:100300001D8F3E96E374C3F8A5B701A0B707EFBEF3
:1003100037E700E0938707083CC701A0EFF27FF1C1
:100320000564130444CEB75400002D45EF0050304F
:1003300033068502AA85138504213186EF30B0414A
:100340001305401FEF007052EF009049F9BFEFF224
:10035000DFEBB757000083A40724268B9569B75BB2
:100360000000375C0000938701828043A6852285C8
:10037000EF306003635EA002138A418283470A0064
:1003800085EB854513858918EF00103085472300DC
:10039000FA002285EF300074AA8513054C24EF3053
:1003A000903B1305800CEF00504CEF00704365BF8D
:1003B000DA852285EF308007E345A0FE138A41826B
:1003C00003470A008547E31EF7FC8145138589181A
:1003D000EF00902B228523000A00EF30A06FAA8542
:1003E00013850B286DBF51C58567FD176308F50898
:1003F000EFF23FE4EF309000B75700002A84AA855F
:1004000003A50716EF308034AA852285EF20904E91
:100410003754000083254416EF30000A8325441624
:10042000EF20504DEF30700AEF001053B757000027
:1004300003A6071783A64717EF208001B7570000D0
:1004400003A6871783A6C717EF10C020B757000071
:100450002A86AE8603A5071883A54718EF109012C9
:10046000EF307011B757000083A58716EF30002ECC
:10047000DDB3B757000003A587158280B75700008A
:1004800003A5C7158280EFF23FD9B757000083A9B3
:10049000871D4111B75400003145EF0070192AC67D
:1004A00099379387018288C32A84EF30A0622A8912
:1004B000EF306068AA852285EF304029CE85EF2095
:1004C000B07FEF302061B2461356F541318D3306CF
:1004D000C540CA851385C41DEF30F0271305401FA2
:1004E000EF00B038EF00D02F45BFEFF29FD4552A70
:1004F000EF001035716513050520EF00703A375590
:1005000000001305851AEF305036EF009006156590
:100510001305C519EF00700F15651305C52BEF0006
:10052000D00E156513058518EF00F017EF00D01AEF
:10053000EF005022B70500002A869306001093852D
:10054000654813858182EF00D025EF00B020B70504
:1005500000002A86930600109385C5311385C18259
:10056000EF003024EF00101FB70500002A86930625
:1005700000109385E53413850183EF0090221385E5
:100580008182EF00D0231385C182EF0050231385B1
:100590000183EF00D022375500001305851BEF3093
:1005A000D02CEF00702701A0B71702409843B70680
:1005B000FFF041111367170098C3D84337060200B4
:1005C000758FD8C39843B706F7FEFD16758F98C38D
:1005D0009843B706FCFFFD16758F98C3D843B7063E
:1005E00001FFFD16758FD8C39843B70600ECFD16C2
:1005F000758F98C33707FF0098C723A6070202C468
:1006000002C69843C166558F98C3B7160240056766
:100610009C42F18F3EC6A24785073EC4B24781E7A0
:10062000A247E397E7FEB71702409C431397E70002
:100630006357070685473EC632478547631FF70461
:10064000B7170240D843B706C1FFFD16D8C3D84339
:10065000D8C3D84313670740D8C3D843758FD8C3CE
:10066000D843B7062900558FD8C39843B706000171
:10067000558F98C3984393166700E3DD06FED84371
:10068000B7160240719BD8C3D84313672700D8C35D
:100690002147DC42B18BE39EE7FE4101828002C626
:1006A00061BFB7160240D842B70700201146318B10
:1006B000938707086305C70021466308C7023717F9
:1006C0007A001307072098C3371702405843118355
:1006D0009376F70037070020130707003697142397
:1006E00098433357D70098C38280D842D44241669A
:1006F00049833D8BF18E1306270015CF3D47630FCD
:10070000E6024147630FE602454781456313E60071
:100710004146A1E23747024003270780418B0DC7BE
:1007200037177A00130707203306C70290C3C9DDC5
:100730009843058349BF81454946E1BF8545354614
:10074000C9BF81453D46F1B737173D0013070790F4
:10075000E1BF3715024058559316F700585563DF2F
:10076000060411833D8B9306170037177A00130791
:1007700007203357D70298C35455A182BD8A8DE212
:1007800095463307D702058398C337170240585759
:1007900094433D8B050733D7E60298C3984369B766
:1007A00005456394A600E546E9BF3D456396A6006E
:1007B000D1463387E602C9BF8906E5BF3D8B930664
:1007C000170037177A00130707203357D702F1B7FE
:1007D00001A0970100209381E10A178100201301F5
:1007E000618217550000130525ED970500209385BC
:1007F00065811386818163FAC5008322050023A0E9
:10080000550011059105E3EAC5FE13850182972580
:1008100000209385658F6377B500232005001105BF
:10082000E36DB5FEFD42739002BCAD427390428011
:10083000B7620000938282087390023097F2FFFF44
:100840009382827C93E2320073905230EFF0DFD5D6
:10085000970200009382A2C9739012347300203073
:10086000EFF23F9DB727014093870740631BF500D8
:1008700085451305002029298145130500200929F4
:10088000D9BAB737014093870780E31BF5FE85454A
:1008900013050040F52E814513050040CDB75C419E
:1008A0003707F1E01307F7EF944D7D8F9C41D58F0B
:1008B000D44DD58FD441A206D58FD98F5CC11C45AC
:1008C00037F7F1FF1307D77FD4457D8F9C49D58F2C
:1008D00094458606D58FD98F1CC55C55370710FF08
:1008E0007D177D8FDC29FD1793F7F70FD207D98F7E
:1008F0005CD582801C4589C593E717001CC58280A2
:10090000F99BEDBF1C4593E787001CC58280084515
:100910000D81058982801C4593E747001CC58280B4
:1009200008450981058982801C4591C5370750001B
:10093000D98F1CC582803707B0FF7D17F98FD5BFCF
:10094000A54763F7B7048D47138765FF3307F702A1
:100950000328C5009D47B397E70093C7F7FFB3F798
:100960000701B396E600DD8E54C5994763E3C704DB
:1009700095477D163306F6025859FD47B397C700D1
:1009800093C7F7FFF98F3396C5005D8E50D98280EB
:100990000D473387E502032805019D47B397E7001C
:1009A00093C7F7FFB3F70701B396E600DD8E14C9CE
:1009B0006DBFB14763E2C702954765163306F6027D
:1009C0001859FD47B397C70093C7F7FFF98F3396C0
:1009D000C5005D8E10D9828095474D163306F6020C
:1009E0005855FD47B397C70093C7F7FFF98FB395E5
:1009F000C500DD8D4CD582806845420541818280ED
:100A000008416D8D3335A00082805C4191C5370768
:100A10000004D98F5CC18280370700FC7D17F98FF5
:100A2000D5BF9C4513F7070113F8F70001C7D8415C
:100A30003368E8008E2113F7F50F39C3184181465A
:100A4000854E3D4F930F800293028004214E3396D2
:100A5000DE00B3F8C5006311160393982600331324
:100A60001F011343F3FF3377E300B318180133E793
:100A7000E800639FF70550C98506E39AC6FD18C1D3
:100A80001307F00F6375B70454412146854E3D4F5F
:100A9000930F800293028004414EB398CE0033F747
:100AA00015016392E8021317260001173313EF00B4
:100AB0001343F3FFB376D3003317E800D98E639D59
:100AC000F701232A15010506E319C6FD54C18280EA
:100AD000E39457FA10C94DB7E39757FE2328150141
:100AE000DDB70CC982804CC98280B7160240DC4257
:100AF00051777D17F98F5D8DC8C28280371702400C
:100B00005C439146B18B6385D700A1466382D706CB
:100B1000B7177A00938707201CC1371602405C4242
:100B200037070020130707019183BD8BBA979423E1
:100B30001C41B3D7D7005CC15442A1829D8ABA96AA
:100B40009422B3D6D70014C55442AD829D8A3697FD
:100B50001823B3D7E7005CC5584239839376370032
:100B60001387418036971823B3D7E7021CC98280C8
:100B70005C435843C166C983758FB7F6FF1F83A6D0
:100B8000C670BD8B89071396160163480600C546DB
:100B900001466392D702C94739A88946638FD702B5
:100BA000BD46638ED702C146638ED702C546014655
:100BB0006393D700C1471DEF3747024003270780E3
:100BC000418B05C737177A0013070720B307F702D1
:100BD0001CC121D61C41858381B701466DBF0546E6
:100BE000B547D1BF0146BD47F9B737173D001307D9
:100BF0000790E9BFB7150240D8559316F700D855AE
:100C000063DF060411833D8B9306170037177A00C4
:100C1000130707203357D70218C1D455A182BD8AC4
:100C20008DE295463307D702058318C13717024076
:100C3000585714413D8B050733D7E60218C11841B8
:100C400071B785456394B600E546E9BFBD45639637
:100C5000B600D1463387E602C9BF8906E5BF3D8BA2
:100C60009306170037177A00130707203357D70268
:100C7000F1B799C5371702401C4F5D8D08CF8280B0
:100C8000B7170240984F1345F5FF798D88CF8280C2
:100C900099C5371702405C475D8D48C78280B717FA
:100CA0000240D8471345F5FF798DC8C78280EFF21F
:100CB0004FD81A29F577FD17F98FFA2179712A840F
:100CC000D98F1EA99A25DE2156252EC6D98FBA2581
:100CD000D98F7D771307379F758FD98F5EA55E29D2
:100CE000DA25C207C18393F7F7CFD98F5EA96808C9
:100CF0003135B747014093870780B2456311F4044B
:100D0000A2576547B387E7029841130640060A07D2
:100D1000B3D7E702B3D6C702B3F7C7029206139759
:100D20004700930727031307F063637CF70093875B
:100D30000601C207C1831EA445616FF0CFD192574F
:100D4000C9B7B3D7C702D58FEDB791C55E2509677F
:100D5000D98F5EA582805A25F977FD17F98FD5BF07
:100D600093F5F51F4EA182800A216D8D3335A000C9
:100D70008280EFF20FCC01111306000281450A8533
:100D8000EFF02FCE13854183C52A8545130500203A
:100D9000CD35316537240140893B13050440C93402
:100DA000B7070E003EC68A85854713050440230A0F
:100DB000F10002C002C202C402C8D5348545130541
:100DC00004400D3E81451305044081311305044064
:100DD000153E9304044026851D3E75FD1305044011
:100DE000372401400D3E930404402685153E75FDD1
:100DF0008545130504401139375500001305852C2E
:100E0000EF30A02605616FF00FC5EFF28FC22A8484
:100E100008414111854502C202C402C6993D1E2403
:100E200048404C007C8202C6ED3E41016FF0AFC2EB
:100E3000EFF28FBE2A8A3724014013854183812235
:100E40002949814413040440D28522859D460546E4
:100E5000C53C85452285C93C8945228555366DDDD1
:100E60002285593E7D19AA941379F90F1545F52A63
:100E7000E31C09FC138541831522294533D5A402BF
:100E8000420541816FF08FBCEFF2AFBAAA879A2773
:100E90009C2B48416396B700BA85A1316FF0AFBB78
:100EA000BA859131E5BFEFF2CFB82A8408414111EC
:100EB000854502C202C402C66D3B1E2448404C0058
:100EC0007C825C443EC68D473EC4A13E814522855E
:100ED000653F41016FF02FB8EFF2AFB5B7060020C4
:100EE0001387060E23ACE182B70700209387074ED5
:100EF00023A0F60EB71700209387078E2320F74014
:100F0000B71600208567BA97938606CE23A0D780B0
:100F1000B71600209386064E94C3B726002093860A
:100F2000068E23A0F7C023A0D7408967BA9737273A
:100F30000020130707CE3755000023A0E78023A029
:100F400007C013060040A14513054531EF30A0004E
:100F50006FF06FB0EFF2EFAD93878183804311E8BC
:100F6000375500001305052FEF30201022856FF054
:100F70008FAE184098C3DDBF230005008280EFF2DA
:100F80004FAB411105441C216306F40000A141014F
:100F90006FF06FAC2AC6A9203245F5B723000500D3
:100FA00082808A063696419A930706FC1CC123A0CC
:100FB00007009107E31DF6FE2320B6FC828093868E
:100FC00081849C221D47636CF7003727002013960D
:100FD00027001307070E3297850708C39CA282805B
:100FE00003C681840DCAEFF2CFA4138701841C23AA
:100FF0009386C1838507B3E7C70288421CA33727BE
:1010000000201307070E8A07BA978C438CC2EFF0B3
:101010002F9B6FF04FA4828083C781848DC3EFF232
:101020004FA123800184B727002083A5070E1385D5
:10103000418423AEB182EFF0AF986FF0CFA18280F0
:10104000B707002083A7070837177A001307072080
:10105000B3D7E70293F7F70F2386F1841307803E97
:10106000B387E7022395F1848280B7F700E0D84385
:101070008146799BD8C303D7A1843306A70290CBBE
:10108000D4CB98431367070198C39843136717029B
:1010900098C3D843058B75DF9843799B98C38280AA
:1010A000EFF22F992A841165011185451105D1367A
:1010B000930700207C82371501408D473EC44C00C9
:1010C000E147130505803EC6EFF0BF9522C83744BF
:1010D0000140B70708000C08130504803ECC02CA83
:1010E000231E0100E936854513050480B9390561E1
:1010F0006FF06F96EFF24F92B7440140AE8932899C
:10110000014493840480634524014A856FF00F9461
:10111000930500042685893965DDB38789008385B9
:10112000070026850504C205C1811D39E9BF138763
:1011300081801C43B7260020938646103E95636B42
:10114000D500B78600209386068063E5A60008C315
:101150003E858280FD57EDBF5D71A2C4A6C2CAC0A4
:1011600052DE56DC86C62A84AE8401229387C18073
:1011700003A90700FD572A8AAE8A630DF906228665
:10118000A6862285A685EF10106C2DE501468146C6
:101190002285A685EF10E020634EA004974700004B
:1011A0009387C71B3EC602D422C826CA22CC26CEAD
:1011B000630C090497470000938747199843DC4361
:1011C000014681462285A6853AD03ED2EF10C01650
:1011D00051E189473EC4631BF906EF20505793073E
:1011E00020021CC1A257B1CFEF207056A257025A5D
:1011F000925A1CC1B64026445285D685964406496B
:10120000725AE25A6161828097470000938787147F
:101210009843DC43014681462285A6853AD03ED2DA
:10122000EF10801115C185473EC42800192905C952
:10123000174500001305C5FD39212AD02ED2A2572B
:10124000C5F7025A925A7DB789473EC42800D52E69
:101250007DF561B785473EC48947E318F9FCEF2067
:10126000104F930710021CC1E1B75D7186C6A2C47E
:10127000A6C2CAC04EDE52DC56DA5AD85ED662D456
:1012800066D26AD06ECE370810002E87AA8663DE3B
:101290000513939715008583C98F6381072C63CB52
:1012A0000534974700009387670C9043D443EF10B1
:1012B000201AAE873706F07FAA862E871305A0FC7A
:1012C00063DBC710370610001309F6FF3767090004
:1012D000B3FC2701130747F66697718FB685370869
:1012E000F03F974600009386E6E9334807019042B5
:1012F000D187D44233689801938717C0AA97518742
:101300002E85C285330CF700EF10006093872C0008
:10131000B3F7270109472A84AE846342F70E0146DA
:101320008146EF106001630605249747000093870C
:1013300067059043D4432285A685EF106011974737
:1013400000009387A7042A86AE868843CC43EF101B
:10135000A05B2A89AE892286A6862285A685EF1003
:10136000200F2A86AE864A85CE85EF10600E2A8928
:10137000AE89630A0C266285EF10B05097470000D3
:10138000938747FF9043D4432A8BAE8BEF10400CDA
:1013900097470000938787FE9043D4432A8AAE8AFA
:1013A0005A85DE85EF10C00A2A86AE864A85CE852C
:1013B000EF1080552286A686EF1000552A86AE864D
:1013C0005285D685EF10405421A8AE873706F07FAE
:1013D0000145E3C9C7EE36853686BA85BA869D2CA7
:1013E000B640264496440649F259625AD25A425BA4
:1013F000B25B225C925C025DF24D61618280974734
:101400000000938727F99043D443A9242A86AE8607
:101410002285A685EF0010172A8A6285AE8AEF1012
:1014200050465286D6862A8BAE8B5285D685EF10D3
:10143000200237F7F9FF130767B866972A86AE864A
:101440003AC62A8DAE8DEF10A00097470000938713
:10145000E7F49043D4432A89AE89EF00707F974721
:101460000000938727F49043D443ED224A86CE862A
:10147000EF00107E97470000938747F39043D443D3
:10148000D12A4A86CE86EF00B07C9747000093872A
:1014900067F29043D4437D2A6A86EE86EF00507B44
:1014A00097470000938787F19043D4432A8DAE8DF0
:1014B0004A85CE85EF00D07997470000938787F063
:1014C0009043D443412A4A86CE86EF0070789747EE
:1014D00000009387A7EF9043D443AD2A4A86CE8677
:1014E000EF0010772A86AE866A85EE85A522B7C7FB
:1014F0000600324793871785B38C9741B3ECEC0015
:101500002A89AE89635A900B97470000938707E8B2
:101510009043D4432285A685EF0090732286A68649
:10152000EF0010732A86AE862A8DAE8D4A85CE8551
:1015300015225286D686EF00B0712A89AE896314CF
:101540000C0C2A86AE866A85EE85EF10E03B2A8673
:10155000AE862285A685EF10203B59B5974700003F
:10156000938747E08843CC4301468146EF009001D2
:1015700085BD01458145E3050CE66285EF107030BD
:1015800097470000938707DF9043D4432A89AE89A9
:10159000EF00106C97470000938747DE9043D443D9
:1015A0002A84AE844A85CE85EF00906A2A86AE866C
:1015B0002285A68545202DB52A86AE862285A6855C
:1015C000EF1080345286D686EF0090682A89AE8963
:1015D000630B0C00974700009387C7D99043D4430F
:1015E0005A85DE8565B34A86CE862285A685EF10AC
:1015F000A031FDB32A86AE86EF1000310146814648
:10160000EF004078F1BB974700009387A7D690433F
:10161000D4435A85DE85EF00B06397470000938777
:10162000E7D59043D4432A8AAE8A5A85DE85EF00F7
:1016300030624A86CE8639282A86AE866A85EE854D
:1016400085BB01458280974700009387A7D88843D0
:10165000CC4382803708100001117D183377B80021
:1016600026CA3378D80093D4450113D34601131EFC
:1016700037004EC61357D5010E089357D60193F481
:10168000F47F1373F37F06CE22CC4AC893D9F501B9
:1016900093DEF6013367C701131F350033E80701F6
:1016A000931F3600338E64406380D9196356C0138C
:1016B0006304031CB70680009307F07F3368D800EB
:1016C000638FF4369307800363C0C735FD4763CD4E
:1016D000C747130500023305C541B3D7CF01B31681
:1016E000A8003399AF00DD8E33392001B357C8010C
:1016F00033E926011D8F33092F41B3372F013306FC
:10170000F7409317860063D40724370780007D17BE
:101710003374E600630C042C2285EF20607C1307F1
:1017200085FF93070002998FB357F9003316E40041
:10173000D18F3319E9006341972A33059740130687
:1017400015007D47634DC73813070002118FB3564C
:10175000C9003319E9003397E700558F3339200169
:101760003369270133D6C70081449377790081CF4D
:101770001377F90091476308F700130749003339DD
:1017800027014A963A899317860063D6071C13856A
:1017900014009307F07FCE856304F520B70780FF20
:1017A000FD17F18F9398D70113593900A607B3E8B5
:1017B0002801B1831375F57F9396C7005205F24057
:1017C0006244B182FE05C98ECD8ED2444249B249EF
:1017D0004685B68505618280631E0E0A1383140058
:1017E0001373E37F63170322B367E701B368F8015C
:1017F000639D041A63870740638608443309FF41E9
:10180000B307074133362F013386C740931786004D
:1018100063D6074C3389EF41B307E84033B62F0155
:101820003386C740F68991B76350C00F6300030C3D
:10183000B70680009307F07F3368D800638AF43AD4
:101840009307800363CBC713FD4763DFC7351309D5
:101850000EFE93070002B3562801630AFE00130927
:1018600000043309C94133192801B3EF2F0133397B
:10187000F0013369D90031A2B367F801638A071C0C
:101880009307FEFF638C07389306F07F6309DE1A27
:101890003E8E0DBDB305934063910422B367E7010B
:1018A000638707329387F5FF638107449306F07FD0
:1018B000638CD520BE859307800363CCB72AFD4790
:1018C00063CFB73C930700028D8F3319F700B356EF
:1018D000BF00B317FF003369D900B337F0003357A7
:1018E000B7003369F9003308E84041ACB367F80149
:1018F000638007349307FEFF638A07209306F07F17
:101900006308DE2E3E8E2DBF631E0E1493861400D8
:1019100093F7E67F63910734B367E7016395042C7F
:101920006380073EB367F801638E07303309FF0118
:10193000B3070701333FE9013386E70193178600B8
:1019400063D70700B70780FFFD177D8E8544937727
:101950007900E39F07E09317D60193583900B3E865
:10196000F800935736001307F07F638DE404B20745
:10197000B18313F5F47FCE8581B53369F80133392E
:1019800020017A99B337E9013386E700931786007F
:10199000E3DF07FA85049307F07F6396F418CE859A
:1019A0001305F07F8147814801BDC1EB6384083A8C
:1019B000931636009317D8018D82B3E8D700F689C5
:1019C00093573800B3E7F800F9DB81451305F07F42
:1019D000B70708008148CDB3370680FF7D167D8E9E
:1019E00093777900998CE39507D8B5B74A85EF20AE
:1019F000204F13078501FD47E3D5E7D2130685FF86
:101A0000B317C900014905BB3369F8013339200117
:101A1000DDB13309FF413306074133342F0133046D
:101A200086409317840063CD0724B3688900E3934D
:101A300008CE8147814981441DBFE39808F80E050F
:101A40009317D7010D81B3E8A700935737009DBFC7
:101A50000E059317D7010D81B3E8A700F2849357C1
:101A6000370011B73305934063820412B706800034
:101A70009307F07F558F630DF32E9307800363CB9D
:101A8000A720FD4763C3A72A93070002898F331954
:101A9000F700B356AF00B317FF003369D900B3376F
:101AA000F0003357A7003369F9003A987E99B337AD
:101AB000F901338607019A84D1BDB70680009307E8
:101AC000F07F558FE319F3DE931736008D8393185B
:101AD000D801B3E81701F68993573800E5B5130725
:101AE00015FE9306000233D7E700630AD60093067B
:101AF00000043386C6403396C7003369C9003339C2
:101B000020013369E9000146814491B53309FF01A1
:101B1000B30707013336E9013E96931786008544E3
:101B2000E3D707E28944B70780FFFD17F18F13570A
:101B3000190013791900336927019398F70133E9E4
:101B4000280113D6170015B113090EFE93070002E2
:101B5000B3562801630AFE00130900043309C94182
:101B600033192801B3EF2F013339F0013369D9005C
:101B700059B63369E7013339200133892F41B3B7AF
:101B80002F013306F8409A84F689A5BEB367E701B2
:101B9000638207189307F5FF6384071C9306F07FA1
:101BA0006304D5123E85D1BD93070002B387C741B8
:101BB000B316F8003399FF0033D6CF01D18E3339F5
:101BC0002001B357C80133E926013E975DBB931747
:101BD00036008D839318D801B3E81701AE8493576C
:101BE0003800F68949B3EDC33369F801E31F09DC16
:101BF0000E059317D7010D81B368F5009357370091
:101C0000D1B36381080E931636009317D8018D82E5
:101C1000B3E8D700F6899357380091BB3309FF41E9
:101C2000B3070741333F2F013386E7418544D1BCD9
:101C30000E059317D7010D81B368F500F284935711
:101C4000370015B30E059317D7010D81B3E8A70030
:101C50009357370029BB9307F07FE382F6D433090B
:101C6000FF013336E901B3070701B2979398F701F3
:101C70001359190033E9280113D61700B684C1B9E6
:101C80003389EF413307E84033B62F013304C740AF
:101C9000F68949B43369E7013339200101BD9387DF
:101CA00005FE93060002B357F700638AD50093063A
:101CB0000004B385B6403317B700336FEF003339F4
:101CC000E0013369F90055BD931736008D839318F1
:101CD000D801B3E8170193573800EDB1B368C900D4
:101CE000E39708C68147814959B13389EF41B3076A
:101CF000E84033B62F013386C740F689854411B4D6
:101D0000931636009317D8018D82B3E8D700935706
:101D10003800B1B9931636009317D8018D82B3E815
:101D2000D700AA84935738003DB9930705FE930660
:101D30000002B357F700630AD50093060004338509
:101D4000A6403317A700336FEF003339E001336942
:101D5000F900A9BB81451305F07FB7070800A9BCAE
:101D60003309FF01B30707013336F9013E9675B316
:101D7000931636009317D8018D82B3E8D700935796
:101D8000380089B1397193D7450122DC4AD856D23F
:101D90002A891394C50006DE26DA4ED652D45AD0CC
:101DA0005ECE13F5F77F318093DAF501630B0510F2
:101DB0009307F07F630BF514135AD9010E043364B3
:101DC0008A00370A8000336A4401131B39009304E8
:101DD00015C00144814B13D846011399C6001378EE
:101DE000F87FB2881359C90093D9F601630E080829
:101DF0009307F07F6300F8041357D6010E09336987
:101E00002701130818C0B70780003367F90093183B
:101E10003600B38404418145BD4733C83A0163E4C9
:101E2000871A973700009387675B0A043E94104037
:101E30003E9602863367C9009384148063120710AC
:101E40001364240081488945C1BF1306F07F814790
:101E50000147B207F25062545206B1837E08D18F17
:101E6000B3E70701D2544259B259225A925A025B3F
:101E7000F24B3A85BE852161828001481306F07FCE
:101E8000B70708000147F1B73367C9004DC76308BA
:101E900009304A8532C4EF20A0042246130755FFBB
:101EA000F547930685FF998F3319D900B357F6008C
:101EB00033E72701B318D60026959304353F8145B3
:101EC000A1BF336A240163030A0636C632C463061F
:101ED000042A2285EF20C0002246B246AA841307B6
:101EE00055FF754A138B84FF330AEA4033146401AB
:101EF000335A4901336A8A00331B69011305D0C084
:101F0000B30495400144814BF9B5336A2401631849
:101F10000A002144014B9304F07F894B6DBD228A56
:101F20004A8B31449304F07F8D4B75B51144014BBE
:101F30008144854B4DB51364140081488545E9BD46
:101F4000136434004A878D45C1BD630A052E854759
:101F5000898F9306800363DDF6320146814701478E
:101F6000CDBDCE868947638DF53A8D47E387F5F081
:101F700085473688E383F5FE1385F43FE357A0FCDD
:101F800093F778006396072893D638009317770065
:101F900063D80700B70700FFFD177D8F1385044046
:101FA0009307E07FE3C3A7EA1316D70193179700BF
:101FB000B1833367D6001376F57F61BDD68652872D
:101FC000DA88DE8545B763614723630DEA20DA8648
:101FD000FD145284014B9317870013D38801336398
:101FE000F300935E0301B357D403131F0301135F80
:101FF0000F0193D50601139E88003374D403330771
:10200000FF024204C18D63FBE5009A951386F7FF3A
:1020100063EE652663FCE526F9179A95998D33D70B
:10202000D503C206C182B3F5D5033306EF02C2055C
:10203000D58D63FBC5009A959306F7FF63E665248B
:1020400063F4C52479179A95C20741645D8F93079D
:10205000F4FF3375F70093580701935F0E01B377D0
:10206000FE00B302F502B386C540B383F80293D5F0
:1020700002013386AF021E962E963385F8036373F2
:1020800076002295C168FD18935506013376160136
:102090004206B3F81201AA95469663E6B612638229
:1020A000B6123306CB408D8E333BCB00338B66416B
:1020B0001385F43F630C6317B358DB039355060194
:1020C000337BDB03B3061F03420B33EB6501637BFA
:1020D000DB001A9B9385F8FF636D6B20637BDB202D
:1020E000F9181A9B330BDB40B356DB0342064182DF
:1020F000337BDB03330FDF02420B33666601637B06
:10210000E6011A969385F6FF6367661E6375E61F00
:10211000F9161A96C208B3E8D8009395080193D22D
:102120000801C181B38EF5023306E641B385BF02D3
:1021300093D60E01B387F202BE95AE96B38F5F02BF
:1021400063F4F600C167BE9FC165FD1593D7060114
:10215000ED8EC206B3FEBE00BE9FF696637FF60903
:102160001A969387F8FF6369661A6368F619630F16
:10217000F61BBE8893E8180011B54A85EF1050563B
:1021800013075501F145930405022246B246E3DAEE
:10219000E5D4130485FF331A8900014B85B33285DA
:1021A00032C4EF10F05313075501F146AA872246B7
:1021B00013050502E3D6E6CEE1173317F600814892
:1021C000E5B9E370CBEE729B3335CB011A95AA9635
:1021D0001305F7FF6378D30263E6B6106382D51068
:1021E0002A87C1B5E3651BDF93551B009316FA01DF
:1021F00013541A00CD8E7E0BF9BBE31DF6F7E38F67
:1022000006D6B9BFE31ED3FCE378CBFD2A8751BDC8
:1022100093F7F8009146E389D7D693B7C8FF938622
:10222000480093C717008D823E978DB3814685473E
:10223000E34CA0FEFD58E31C05D0930410C0854775
:102240001385E441B316A70033D6F8003395A800F0
:10225000D18E3335A000C98E13F676003357F700C0
:1022600001CE93F7F60011466388C70093874600B6
:10227000B3B6D7003697BE869317870063D8070496
:10228000054681470147F1B636877DBBB28779B3F2
:10229000FD46E3D7F6FA0556098E9306000233563B
:1022A000C7006388D7009387E443B317F700B3E808
:1022B000F800B3361001D18E13F67600814701CEB7
:1022C00093F7F60011460147E392C7FA9317970078
:1022D0001316D701B18313D73600518F014695BE2F
:1022E000E370CBF0729B3335CB011A957917AA9620
:1022F0004DBBAE88C5BBAE8631BD93171E0033BE45
:10230000C70172931A96F9183E8EE315F6E7E307B4
:10231000DEC693E818009DB1BE88E30AF6FF99BDBA
:1023200036881306F07F8147014725B6E367DEFC58
:10233000BE88E310DEFE99B113D74501B707100040
:10234000FD1713D846011377F77F9308F07F33FE0C
:10235000B700AA8EF58FFD81328F1378F87FFD824A
:10236000630B170105436306180163140701630D2E
:10237000FE001A858280B368AE000543E39B08FE29
:10238000E319E8FED18FF5F70543E394EEFF01432F
:10239000E381D5FE054371FF3365AE003333A00002
:1023A000C9BF13D74501B7071000FD1713D8460161
:1023B0001377F77F9308F07F33F3B7002A8EF58FFA
:1023C000FD81B28E1378F87FFD82630817036300E6
:1023D00018030DEBB368A300631408005D8E29CACF
:1023E000638508046388D502054595ED8280B3E8CE
:1023F000C700E38008FE795582803365A30065FD40
:10240000630CE802631408005D8E79DEE39ED5FC60
:10241000E34CE8FC63480701E3E867FC6303F3026D
:10242000637FF30081E57D558280F5DE054582807E
:102430000145E39B08FA82805D8E69DA6DBF014534
:102440008280E3E3CEFB0145E372DEFBE5F1E1BF11
:1024500039714AD813D945014ED652D456D29399E0
:10246000C50006DE22DC26DA5AD05ECE1379F97F6B
:102470002A8A93D9C90093DAF501630D090E9307EF
:10248000F07F6306F9181354D5018E09B36934013E
:102490003704800033E4890093143500130919C010
:1024A0008149814B13D74601139AC6001377F77FF2
:1024B000B285135ACA0013DBF601630B07109307AA
:1024C000F07F6303F7049357D6010E0A33EA4701FE
:1024D000130717C0B7078000B367FA0093153600DB
:1024E0003A99814833C76A01BD463A8513081900F5
:1024F00063E8361717360000130646F28A09B299C8
:1025000083A60900B2968286B367CA001309F97FD1
:102510006399071293E9290081458948E1B701478A
:102520009307F07F3704080081443204D2073180DA
:102530007E075D8C598CA285F250625426854259E3
:10254000D254B259225A925A025BF24B21618280D4
:102550005A853E84AE84C68B8947638DFB0E8D47BA
:10256000E38FFBFA85472A87639EFB388147014446
:10257000814465BF33E4A90061C036C632C4638CB0
:10258000092A4E85EF10D0152246B246AA871307B6
:1025900055FF7544938487FF198CB3999900335480
:1025A0008A0033643401B3149A0013D74601130927
:1025B000D0C0139AC6001377F77F3309F9408149D9
:1025C000814BB285135ACA0013DBF601E31907EEFB
:1025D000B367CA00B1C7630F0A22528532C4EF1035
:1025E000301022462A87930655FFF547930587FF4B
:1025F000958F331ABA00B357F600B3E74701B31506
:10260000B6003309E9401309D9C08148E1BD33E47C
:10261000A90001ECA14981441309F07F894B59B508
:1026200093E919008145854875BD4E84AA84B14956
:102630001309F07F8D4BBDB5914981440149854B0C
:1026400095B593E93900D2878D4869BD894756858C
:10265000E397FBF02A879307F07F01448144F1B5AB
:10266000C16E1386FEFF93D6040113DE0501F18CC3
:10267000F18D338695023383B602935806013305F4
:102680009E021A95AA98B382C60363F36800F69275
:10269000C16F1383FFFF33F5670093D30701B3F7CF
:1026A0006800C207337366003E933306950293D8E1
:1026B0000801B387A602135F0601B3849302BE9498
:1026C000FA94B38E760263F3F400FE9E416A930798
:1026D000FAFF935F0401B376F400B3F9F4007D8E42
:1026E000C1803384D502C209338FD401B299CE9808
:1026F000B307DE02935E0401B385BF02AE97BE9EB0
:10270000330EFE0363F3BE00529EC1679385F7FF4D
:1027100033F6BE006D8C4206229693DE0E01B305A1
:10272000D502769E3385AF0213D40501B386D3025A
:10273000AA96A296B38FF30363F3A600BE9F4165EA
:102740007D15B3F7A600C2076D8DAA97B385580013
:10275000B3B93501FA97B2953384370133B6C50062
:10276000B30EC4013385CE0033343401B3B7E7016F
:10277000C18F33BECE0113D406013336C5003E945B
:102780003366CE009394950032947E94B3E4640053
:10279000260493567501B3349000DD81931795009C
:1027A000CD8C558CDD8C9317740063DB070093D7B9
:1027B000140085889316F401DD8CD58C0580428940
:1027C0009307F93F6359F00893F6740081CE93F6AE
:1027D000F40011466388C60093864400B3B49600A3
:1027E0002694B6849316740063D80600B70700FFDA
:1027F000FD177D8C930709409306E07F63CFF60EAB
:1028000093D634009314D4012604D58C318093F7E9
:10281000F77F21BB328532C4EF10806C93065501DF
:10282000F147130705022246E3D1D7DC6115B31740
:10283000A6008145F9B3EF10A06A13075501F145D1
:10284000930705022246B246E3D5E5D46115331459
:10285000AA00814499BB85469D8EB1E71309E941E1
:10286000B3972401B3D4D40033192401B337F00053
:10287000B3649900DD8C93F77400B356D40081CF14
:1028800093F7F40011466388C70093874400B3B4FC
:102890009700A696BE849397860063D80704854761
:1028A0000144814459B113068003E341D6CC7D46EF
:1028B000E356D6FA0556B307F640930500023356A1
:1028C000F4006387B6001309E943B3172401DD8CD4
:1028D000B3349000D18C93F67400014499CA93F7F5
:1028E000F40011468146E392C7FA139496003180B2
:1028F000F6068D80D58C81470DB99307F07F014492
:10290000814425B142896DBD370710007D17011143
:102910003373B70093D84601758F935ED60122CCEE
:1029200026CA0E0393D445019357D5010E0706CE50
:102930004AC84EC693F8F87F130EF07F33E7EE00D7
:1029400093F4F47F13D4F50133E36700131F3500CC
:10295000FD82931E36006380C81993C61600B385A6
:1029600014416305D4126351B018638B081AB7077A
:1029700080005D8F6381C4599307800363C4B734BB
:10298000FD4763C5B748930700028D8FB3D9BE00DA
:102990003318F700B39EFE00336838013357B70091
:1029A000B339D001336838013303E340B3090F4131
:1029B000B3373F013306F3409317860063D30724F0
:1029C000370980007D1933792601630F092C4A8568
:1029D000EF100051130785FF93070002998FB3D7BB
:1029E000F9003316E900D18FB399E9006344972ABF
:1029F000058F13061700FD4663C5C63A130700028C
:102A0000118FB3D6C9003398E9003397E700558F8B
:102A100033380001B369070133D6C700814493F707
:102A2000790081CF93F6F90091476388F600938689
:102A3000490033B836014296B6899317860063D6AB
:102A4000071C138714009307F07F05886306F7209F
:102A5000B70780FFFD17F18F1398D70193D939007D
:102A6000A60733683801B1831377F77F9396C700C1
:102A70005207B1827E04D98EC18EF2406244D244A4
:102A80004249B2494285B685056182806356B00AE3
:102A9000638A0812B70780005D8F6387C42D930790
:102AA000800363C7B718FD4763D2B73C138805FEA0
:102AB00093070002B3590701638AF50093070004E6
:102AC000B385B7403317B700B3EEEE003338D0010B
:102AD0003368380195A2B367D7019385148099E3D1
:102AE00093C61600630AD404D1E19387140093F7C8
:102AF000E77F6399071EB367E3013368D7016392E9
:102B000004166382073C63160842131835009316B7
:102B1000D3011358380033E806019357330019A244
:102B2000B367D7016385071A9387F5FF638B073A6D
:102B3000638CC523BE8589B56399051C93861400F3
:102B400093F7E67FC1EFB367E30163900436638DCB
:102B50000744B367D701639407460E051318D301E2
:102B60000D813368A800935733006DA8B385984052
:102B700063970420B367E301638D07309387F5FF04
:102B8000638907401305F07F6383A520BE85930703
:102B9000800363C2B72AFD4763C8B73C93070002AE
:102BA0008D8F3318F3003356BF00B317FF0033681F
:102BB000C800B339F0003353B3003368380133072A
:102BC0006740B5ACB367D701638307109387F5FF00
:102BD000638F071E6380C52FBE85D1B59307F07F35
:102BE000638BF606FA9E33B6EE01B307E300B297A5
:102BF0001398F70193DE1E00B369D80113D61700AE
:102C0000B68493F77900E39F07E09317D60113D8B2
:102C100039003368F800A685935736001307F07F14
:102C20006380E506B207B18313F7F57F05883DBDE4
:102C30003367D7013338E000B309E801B3B7E901DE
:102C40003386670093178600E3DD07FA8504930750
:102C5000F07F639CF41805881307F07F81470148D3
:102C600031B5639107106301083C131836009317C0
:102C7000D701135838003368F8003684935737006B
:102C8000B367F800E9DB01441307F07FB7070800DA
:102C90000148E9BB370680FF7D167D8E93F77900EA
:102CA000998CE39107D895B74E85EF1060231307F1
:102CB0008501FD47E3D2E7D2130685FFB397C9002C
:102CC00081492DB33368D70133380001C5B11318DA
:102CD00035009317D301135838003368F800935721
:102CE00033002DBFB309DF413309E34033363F01E1
:102CF0003309C9409317890063CA072033E82901C3
:102D0000E31508CC8147014431BFB3859840638106
:102D10000414B70680009307F07F3363D300638108
:102D2000F8209307800363CCB722FD4763C9B72C13
:102D3000930700028D8F3318F300B356BF00B3170B
:102D4000FF003368D800B339F0003353B300336861
:102D500038011A97B309D801B3B7D9013386E70010
:102D6000C684CDB5E31108F2131835009317D301CB
:102D7000135838003368F8009357330011B73705FC
:102D800080009307F07F3363A300E392F8E00E0620
:102D90001318D7010D823368C80093573700368463
:102DA000C5B505179306000233D7E700630AD600BE
:102DB000930600043386C6403396C700B3E9C900C2
:102DC00033383001B369E800014681441DBDB309C1
:102DD000DF01B307E30033BFE9013386E70193174F
:102DE00086008544E3DF07E08944B70780FFFD17CD
:102DF000F18F13D7190013F819003368070193995D
:102E0000F701B3E9090113D6170011B9138805FEBC
:102E100093070002B3590701638AF5009307000482
:102E2000B385B7403317B700B3EEEE003338D001A7
:102E300033683801A5BE3363E30133386000B389DA
:102E40000E41B3B73E013306F740C6843684ADB6B3
:102E5000B367E301638707189387F5FF638C071C4B
:102E60009306F07F638ED50ABE8565BD9307000289
:102E70008D8FB3D9BE003318F700B39EFE003368C0
:102E800038013357B700B339D001336838013A936A
:102E900065B3131836009317D7011358380033E879
:102EA000070136849357370095BBBDCB3367D701F5
:102EB000E31B07DC0E051318D3010D813368A8004E
:102EC0009357330075BBE30F08E2131836009317CE
:102ED000D701135838003368F80036849357370009
:102EE00091B3B309DF41B307E340333F3F0133867A
:102EF000E7418544D1B4131835009316D301135814
:102F0000380033E80601935733009DBBB389EE4187
:102F10003306674033B93E0133092641368475B420
:102F20000E061318D7010D823368C8009357370077
:102F300081BBB309DF41B307E34033363F0133863A
:102F4000C7409317860063D7070AB389EE41B307DA
:102F50006740B3BE3E013386D7413684C9B433637C
:102F6000E30133386000FDB3138805FE93070002C8
:102F7000B3590301638AF50093070004B385B74092
:102F80003313B300336F6F003338E0013368380117
:102F90007DB5B389EE41B3076740B3BE3E013386CA
:102FA000D7413684854409BC131836009317D701DE
:102FB000135838003368F80093573700A5B1B309A8
:102FC000DF01B307E30033BFE9013386E70193175D
:102FD0008600E3D807C2B70780FFFD177D8E8544C2
:102FE0000DB10E061318D7010D823368C800935730
:102FF00037002DB133E8C900E30608D019B11388B2
:1030000005FE93070002B3590301638AF500930795
:103010000004B385B7403313B300336F6F00333808
:10302000E001336838013DB301441307F07FB7076F
:1030300008002DBCB309DF01B307E300B3BED9011B
:103040003386D70169BB13D74501B7071000FD17B9
:103050001347F7FF13D84601FD8DF58F93165701DF
:103060001378F87F99CA1307F07F01456303E800DE
:103070008280D18F3335F0008280C98D0545E5D53A
:103080008280411106C622C426C20DCD9357F54158
:10309000B3C4A7009D8C2A842685EF007064930634
:1030A000E041898EA9477D8093F6F67F63CDA70224
:1030B0002D47098FB3D7E4005505B207B394A40098
:1030C000B18329A00144814681478144B207D206D9
:1030D000B1837E04D58FC18FB24022442685BE8540
:1030E0009244410182805515B397A400B207B18381
:1030F0008144E9BF3971935775014AD856D25ECEE3
:10310000931A95001359F50106DE22DC26DA4ED615
:1031100052D45AD093F7F70F93DA9A00CA8B63828E
:1031200007121307F00F6384E7128E0A37070004B3
:10313000B3EAEA00138A17F80144014B93D77501EB
:103140009394950093F7F70FA58093D9F501FDC7E8
:103150001307F00F6387E7028E04938717F837078A
:103160000004D98C330AFA408146558C1727000099
:103170001307C72E0A043A941C4033493901BA9701
:103180008287130A1AF0F9E88946558C1727000040
:103190001307C7300A043A941C4033493901BA97DF
:1031A000828701491307F00FB70740001395970076
:1031B000F25062549317770125817E095D8D336546
:1031C0002501D2544259B259225A925A025BF24B0B
:1031D000216182801307F00F8147C9BFA68ACE8B79
:1031E000368B8947630BFB1A8D47E30CFBFA854747
:1031F000630AFB0A1307FA0713F91B006357E0126F
:1032000093F77A0099C793F7FA0091466383D70042
:10321000910A93974A0063D90700B70700F8FD1792
:10322000B3FAFA0013070A089307E00FE3C4E7FABA
:1032300093976A00A5831377F70F8DBFB9E485468E
:10324000A9B763940A021144014A054BC5BD6399AD
:103250000A002144130AF00F094BCDB58D4631B752
:103260003144130AF00F0D4BD1BD56852EC6EF0029
:1032700030479307B5FFB39AFA009307A0F8338A53
:10328000A7400144014BB24555BD2685EF0050458E
:103290001307B5FFB307AA00B394E400138A6707C6
:1032A0008146E1B513F91B000147814701B741662B
:1032B000139554007D1693570501698E63FA9A0A97
:1032C000B3D5FA027D1AD68601473388C502B3F614
:1032D000F602C206558F637B07012A979386F5FF96
:1032E0006368A70A6376070BF9152A973307074126
:1032F000B356F7023377F702B38AC6029317070172
:1033000063FB5701AA971387F6FF63E1A70863FFE2
:103310005707F916AA97C205B38A5741D58DB33A14
:103320005001B3EA5501CA8BF1B58546998E11C794
:103330006D4601478147E34BD6E6130AEA09339A03
:103340004A01B3D7DA00B33A4001B3E7570113F7A4
:10335000770019C713F7F70091466303D700910769
:1033600013975700634807029A07A58301473DBD9D
:1033700093D61A00B3D5F6021397FA014183338826
:10338000C502B1B7CE8B368B814AA1BDBA8661B773
:10339000B685A9BF0547814711BD13F91B00130767
:1033A000F00F814721B593567501B7078000FD17CF
:1033B00013D6750193F6F60F1308F00FB3F8A700B4
:1033C0001357F501ED8F1376F60FFD816381060328
:1033D000630C06018DE211E2B1C3638E080263053E
:1033E000B70405451DE78280F5D779558280E39EB5
:1033F00008FE6309D60211E2EDD7E314B7FEE342FB
:10340000D6FE63C7C600E3EE17FD0145E3FDF8FCF9
:1034100001E77D558280F5DD054582800145E39217
:1034200008FC8280F9DBD1B78146E1BF9356750174
:10343000B7078000FD1713D6750193F6F60F130832
:10344000F00FB3F8A7001357F501ED8F1376F60FC1
:10345000FD81638706036309060185EA11EA89EBAA
:103460000145639B080082800945F5FFE5DA31A834
:10347000638C08026300B704054575D77D558280CB
:103480000945639808026304D60211E2F5D7E315F3
:10349000B7FEE343D6FE63C7C600E3EF17FD014561
:1034A000E3F3F8FC19E3D9BFF1D905458280E5D3F0
:1034B000828082808146C5B7797122D41354750108
:1034C0004ECE52CC9319950006D626D24AD056CA73
:1034D0005AC81374F40F93D99900135AF50169C4AB
:1034E0009307F00F6308F40E939739003707000431
:1034F000B3E9E700130414F88144014B13D77501B5
:10350000939A95001377F70F93DA9A0013D9F50180
:1035100045CF9307F00F630CF7028E0A130717F8D5
:10352000B7070004B3EAFA003A94014633452A018A
:10353000BD47AA869305140063E297101727000081
:103540001307C7F98A04BA949C40BA978287130478
:10355000F40F63980A0C93E424000946C1BF0145A7
:103560001307F00FB7074000B2502254A6075E07BA
:10357000A5837E05D98F92540259F249624AD24AF4
:10358000424B5D8D45618280CA86D689328B8947E0
:103590006301FB0A8D47E304FBFC85473685631214
:1035A000FB1A01478147C9B7639E090413D7750108
:1035B000939A95001377F70F91440144054B93DAE2
:1035C0009A0013D9F50131F7639D0A0093E41400C2
:1035D0000546A9BF63930902A1441304F00F094BE8
:1035E00031BF5685EF00D00F9307B5FF098CB39A12
:1035F000FA001304A4F8014615BFB1441304F00FF8
:103600000D4BEDBD4E852EC6EF00900D9307B5FF17
:103610001304A0F8B399F900098C8144014BB24519
:10362000F1BD93E434000D4611B78947D286E31308
:10363000FBF636851307F00F81473DB741639306CC
:10364000F3FF13D6090193D80A01B3F7D900B3FAEF
:10365000DA0033885703B389F80213570801B30A15
:103660005603D6994E9733061603637357011A967D
:10367000C167FD17B376F7003378F800C206C2962B
:103680009399660093570701B3393001E982B297E5
:103690009A07B3E6D900B3E9D7009397490063D9F5
:1036A000070013D7190093F71900B369F7002E84A8
:1036B0001307F4076350E00493F7790099C793F771
:1036C000F90091466383D70091099397490063D924
:1036D0000700B70700F8FD17B3F9F900130704084E
:1036E0009307E00F63CBE70493976900A5831377F3
:1036F000F70F9DBD8547B386E74011C76D4601476B
:103700008147E343D6E61307E4093397E9003337EB
:10371000E000B3D7D900D98F13F7770019C713F793
:10372000F70091466303D700910713975700634C46
:1037300007009A07A583014705BD1307F00F8147CE
:1037400025B52E84B5B70547814739BD37078000B9
:1037500041117D179356750113D87501B377A700F2
:1037600093F6F60F935EF5013376B70026C24AC092
:103770001378F80F06C622C41303F00F3E8E368965
:10378000F684139F3700FD8113153600B388064178
:103790006302681093C51500638CBE106354100D4E
:1037A000631008106304051EFD18B307AF4063865D
:1037B00008029307F00F6388F616ED4763C71729D1
:1037C00013070002330717413317E500B3571501FC
:1037D0003337E000D98FB307FF4013975700635189
:1037E000071A370400047D147D8C2285D52D6D15B4
:1037F000B317A400634E251B3305254113041500A0
:1038000013070002018F3397E7003337E000B3D787
:103810008700D98F014913F7770019C713F7F7000D
:1038200091466303D700910713975700635E07140F
:10383000930619001307F00F93FE14006386E61633
:103840009A07A58393F6F60FA607B240224413D534
:103850009700DE069397FE01558D924402495D8DD7
:10386000410182806392080A138716001377E70FDD
:10387000631B07146394062263020F2071D5B307FC
:10388000AF401397570063550722B307E54101493D
:10389000AE8451B7E30005F0638ABE0AE35410FD1D
:1038A0009307F00F6381F608B70700045D8D31B709
:1038B000635E1009630108089307F00F6385F6063D
:1038C000B70700045D8DED4763C0171F13070002A3
:1038D000330717413317E500B35715013337E000BD
:1038E000D98FFA9713975700635C070805091307E8
:1038F000F00F630BE90AB706007E13D71700FD1619
:10390000858B758FD98F01BF3307D840639506101B
:10391000630D0F147D176303071A9307F00F6314E9
:10392000F810AE84328E630F0E06814E9306F00FB0
:10393000B707400011BF39C9FD18B307AF00E383D3
:1039400008FA9307F00FE390F6F8F1BF63990808BF
:10395000138916001377E90F63160712639B06108D
:1039600063030F16E30205EEB307AF00139757008A
:10397000014963570700370700FC7D17F98F054998
:1039800013F77700E31C07E813DE37009307F00F07
:10399000E30BF9F893179E00A5839376F90F93FE36
:1039A00014005DB593FE14009306F00F814769BDC6
:1039B000370700FC7D17F98F13F777003309A9400B
:1039C000E31E07E4D1B73304AF409317540063C339
:1039D000070CE31C04E0814E81468147B5B53307EF
:1039E000D840B5C69307F00FE30EF8F2B70700040E
:1039F000336FFF00ED4763CDE70C93070002998F0B
:103A0000B317FF003357EF00B337F0005D8FB307F4
:103A1000A7004289C1BD9307F00FE304F8F0B70790
:103A20000004336FFF00ED4763C2E708930700020D
:103A3000998FB317FF003357EF00B337F000D98FDA
:103A4000B307F5404289AE8449BB854769B3630E2D
:103A50000F067D17B307AF004289E30507E8930718
:103A6000F00FE319F8F8328E7DBD328E4289AE84B4
:103A700031BFE3090FEAE30805EA45BD0DCDAE8E7F
:103A8000B287D9B39307F00FE300F9F2B307AF00A1
:103A90008583FDB53304E541AE8481BBE31D0FFC96
:103AA000E30505E8AE84BDBD854725BD854749BF13
:103AB0000149E39707EC814E814779B3B307E541AC
:103AC0004289AE8419BBB28741B3328E42897DBD33
:103AD000054735BF37068000135775019307F6FF7A
:103AE0001377F70F9305E007B3F6A7009357F50197
:103AF00063FCE5009305D00963FAE5003705008013
:103B00001345F5FF3E95828001458280930550095B
:103B1000D18E63CDE500130660093307E64033D745
:103B2000E6003305E040F5F33A8582801307A7F6F7
:103B30003397E600FDB7411106C622C426C20DCD5B
:103B40009357F54133C4A7001D8CAA842285492EC2
:103B50009307E0093387A74093076009FD8063CC92
:103B6000E702A1469377F70F63D5A60061153314DA
:103B7000A4002604258021A0814481470144260415
:103B800013559400B2402244DE07FE045D8D458D3E
:103B90009244410182809307900963DDE700930717
:103BA000B5019546B317F400898E3354D400B3376A
:103BB000F0005D8C954763D6A7009307B5FF3314DB
:103BC000F400B70600FCFD16937774003376D4003A
:103BD00085C39377F4009145638CB7001106931762
:103BE000560063D707009307F009758E3387A74007
:103BF0001314660025809377F70F51B7411106C65D
:103C000022C415CD2A84E92C9307E0093387A74005
:103C10009307600963C0E704A1469377F70F63D564
:103C2000A60061153314A40026042580260413552C
:103C30009400B2402244DE075D8D41018280014440
:103C4000260413559400B24022448147DE075D8D5F
:103C5000410182809307900963DDE7009307B50176
:103C60009546B317F400898EB337F0003354D4006F
:103C70005D8C954763D6A7009307B5FF3314F40016
:103C8000B70600FCFD16937774003376D40085C325
:103C90009377F4009145638CB70011069317560093
:103CA00063D707009307F009758E3387A740131475
:103CB00066002580260413559400B2402244937771
:103CC000F70FDE075D8D4101828013577501137771
:103CD000F70F41119307170022C426C21314950051
:103CE00006C693F7E70F25809354F50185C79357D0
:103CF0003400130707387604B2075207B1831395CF
:103D0000F401D98FC98FB240228522449244BE85E6
:103D10004101828005EB39C42285D922A94763C6B7
:103D2000A7042D47098F930755013357E400331437
:103D3000F4009317C70013079038098FB1831377E6
:103D4000F77F5DBF01CC13573400B7070800D98F48
:103D5000B2077604B1831307F07F79BF1307F07FB2
:103D6000814759BF0147814741BF130755FF3317AB
:103D7000E40001447DBF93D645019397C50093F6B7
:103D8000F67FB183138616008E071357D50113767D
:103D9000E67FFD815D8F9318350035CE138806C808
:103DA0009307E00F63DD07018147139597009306A2
:103DB000F00FDE062581FE05558D4D8D8280635501
:103DC000000B931765000E07B337F000D98F93D817
:103DD000D801B3E7170113F777006301071013F752
:103DE000F70091466303D7009107370700047D8FE2
:103DF00075C7130718001306F00F9376F70FE30546
:103E0000C7FA9A07A58313959700DE062581FE055C
:103E1000558D4D8D8280B367170199EE85CF9547FB
:103E20009A07A5831395970093F6F60FDE06258172
:103E3000FE05558D4D8D8280A5DBB707400013959B
:103E400097009306F00FDE0681452581FE05558D0E
:103E50004D8D82808147139597008146DE0625812E
:103E6000FE05558D4D8D8280A5576348F804F947AE
:103E700037068000B38707417D45598E6351F504AD
:103E8000795733070741130500023357E60063886B
:103E9000A700938626CAB316D600B3E8D800B33776
:103EA0001001D98F13F77700014815FB13975700BE
:103EB0008546E34807F48146A5B781468DB79386CA
:103EC00026C83397D8003337E000B316D600B3D8EE
:103ED000F800B367D700B3E7F800E9B7C28689B73F
:103EE000C167637CF5029307F00F1307000263EBD1
:103EF000A7009717000093876762AA978823330566
:103F0000A740828021819717000093872761AA9795
:103F1000882361473305A7408280B7070001636D9E
:103F2000F5006181971700009387475FAA97882360
:103F300021473305A740828041819717000093876E
:103F4000E75DAA97882341473305A740828093877E
:103F500001818843828039713EDA2ED232D436D63E
:103F60003AD842DC46DE9387018122CC804326CAC0
:103F700006CEAA8409C41C4C99E32285ED290C4481
:103F800054102686228536C6EF007012F240624435
:103F9000D24421618280011126CA4AC806CE22CCB1
:103FA0004EC652C4AA842E8901C51C4D91E3E1215D
:103FB0009C4C804499E326857D29971700009387C0
:103FC000E767631BF402C0405E24A18BB1C71C48A5
:103FD000A1C7FD59294A1C4483450900FD17B1E9D1
:103FE0001CC463DD07062286A94526856120FD578E
:103FF0006308F502294535A09717000093870766E7
:104000006314F4008044C9B79717000093870761D1
:10401000E31CF4FAC0444DBFA2852685112A55D968
:104020007D55F2406244D2444249B249224A056178
:1040300082801CC4050963D70700184C63CAE700D7
:10404000638845011C401387170018C08CA361B713
:10405000228626850520E31035F9D9B71C40138741
:10406000170018C0294798A371B793870181AA85C3
:10407000884315B7011122CC26CA4AC806CE4EC6BF
:10408000AA842E89328401C51C4D91E3ED26971731
:1040900000009387A75A6317F406C0401C4C1CC449
:1040A0005E24A18BC1C31C48B5CF1C48084093793E
:1040B000F90F1379F90F1D8D5C486346F500A28551
:1040C0002685692C25E51C440505FD171CC41C40EC
:1040D0001387170018C0238037015C486388A70046
:1040E0005E24858B81CBA9476316F900A2852685BE
:1040F000B5240DEDF24062444A85D2444249B249AA
:104100000561828097170000938747556314F40078
:10411000804469B79717000093874750E310F4F87D
:10412000C044ADBFA2852685212041D17D59D9B794
:1041300041119387018126C2844322C44AC006C626
:104140002A892E8489C49C4C99E326852D269717AD
:1041500000009387A74E631BF402C0400317C400FE
:1041600093170701C18393F68700ADEA93F6070121
:1041700095EEA5472320F900136707045AA47D553F
:10418000B2402244924402494101828097170000C4
:104190009387C74C6314F4008044C9B79717000095
:1041A0009387C747E31CF4FAC0444DBF918B9DC36E
:1041B0004C5889C9930744046384F5004A85312328
:1041C000232A04025E242322040093F7B7FD5EA491
:1041D0001C481CC05E2493E787005EA41C4899EB32
:1041E0005E241307002093F707286385E700A28564
:1041F0004A85A1215E2413F717001DC35C482324C0
:104200000400B307F0401CCC1C480145B5FB8317E4
:10421000C40013F707082DD793E707045EA485B7FA
:10422000898B014791E3584818C4F9BFDE25011175
:1042300022CC26CA06CE4AC84EC613F78700AA84E7
:104240002E8479EBD841634DE000B841634AE00029
:104250000145F2406244D2444249B249056182803C
:1042600058547DD703A904009396370123A0040076
:1042700063DB060670485E24918B99C75C401D8EF7
:104280005C5899C33C401D8E5C540C508146268579
:104290008297FD575A24631DF5009440F54763E863
:1042A000D706B70740208507B3D7D700858BA5C3AE
:1042B0001C48232204001CC09317370163D8070051
:1042C000FD576314F5009C4091E368C84C5823A047
:1042D0002401BDDD930744046384F5002685F5269B
:1042E000232A0402B5B70C5001468546268502975D
:1042F000FD572A86E311F5F89C40B5DF75476385C5
:10430000E70059476393E70423A0240191B713679B
:1043100007045AA47D5535BF83A90501E38A09F234
:1043200003A905008D8B23A03501330939410147CD
:1043300091E3D84918C4E35D20F11C540C50CA869F
:104340004E86268582976347A0005E2493E7070484
:104350005EA4C9B7AA993309A940F1BF9C49B9CF56
:10436000011122CC06CE2A8411C51C4D81E72EC630
:104370001922B245971700009387472C639BF500DD
:104380004C408397C50095C722856244F240056181
:1043900071BD971700009387672C6394F5000C4458
:1043A000CDB79717000093876727E39CF5FC4C4433
:1043B000C9BFF240624401450561828001458280A7
:1043C000411122C406C62A844EA572A523200500E9
:1043D00023220500232405002322050623280500A7
:1043E000232A0500232C0500214681451305C50518
:1043F000EFB03FE7971700009387E7B15CD09717BE
:104400000000938707B41CD4971700009387E7B781
:104410005CD497170000938747BA00D01CD8B240ED
:1044200022444101828097050000938565F3A9A28B
:10443000411126C2130680069384F5FFB384C4029B
:104440004AC02E8922C406C6938544071D262A84A5
:1044500001CD2320050023222501310508C4138640
:1044600084068145EFB0FFDF2285B24022449244AA
:104470000249410182801C4DADE3411106C622C4B0
:1044800097070000938767FA1CD5938741819C4367
:104490002324050423260504232805046314F500BA
:1044A00085471CCD2A841D2848C02285052808C4BC
:1044B00022852D2048C448400146914511370844C3
:1044C0000546A545F53D48440946C945D53D8547BE
:1044D0001CCCB240224441018280828041119387EA
:1044E000418126C284434AC006C69C4C22C42A8904
:1044F00099E326854937938484048044DC40FD1782
:1045000063D607009C40B9CF8440C5BF0317C400E1
:1045100039E7C177850723220406232004002322DC
:104520000400232404005CC423280400232A04007C
:10453000232C0400214681451305C405EFB07FD22A
:10454000232A0402232C0402232404042326040423
:104550002285B240224492440249410182801304E0
:10456000840671BF91454A85E13588C051FDB14748
:104570002320F9000144E9BF797122D44AD052CCFA
:1045800056CA5AC85EC606D626D24ECE2A8AAE8AE9
:10459000130485040149054BFD5B09ECB25022541C
:1045A0004A8592540259F249624AD24A424BB24B6E
:1045B00045618280044483294400FD1963D40900C5
:1045C0000040E1BFDE24637BFB008397E400638748
:1045D0007701A6855285829A3369A900938484065F
:1045E000E9BF1971A6DAAE848395E500A2DC86DE08
:1045F000328463DB0500DE2423A0060093F707085E
:1046000085E7930700401DA0300836C6EF007021F3
:10461000B246E34205FE7247BD67F98F7977BA97D4
:1046200093B717009CC2F1BF930700041CC0F6505B
:104630006654D654014509618280DE25011122CCE1
:1046400006CE26CA4AC8898B2E8489CF9307740464
:104650001CC01CC885475CC8F2406244D244424931
:104660000561828074003000AA84A53FA2452A8992
:104670002685012219E98317C40013F7072069FF73
:10468000F19B93E727005EA4D1B7970700009387BB
:10469000C7D99CD45E2408C008C893E707085EA465
:1046A000A2475CC8B24781CF8315E4002685EF009E
:1046B000701A11C55E24F19B93E717005EA45E2477
:1046C0003369F9002316240141BFDDC183A7C5FF6B
:1046D000411122C406C626C21384C5FF63D3070056
:1046E0003E94AA84EF00D01E938701859C4381EFFE
:1046F0002322040023A881842244B24026859244C8
:1047000041016F00101D637EF40014403307D40094
:104710006396E7009843DC43369718C05CC0D9BF66
:10472000BA87D84319C3E37DE4FE94433386D700A8
:10473000631F86001040B29694C33386D700E31DF2
:10474000C7FA10435843B29694C3D8C375B763757C
:10475000C400B1479CC04DB71040B306C4006316F7
:10476000D70014435843B29614C058C0C0C369B7A9
:104770008280011126CA93843500F19806CE22CC9E
:104780004AC84EC6A104B14763F3F404B14463E2DE
:10479000B4042A89EF00D0139387018598433A84A3
:1047A00039E0938741859C4391E781454A850D2FE8
:1047B00023AAA184A6854A852527FD5963193507B3
:1047C000B1472320F9004A85EF00B01029A0E3D0BB
:1047D00004FCB1471CC10145F2406244D244424945
:1047E000B249056182801C40858F63CF0702AD46C8
:1047F00063F6F6001CC03E9404C031A05C40631315
:10480000870223A8F1844A85EF00B00C1305B40099
:104810009307440061993307F5405DDF3A94898F2F
:104820001CC05DBF5CC3C5B72287404095BF130461
:1048300035007198E30285FCB305A4404A854D25F7
:10484000E31C35FBB5BF1C46FD171CC663DA070029
:10485000184E63C5E700A9476394F5006FF09F8188
:104860001C422E851387170018C28CA38280011169
:1048700022CC26CA4AC84EC652C406CE2A89AE8960
:104880003284B304D6007D5A63149400014501A814
:104890000C204E864A85453F0504E31745FFF2404C
:1048A0006244D2444249B249224A0561828035714C
:1048B00022CD26CB4AC94EC706CF52C556C35AC1D0
:1048C000DEDEE2DCE6DAAA89AE843289368409C506
:1048D0001C4D99E3EFF03FBA97170000938707D676
:1048E0006397F40C83A44900DE24A18BFDC39C488C
:1048F000EDC393070002A304F1029307000302D261
:104900002305F10222C6930B5002971A0000938AE6
:10491000EAD6054C294B4A841C2099C3639E770D27
:10492000B30C2441638D0C00E6864A86A6854E852D
:104930003D3FFD57630FF51C9256E69636D21C207C
:104940006389071CFD571309140002C802CE3ECA32
:1049500002CCA309010482D483450900154656857B
:10496000A12F13041900C24751E913F7070109C722
:1049700013070002A309E10413F7870009C713070F
:10498000B002A309E104834609001307A002638F64
:10499000E606F2474A84814625461820930514000E
:1049A000130707FD6377E60AB5CA3ECE85A89717B9
:1049B00000009387A7CA6395F40083A489002DB7EC
:1049C00097170000938787C5E390F4F283A4C9008A
:1049D00021BFA6854E85EFF0AFF501DD7D55FA408C
:1049E0006A44DA444A49BA492A4A9A4A0A4BF65B67
:1049F000665CD65C0D618280050439BF3305554184
:104A00003315AC00C98F3EC82289B9B73247930627
:104A10004700184336C6634707023ACE182093076B
:104A2000E002631DF70418309307A002631BF7022E
:104A3000B2470904138747009C433AC663C1070283
:104A40003ECA2DA83307E04093E727003ACE3EC880
:104A5000F1B7B387670385462E84BA973DBFFD57EC
:104A6000C5B7050402CA814681472546182093052B
:104A70001400130707FD6374E606F9F20C200D46D7
:104A800017150000130505C0052D11CD971700005F
:104A9000938747BF1D8D93070004B397A700424536
:104AA00005045D8D2AC80C20194617150000130552
:104AB000A5BD130914002304B102FD2B35C197B71E
:104AC000FFFF9387275495E74247B24713770710B4
:104AD00009CF91073EC69257D2973ED22DBDB387DC
:104AE000670385462E84BA9751B79D07E19BA107BE
:104AF000D5B77800970600009386A6D726860C08BF
:104B00004E8597000000E7000000FD572A8AE31455
:104B1000F5FCDE2493F70704E39207EC1255C1B5C8
:104B20007800970600009386C6D426860C084E852A
:104B3000012AE1BF797156CA9C49BA8A984522D4A4
:104B400026D24ECE52CC06D64AD05AC85EC6AA89C4
:104B50002E84B284368A63D3E700BA879CC00347A9
:104B6000340419C385079CC01C4093F7070281C712
:104B70009C4089079CC00329040013796900631ACB
:104B80000900130B9401FD5B5C449840998F634CC2
:104B9000F9041C408346340493F70702B336D0006F
:104BA000A5EB13063404D2854E85829AFD57630324
:104BB000F5041C4011469840998B544481446397F6
:104BC000C700B384E64063D3040081441C44184802
:104BD0006354F700998FBE94014969047D5B639823
:104BE0002405014509A885465A86D2854E85829AB4
:104BF000631E75017D55B250225492540259F249F8
:104C0000624AD24A424BB24B456182800509ADBF30
:104C10003307D40013060003A301C7040347540459
:104C200093871600A2978906A381E7049DBF854656
:104C30002286D2854E85829AE30E65FB050945B72B
:104C4000797122D426D24AD04ECE06D652CC56CA3C
:104C50005AC8B689942D930790063289AA842E8467
:104C600013863504638DF60263E2D7069307800549
:104C70006385F61863EDD700638D06209307300433
:104C8000638EF60A930A24042301D404C9A093076F
:104C900030066385F60A93074006E395F6FE1C404E
:104CA000084393F6070893054500C5C61C410CC38D
:104CB00063D807001307D002B307F040A301E40450
:104CC000971600009386C69C294765A8930700079E
:104CD0006381F61663E5D7029307E0066388F6184A
:104CE0009307F006E390F6FA0C401C4313F805080E
:104CF000138547006307080608C39C4385A89307EC
:104D00005007E383F6FE930780076388F612930744
:104D10003007E399F6F61C43D0418145938647005E
:104D200014C383AA07005685412E01C5330555419A
:104D300048C05C401CC8A301040461A81C43930A3A
:104D40002404938647009C4314C32301F40485473D
:104D5000D5B793F607041C410CC3B9DAC207C18763
:104D600081BF93F5050408C3C9D99E231307F00634
:104D70006386E60E97160000938686912947A30165
:104D800004044C400CC463C5050008406D9908C07C
:104D900099E3B28A89CDB28AB3F5E702FD1AB695D6
:104DA0008C212380BA00B3D5E70263FFE70AA1474D
:104DB000631EF7001C40858B91CB58401C4863C78D
:104DC000E70093070003A38FFAFEFD1A330656414E
:104DD00010C84E87CA867000A2852685A13B7D5AE1
:104DE000631D450B7D55B250225492540259F2492D
:104DF000624AD24A424B45618280A382D50497160B
:104E000000009386E6880C40084313F805081C410F
:104E10001105630D080208C313F7150001C793E5D8
:104E200005020CC04147A1FF0C4093F5F5FD0CC0F5
:104E3000B9B79C4193E707029CC193078007A3027F
:104E4000F404971600009386E68575BF13F80504F1
:104E500008C3E30308FCC207C1837DBF97160000A7
:104E600093860683214721BFAE873DB794411C43FB
:104E7000CC4913F80608138547006306080008C3E9
:104E80009C438CC339A008C393F606049C43F5DA0F
:104E90008EA323280400B28A2DBF14485686CA85E3
:104EA00026858299E30045F51C40898B8DE7B24742
:104EB0004844E35AF5F23E853DB785465686CA8595
:104EC00026858299E30065F3050A5C443247998F91
:104ED000E345FAFEE9BF014A930A94017D5BF5B709
:104EE000411122C42A842E8597D7FF1F23AC0720A7
:104EF00006C6EFC0CFA3FD576319F50097D7FF1F74
:104F0000938747209C4391C31CC0B2402244410177
:104F10008280411122C42E848395E50006C65D2A55
:104F2000634905007C48AA977CC8B24022444101ED
:104F300082805E247D777D17F98F5EA4FDB7DE2524
:104F4000011122CC26CA4AC84EC606CE93F70710D6
:104F5000AA842E843289B68991C78395E500894653
:104F600001460D225E247D777D17F98F5EA483159F
:104F7000E4006244F240CE864A86B2494249268520
:104F8000D244056125A8411122C42E848395E500F1
:104F900006C6CD28FD575A24631AF500FD77FD1784
:104FA000F98F5EA4B2402244410182808567D98F87
:104FB0005EA468C8C5BF8395E50025A8411122C439
:104FC0002A842E85B285368697D7FF1F23AC071219
:104FD00006C6EFC02F92FD576319F50097D7FF1F44
:104FE000938747129C4391C31CC0B24022444101A5
:104FF0008280411122C42A842E8597D7FF1F23A3C4
:10500000071006C61122FD576319F50097D7FF1F39
:105010009387470F9C4391C31CC0B2402244410177
:105020008280411122C42A842E85B28597D7FF1F22
:1050300023AA070C06C6CD20FD576319F50097D7A4
:10504000FF1F9387270C9C4391C31CC0B24022448E
:1050500041018280411122C42A842E8597D7FF1FE7
:1050600023A2070A06C6C920FD576319F50097D782
:10507000FF1F938727099C4391C31CC0B240224461
:1050800041018280411122C42A842E85B285368650
:1050900097D7FF1F23A8070606C67928FD5763196F
:1050A000F50097D7FF1F9387E7059C4391C31CC06A
:1050B000B24022444101828093F5F50F2A96631491
:1050C000C500014582801C21E38EB7FE0505C5BFE2
:1050D00082808280411122C42A842E85B285368640
:1050E00097D7FF1F23A0070206C6B928FD576319EB
:1050F000F50097D7FF1F9387E7009C4391C31CC01F
:10510000B2402244410182809307800517D7FF1FD8
:10511000232AF7FE7D5582809307800517D7FF1F4E
:105120002322F7FE7D5582809307800517D7FF1F46
:10513000232AF7FC014582809307800517D7FF1FBC
:105140002322F7FC7D5582809307800517D7FF1F28
:10515000232AF7FA7D558280339388C300C07944AF
:1051600000F07F4500401C46339388430000000058
:10517000000000806597303F000000E0E1796B3F60
:10518000000000000000F03F10000000001001408F
:1051900008000000100000000000000010000000E7
:1051A0000010014002000B00CFB5CDB3C6F4B6AF7E
:1051B000D6D02E2E2E0D0000C8CECEF1B4B4BDA890
:1051C000CDEAB1CFA3ACC6F4B6AFB5F7B6C8C6F753
:1051D0002E2E2E0D000000000000C8425B546173AB
:1051E0006B20315D20CAD2C4DACEC2B6C828504383
:1051F00032293A2025642E2530326420A1E6202869
:105200004144433A2025303464290D0A000000004F
:105210005B5461736B20325D20B9E2C3F4B4ABB868
:10522000D028504331293A204144433D253034644D
:105230002C20B5E7D1B93D2564206D560D0A00003C
:105240000000E0413E3E3E205B5461736B20335DC5
:1052500020BEAFB8E63A20CEC2B6C8B4EFB5BD2086
:10526000256420A1E62C20B1A8BEAF204C454420E7
:10527000D2D1B5E3C1C1A3A1203C3C3C0D0A000042
:105280003E3E3E205B5461736B20335D20BBD6B83D
:10529000B43A20CEC2B6C8BDB5D6C120256420A17F
:1052A000E62C20B1A8BEAF204C454420D2D1B9D8BD
:1052B000B1D5A1A3203C3C3C0D0A00001000000029
:1052C0000010014004000C005B48414C5D2041444B
:1052D0004320436F726520616E64204D757465785C
:1052E00020496E697469616C697A65642E0D0000ED
:1052F0005B4D656D706F6F6C5D204572726F723AB9
:10530000204F7574206F66206D656D6F7279210D69
:10531000000000005B4D656D706F6F6C5D20496E25
:10532000697469616C697A656420256420737461AD
:10533000636B73206F662025642062797465732E19
:105340000D0A000000000000000000000000F0FF57
:10535000000000E0FFFFEFC76C6F67000000000077
:1053600000000000000050C3000000000000504397
:105370000000E0FE422EE63F763C7935EF39EA3D0B
:10538000555555555555D53F000000000000E03FEC
:10539000000000000000004044523EDF12F1C23F16
:1053A000DE03CB966446C73F599322942449D23FEB
:1053B000935555555555E53F9FC678D0099AC33F3B
:1053C000AF788E1DC571CC3F04FA97999999D93F52
:1053D000000000000000F87FEECBFFFF72CAFFFF65
:1053E00082CBFFFF8ACBFFFF82CBFFFFA2CAFFFF6A
:1053F00082CBFFFF8ACBFFFF72CAFFFF72CAFFFF9B
:10540000A2CAFFFF8ACBFFFFE4CBFFFFE4CBFFFF85
:10541000E4CBFFFFA2CAFFFF48D2FFFF3AD1FFFF54
:105420003AD1FFFF38D1FFFF40D1FFFF40D1FFFF4E
:1054300006D1FFFF38D1FFFF40D1FFFF06D1FFFFAC
:1054400040D1FFFF38D1FFFF34D2FFFF34D2FFFF3E
:1054500034D2FFFF06D1FFFF56DEFFFF7CDDFFFFEA
:1054600050DEFFFF84DDFFFF50DEFFFF4ADDFFFF60
:1054700050DEFFFF84DDFFFF7CDDFFFF7CDDFFFFF3
:105480004ADDFFFF84DDFFFF8ADDFFFF8ADDFFFFCE
:105490008ADDFFFF4ADDFFFF3CDDFFFF3CDDFFFF54
:1054A00010DEFFFFECDEFFFF10DEFFFF0ADDFFFF77
:1054B00010DEFFFFECDEFFFF3CDDFFFF3CDDFFFF0A
:1054C0000ADDFFFFECDEFFFF4ADDFFFF4ADDFFFFE5
:1054D0004ADDFFFF0ADDFFFF64E1FFFFB2E0FFFFEF
:1054E000B2E0FFFFB0E0FFFFB6E0FFFFB6E0FFFF76
:1054F00086E0FFFFB0E0FFFFB6E0FFFF86E0FFFFC2
:10550000B6E0FFFFB0E0FFFF52E1FFFF52E1FFFF17
:1055100052E1FFFF86E0FFFF0001020203030303E5
:105520000404040404040404050505050505050533
:105530000505050505050505060606060606060613
:1055400006060606060606060606060606060606FB
:1055500006060606060606060707070707070707E3
:1055600007070707070707070707070707070707CB
:1055700007070707070707070707070707070707BB
:1055800007070707070707070707070707070707AB
:105590000707070707070707080808080808080893
:1055A000080808080808080808080808080808087B
:1055B000080808080808080808080808080808086B
:1055C000080808080808080808080808080808085B
:1055D000080808080808080808080808080808084B
:1055E000080808080808080808080808080808083B
:1055F000080808080808080808080808080808082B
:10560000080808080808080808080808080808081A
:10561000080808080808080800000000000000004A
:10562000000000000000000000000000000000007A
:10563000000000000000000000000000000000006A
:10564000000000000000000000000000000000005A
:10565000000000000000000000000000000000004A
:10566000000000000000000000000000000000003A
:105670000000000000000000232D302B200000005F
:10568000686C4C0065666745464700003031323330
:10569000343536373839414243444546000000002E
:1056A0003031323334353637383961626364656698
:0456B00000000000F6
:1056B40000000000000000000102030406070809BE
:1056C40000000000010203040102030406070809A4
:1056D400000000003856000058560000185600001C
:1056E40000000000000000000000000000000000B6
:1056F40000000000000000000000000000000000A6
:105704000000000000000000000000000000000095
:105714000000000000000000000000000000000085
:105724000000000000000000000000000000000075
:1057340000D8B80502040608042100200100000076
:085744002000002020000020DD
:00000001FF
